:020000040800F2
:10000000000001203967000845110008551100085B
:100010006511000875110008851100080000000036
:100020000000000000000000000000009511000822
:10003000A511000800000000B5110008C511000856
:1000400089670008896700088967000889670008D0
:1000500089670008896700088967000889670008C0
:1000600089670008896700088967000889670008B0
:1000700089670008896700088967000889670008A0
:100080008967000889670008896700088967000890
:100090008967000889670008896700088967000880
:1000A0008967000889670008896700088967000870
:1000B0008967000800000000000000008967000850
:1000C0008967000800000000000000008967000840
:1000D00000000000D9110008F51100080000000020
:1000E0008967000889670008000000000000000020
:1000F0000000000000000000000000000000000000
:1001000000000000000000000000000089670008F7
:1001100000000000000000008967000889670008EF
:1001200089670008896700088967000889670008EF
:1001300089670008000000000000000000000000C7
:1001400089670008896700088967000809120008A4
:1001500089670008896700088967000889670008BF
:1001600089670008896700088967000800000000A7
:10017000896700088967000800000000000000008F
:100180008967000889670008896700080000000087
:1001900010B5054C237833B9044B13B10448AFF3C1
:1001A00000800123237010BDF80100200000000032
:1001B000DC70000808B5034B1BB103490348AFF3DB
:1001C000008008BD00000000FC010020DC70000879
:1001D00010F8012B11F8013B012A28BF9A42F7D0F1
:1001E000D01A7047034613F8012B002AFBD1181AC6
:1001F000013870470000000000000000000000000F
:1002000001F0FF01102A2BDB10F0070F08D010F8C7
:10021000013B013A8B422DD010F0070F42B3F6D1CB
:10022000F0B441EA012141EA014122F007047FF0E4
:1002300000070023F0E80256083C85EA010586EA3B
:10024000010685FA47F5A3FA87F586FA47F6A5FA77
:1002500087F68EB9EED1F0BC01F0FF0102F0070283
:1002600032B110F8013B013A83EA010313B1F8D12E
:100270000020704701387047002D06BF354603380F
:10028000073815F0010F07D1013015F4807F02BF48
:10029000013015F4C03F0130F0BC0138704700BF99
:1002A00053B94AB9002908BF00281CBF4FF0FF31DD
:1002B0004FF0FF3000F074B9ADF1080C6DE904CED9
:1002C00000F006F8DDF804E0DDE9022304B0704731
:1002D0002DE9F047089D04468E46002B4DD18A42F9
:1002E000944669D9B2FA82F252B101FA02F3C2F12C
:1002F000200120FA01F10CFA02FC41EA030E9440BD
:100300004FEA1C48210CBEFBF8F61FFA8CF708FBDD
:1003100016E341EA034306FB07F199420AD91CEBB5
:10032000030306F1FF3080F01F81994240F21C81E7
:10033000023E63445B1AA4B2B3FBF8F008FB10332F
:1003400044EA034400FB07F7A7420AD91CEB040464
:1003500000F1FF3380F00A81A74240F20781644434
:10036000023840EA0640E41B00261DB1D4400023B9
:10037000C5E900433146BDE8F0878B4209D9002D1D
:1003800000F0EF800026C5E9000130463146BDE8A7
:10039000F087B3FA83F6002E4AD18B4202D3824211
:1003A00000F2F980841A61EB030301209E46002DC0
:1003B000E0D0C5E9004EDDE702B9FFDEB2FA82F215
:1003C000002A40F09280A1EB0C014FEA1C471FFA73
:1003D0008CFE0126200CB1FBF7F307FB131140EA5A
:1003E00001410EFB03F0884208D91CEB010103F127
:1003F000FF3802D2884200F2CB804346091AA4B2E9
:10040000B1FBF7F007FB101144EA01440EFB00FEBC
:10041000A64508D91CEB040400F1FF3102D2A64521
:1004200000F2BB800846A4EB0E0440EA03409CE7C0
:10043000C6F12007B34022FA07FC4CEA030C20FA6D
:1004400007F401FA06F31C43F9404FEA1C4900FA8D
:1004500006F3B1FBF9F8200C1FFA8CFE09FB18110A
:1004600040EA014108FB0EF0884202FA06F20BD97D
:100470001CEB010108F1FF3A80F08880884240F2CD
:100480008580A8F102086144091AA4B2B1FBF9F011
:1004900009FB101144EA014100FB0EFE8E4508D90C
:1004A0001CEB010100F1FF346CD28E456AD9023891
:1004B000614440EA0840A0FB0294A1EB0E01A14276
:1004C000C846A64656D353D05DB1B3EB080261EBE4
:1004D0000E0101FA07F722FA06F3F1401F43C5E9BE
:1004E000007100263146BDE8F087C2F12003D840F4
:1004F0000CFA02FC21FA03F3914001434FEA1C4736
:100500001FFA8CFEB3FBF7F007FB10360B0C43EA27
:10051000064300FB0EF69E4204FA02F408D91CEBD7
:10052000030300F1FF382FD29E422DD902386344D5
:100530009B1B89B2B3FBF7F607FB163341EA034175
:1005400006FB0EF38B4208D91CEB010106F1FF38C4
:1005500016D28B4214D9023E6144C91A46EA0046BB
:1005600038E72E46284605E70646E3E61846F8E64D
:100570004B45A9D2B9EB020864EB0C0E0138A3E796
:100580004646EAE7204694E74046D1E7D0467BE777
:10059000023B614432E7304609E76444023842E7EF
:1005A000704700BF72B6FEE700B597B04422002145
:1005B00005A806F00FF9002300930193029303931B
:1005C00004934FF4007004F013FB28BB1023059331
:1005D00001220B9200230C9360230D9302230F93AF
:1005E00010921192282212920722139214931593BB
:1005F00005A803F0C1FB88B90F23009303230193DF
:1006000000230293039304930421684603F0EAFE57
:1006100030B917B05DF804FBFFF7C4FFFFF7C2FF66
:10062000FFF7C0FF08B503F017FAFFF7BDFF00F0B2
:100630005FFB00F0B3FB00F037FC00F0A5FC00F01E
:10064000CDFC00F069FF00F00DF8054B1B88082B6E
:10065000FBD900F04DF8024B00221A80F5E700BFED
:100660001402002008B500F06BFA0A4800F0C4FA42
:1006700000F062F8084800F0BFFA00F03BF90122F0
:100680004FF480714FF0904004F09CFA034800F062
:10069000B3FA08BDF8700008047100081071000872
:1006A00008B5074A13780133DBB213703C2B00D036
:1006B00008BD00F09DF8024B00221A70F8E700BF59
:1006C0001802002008B5094A13780133DBB2137011
:1006D000012B02D00A2B03D008BD00F0F3F9FBE791
:1006E000024B00221A70FFF7DBFFF5E7160200202D
:1006F00010B50F4C23780133237000F09DFA237856
:10070000022B09D00A2B0AD0012B00D010BD0221E8
:10071000084804F05CFAF9E700F0A2F8F6E700F008
:10072000EFF9034B00221A70FFF7CCFFEEE700BF92
:10073000170200200004004808B5002202214FF0F3
:10074000904004F03FFAFF2200210B4806F042F8E7
:100750000A4B082283F8052159229A710322DA7183
:1007600000221A725A729A720C22DA7248221A7392
:10077000D7225A7308BD00BF1C0200201C030020B2
:1007800090B300B54FF0FF3386464FF0000C10E0F9
:10079000C0F34F03013A42B198B213F0010FF7D002
:1007A0004AF2010383EA5003F4E70CF1010C5FFA0B
:1007B0008CFC8A1E944504DA1EF80C205340082253
:1007C000E9E70EEB010212F8020CDAB2904202D015
:1007D00000205DF804FB714411F8012CC3F30723DA
:1007E0009A4203D00020F4E7012070470120F0E78F
:1007F00010B5012202214FF0904004F0E3F90120EE
:1008000003F04CF90849642391F8052106310748A3
:1008100004F0E7FF0446002202214FF0904004F06C
:10082000D1F9204610BD00BF1C0300206007002046
:1008300008B5094B1B78FF2B06D0591C064A1170CE
:10084000064AD054002008BD0021034B1970FF2236
:10085000024805F0BFFFF5E71B0300201C02002043
:1008600010B5134B1C7821461248FFF789FF00B9D9
:1008700010BD22460F49104800F0FCF80F4800F068
:10088000BBF9002405E00B4B195D0D4800F0B4F9ED
:100890000134074B1B78A342F5DC0A4800F0ACF9A1
:1008A0000021034B1970FF22024805F093FFDFE798
:1008B0001B0300201C0200201C710008247100088A
:1008C0002C710008747200080020704710B5064BA8
:1008D0001978064B03EBC10300241C71044800F097
:1008E0008BF9204610BD00BFE0040020EC0400207E
:1008F0003471000870B5274D00242C60264B1C80F5
:10090000264E274A8021304600F0D4FC304600F0C5
:10091000C3FC244B244A1A60244A9A60244A5A6031
:10092000244ADA60244B1360244B9360244B5360B9
:10093000244BD360244A1A609A60244A5A60DC60CF
:10094000234B5C80234B244A1A60244A9A60244A31
:100950001A61244A9A61244A1A62244A9A62244AF1
:100960001A63244A9A63244A1A64244A9A64244AD9
:100970001A6501232B60234605E0164A02EBC302E9
:10098000012111710B44092BF7DD124B02221A7160
:1009900070BD00BFE4040020E8040020240400200F
:1009A00030040020C0040020547100085871000871
:1009B000CD080008D00400206471000870710008A0
:1009C000C9080008B004002080710008490A000826
:1009D0001C030020EC0400208871000890710008BE
:1009E000AC710008C8710008F471000814720008A6
:1009F000347200084C7200086072000878720008B7
:100A0000847200080FB430B5C3B046AC54F8045B30
:100A1000FF22002102A805F0DDFE019422462946AE
:100A200002A805F0F5FE02A8FFF7DCFB0A2382B25C
:100A300002A9044804F0D5FE43B0BDE8304004B03C
:100A4000704700BFDC06002008B50748FFF7DAFF53
:100A5000064B1B68012B01D0002008BD044A1388F7
:100A600001331380F8E700BF9C720008E404002003
:100A7000E80400200E4B1B68012B00D0704770B5B6
:100A80000E46154602EB420302460A4949880A48C7
:100A9000FFF7B8FF002404E0315D0848FFF7B2FF1C
:100AA0000134A542F8DC0648FFF7ACFF70BD00BF7B
:100AB000E40400201C030020AC7200082C71000824
:100AC0007472000808B50B4B1A780B4B03EBC2038A
:100AD0001B7913B90132074B1A70064B1B78092B8F
:100AE00000D908BD044A52F833100448FFF78AFFC2
:100AF000F7E700BFE0040020EC040020D4720008F7
:100B000000B5C1B008E06946084800F075F8202239
:100B10000749684600F0CCFC064A6946064800F0E2
:100B20002CFC0028EFD141B05DF804FBD87200081E
:100B3000C0040020747200082404002000207047C4
:100B400008B5174B174A1A60174A9A60174A5A6035
:100B5000174ADA60174B1360174B9360174B5360BB
:100B6000174BD360174A1A60174A9A60174A5A609F
:100B7000174ADA60174B1360174B9360174B53609B
:100B8000174BD360174A1A60174A9A60174A5A607F
:100B90000022DA60164A6421164800F08BFB08BD7B
:100BA00084050020E8720008F07200087D0C00083F
:100BB000740500201073000818730008990C0008D1
:100BC000A40500202873000830730008C50C000835
:100BD00064050020447300084C730008D50C00081D
:100BE000940500205C730008607300083D0B00084A
:100BF000B4050020180600200FB430B59BB01EAC21
:100C000054F8045B6422002101A805F0E3FD009480
:100C10002246294601A805F0FBFD01A8FFF7E2FAEC
:100C200081B201A800F07AFD012002F037FF1BB06D
:100C3000BDE8304004B0704708B50D4B5A780D211F
:100C4000986800F01CFC002800DC08BD202209493F
:100C5000074B986800F02CFCB0F1FF3F03D004482C
:100C600000F01AFBF1E70448FFF7C6FFF7E700BF03
:100C700018060020840500207C73000808B504488D
:100C8000FFF7BAFF01210348FFF7B6FF002008BDB8
:100C900090730008AC73000810B50748FFF7ACFF6D
:100CA000064C05E0A26821680548FFF7A5FFE46847
:100CB000002CF7D1002010BDC4730008840500206B
:100CC000DC73000808B50248FFF796FF002008BD56
:100CD000E873000808B5012803DCFFF789FD002050
:100CE00008BD49680148FFF787FFF6E7F873000879
:100CF00070B588B000240394049405940694079476
:100D0000244BDA6C42F00102DA64DA6C02F0010280
:100D10000192019ADA6C42F00202DA64DB6C03F0B1
:100D200002030293029B22464FF481714FF09040E0
:100D300003F048FF184D22462321284603F042FFC6
:100D40004FF481730393012604960594069403A936
:100D50004FF0904003F05EFE6023039304940594EB
:100D600003A94FF0904003F055FE2123039304960E
:100D70000594069403A9284603F04CFE022303932E
:100D8000112304930594069403A9284603F042FE18
:100D900008B070BD001002400004004800B587B0E4
:100DA000002300930193029303930493059319483E
:100DB000194A026043608360C36003610422426198
:100DC000037643760122C26180F820308362C362D9
:100DD00080F83030436380F8383003F0C5FF90B9B5
:100DE0000E4B009306230193002302937F2203926C
:100DF0000422049205936946064804F0A3F828B932
:100E000007B05DF804FBFFF7CDFBE9E7FFF7CAFB8E
:100E1000F6E700BF240600200000045000106032F6
:100E200010B59CB0044600211791189119911A91A0
:100E30001B91542202A805F0CDFC2268184B9A425F
:100E400001D01CB010BD4FF4804302934FF04053CB
:100E5000149302A803F06AFCF0B9124BDA6C42F466
:100E60000052DA64DA6C02F400520092009ADA6CF2
:100E700042F00102DA64DB6C03F001030193019B91
:100E8000802317930B2318930023199317A94FF06E
:100E9000904003F0BFFDD4E7FFF784FBDDE700BF20
:100EA000000004500010024008B51248124B0360C5
:100EB000124B4360002383600122C26003614361DF
:100EC0008361C361036202F0FDFD50B9002109484E
:100ED00002F056FE40B90021064802F07FFE30B90C
:100EE00008BDFFF75FFBF1E7FFF75CFBF3E7FFF7F8
:100EF00059FBF5E78806002000540040EC9C901058
:100F000010B59CB0044600211791189119911A91BF
:100F10001B91542202A805F05DFC2268174B9A42EF
:100F200001D01CB010BD4023029302A803F0FEFBC9
:100F300008BB134CE36C43F00203E364E36C03F07F
:100F400002030093009BC0231793122318930023DE
:100F5000199303231A9304231B9317A9094803F039
:100F600059FDA36D43F40013A365A36D03F40013AF
:100F70000193019BD5E7FFF715FBDAE7005400402A
:100F8000001002400004004808B51248124B0360EC
:100F90004FF4E133436000238360C36003610C229C
:100FA00042618361C3610362436204F0BEFC70B9B5
:100FB000084B1A68136843F02003136001220021D4
:100FC000252003F077FE252003F0ACFE08BDFFF7D7
:100FD000E9FAEDE7DC0600200038014008B51448C6
:100FE000144B03604FF4166343604FF480538360E7
:100FF0000023C3604FF4806202610C22426183616E
:10100000C3610362436204F090FC70B9084B1A6834
:10101000136843F02003136001220021262003F00F
:1010200049FE262003F07EFE08BDFFF7BBFAEDE780
:10103000600700200044004010B59EB00446002127
:1010400019911A911B911C911D91542204A805F02D
:10105000C1FB2368384A934204D0384A934236D0C1
:101060001EB010BD0123049304A803F05FFB58BB1E
:10107000334B1A6E42F480421A661A6E02F48042B2
:101080000092009ADA6C42F00102DA64DB6C03F041
:1010900001030193019B4FF4C063199302231A9338
:1010A00000241B9403231C9307231D9319A94FF0BD
:1010B000904003F0AFFC22462146252003F0FAFDC4
:1010C000252003F02FFECBE7FFF76CFAD0E70223D1
:1010D000049304A803F02AFB50BB194B9A6D42F409
:1010E00000329A659A6D02F400320292029ADA6C2A
:1010F00042F00102DA64DB6C03F001030393039B0B
:101100000C23199302231A9300241B9403231C938A
:1011100007231D9319A94FF0904003F07BFC224652
:101120002146262003F0C6FD262003F0FBFD97E7AD
:10113000FFF738FAD1E700BF003801400044004013
:101140000010024008B50248FFF756FDFEE700BF59
:101150001074000808B50248FFF74EFDFEE700BF17
:101160002074000808B50248FFF746FDFEE700BFFF
:101170003474000808B50248FFF73EFDFEE700BFE3
:101180004874000808B50248FFF736FDFEE700BFC7
:101190005C74000808B50248FFF72EFD08BD00BFCB
:1011A0007474000808B50248FFF726FD08BD00BFAB
:1011B0008474000808B50248FFF71EFD08BD00BF93
:1011C0009874000808B5034A13880133138002F0AD
:1011D00053FC08BD1402002008B5044B1B68998C11
:1011E000C9B2034800F071F808BD00BFDC0600205A
:1011F0002404002008B5034B1B68988CC0B2FFF78D
:1012000017FB08BD6007002008B5024801F036FA58
:1012100008BD00BFA814002082B00A4B1A6E42F02D
:1012200001021A661A6E02F001020092009A9A6D8B
:1012300042F080529A659B6D03F080530193019BAD
:1012400002B0704700100240034AD2F8883043F4DD
:101250007003C2F88830704700ED00E0024688B1A4
:101260000379012B0FD053780133D17893FBF1F040
:1012700001FB1033DBB2537011788B4214BF002393
:1012800001231371704703780133C17893FBF1F0A8
:1012900001FB10331370E6E758B108B50021017067
:1012A0004170017181704171C278806805F092FAD5
:1012B00008BD704740B108B58260C17000228270DD
:1012C0004271FFF7E9FF08BD704710B560B10346F2
:1012D000047914B10124204610BD80685A788154E5
:1012E0001846FFF7BBFFF6E70124F4E703468078D2
:1012F0006BB11A7962B95A781B789A4202D3D01A24
:10130000C0B270471044C0B2C01AC0B270470020CB
:10131000704778B110B50446002303710378013398
:10132000C27893FBF2F102FB11330370FFF7DEFF8B
:10133000A07010BD7047F8B5E8B10F4615460446D9
:1013400000260BE0A2682378D35CBB552046FFF74C
:10135000E0FF2046FFF7CAFFA0700136B54208DD66
:101360002379002BEED1627823789A42EAD128467D
:10137000F8BD0025FBE70025F9E700287BD02DE923
:10138000F04F83B000AF8A4690460646002974D0DD
:101390001046FEF727FF78605FFA80FB3478F2781A
:1013A000D31D03F4FC73ADEB030DE9460025757105
:1013B0002946684605F00EFA3D6014E05B465BB1D5
:1013C0005A18023A19F802005A1E18F802209042E0
:1013D00022D1013BDBB2F2E70123FBB9727913445E
:1013E00073710135EDB23046FFF780FF85421AD2A6
:1013F000B36829461A5D09F805200134F37894FB97
:10140000F3F003FB1044E4B23B79013B18F80330DE
:101410009A42D3D00023E1E70023DEE73A68002AAE
:10142000DCD13D60DAE796F90530002B04DC0020C2
:101430000C37BD46BDE8F08F3A685A44D2B2013A43
:10144000D2B251463046FFF776FF5046FEF7CAFE4D
:10145000C1B20139C9B2002301E00133DBB28B42D2
:1014600007D23A798A1A9342F7DD00220AF803205C
:10147000F3E70120DCE7012070470120D8E70346AD
:101480000020904211DA00B503EB000E13F800C003
:101490008C4505D001309042F6DB4FF0FF3002E082
:1014A00000238EF800305DF804FB4FF0FF307047EA
:1014B00070B50C460121002603E0002303700121D2
:1014C000013003785BB19342F7D00029F8D0072EA2
:1014D0001DD8104B43F8260001360021F0E71EB955
:1014E0004FF0FF3012E0E46874B125682946094BDB
:1014F0001868FEF76DFE0028F5D1002DF3D0636863
:1015000004493046984701E04FF0FF3070BD6FF05E
:101510000100FBE7E407002008B500220F4910484E
:1015200004F034FA70B90F490D4804F046FA60B976
:101530000D490B4805F0B1F850B9094804F054FAC8
:1015400048B908BDFFF72EF8EDE7FFF72BF8EFE7F6
:10155000FFF728F8F1E7FFF725F8F2E7040000208D
:1015600008080020800000206400002012230B8067
:10157000004870473000002004230B80004870476B
:10158000440000200C230B800048704724000020FA
:10159000002393421ED200B510E00CF1370C01F885
:1015A00013C000014FEA430C0CF1010C4FF0000E88
:1015B00001F80CE00133DBB2934209D24FEA107C10
:1015C000B0F1204FE9D20CF1300C01F813C0E8E77C
:1015D0005DF804FB7047000038B50B4BD3F890055D
:1015E000D3F89445D3F89835C01800D138BD074DCD
:1015F0000822A91CFFF7CCFF042205F112012046A6
:10160000FFF7C6FFF2E700BF0070FF1F4800002091
:1016100008B51A230B80FFF7DFFF014808BD00BFA4
:101620004800002008B50A4628B90549054804F0D5
:1016300058FE034808BD0249024804F052FEF8E78C
:10164000D80A0020F474000810B50A46034C21465D
:10165000034804F046FE204610BD00BFD80A002013
:101660000C75000808B50A4628B90549054804F074
:1016700038FE034808BD0249024804F032FEF8E78C
:10168000D80A00202075000808B50A4628B905497F
:10169000054804F026FE034808BD0249024804F04C
:1016A00020FEF8E7D80A00202C75000800207047BB
:1016B000002070470020704770B505460E46002494
:1016C00000E001343368A34206D9295D0A29F8D025
:1016D0000648FFF7FAFDF4E7054C2946204604F0DA
:1016E000EEFF204605F00EF8002070BD1806002021
:1016F0000808002010B5064C00220649204604F0D8
:10170000D3FF0549204604F0DAFF002010BD00BFDA
:1017100008080020C0100020D80C0020094BD3F886
:10172000BC32D3F814320BB10120704710B5054C10
:101730000A460146204604F0B7FF204604F0C8FFE1
:1017400010BD00BF0808002008B5FEF72DFF08BD3A
:1017500010B596B004465422002101A805F03AF8CD
:101760002268194B9A4201D016B010BD4FF40053B5
:1017700001934FF080631193012302930393182385
:101780000493072305930223069307934FF48013D2
:10179000089301A802F0CAFF90B90C4B9A6D42F071
:1017A00080629A659B6D03F080630093009B00222A
:1017B0001146432003F07EFA432003F0B3FAD3E747
:1017C000FEF7F0FEE9E700BF0068004000100240AD
:1017D00008B500F52D71D0F8F80204F01AF908BD2B
:1017E00008B501EB810300EBC303D3F88021D0F8E7
:1017F000F80204F03AF908BD08B501EB810300EBEB
:10180000C3031A6CD0F8F80204F06BF908BD08B5F0
:10181000D0F8F80204F00BFA08BD10B5044683684E
:10182000022B09D10121D4F8F80204F0E6F9D4F82A
:10183000F80204F0B5F910BDFEF7B4FEF2E70000BF
:1018400010B50446D0F8F80204F0DAF9A36923B120
:10185000024A136943F00603136110BD00ED00E076
:1018600010B50446836923B9D4F8F80204F0D2F91C
:1018700010BD044A136923F006031361FFF764FFE8
:10188000F2E700BF00ED00E010B5044603F0F8F900
:101890001E48C0F8F842C4F8C4021D4B0360082378
:1018A0004360022383600361002343618361C3615A
:1018B000036200F07CF930BB182300221146D4F8F3
:1018C000C40201F006F9582300228021D4F8C40292
:1018D00001F0FFF8C02300228121D4F8C40201F0F6
:1018E000F8F84FF4887300220121D4F8C40201F003
:1018F000F0F84FF4807300228221D4F8C40201F082
:10190000E8F8002010BDFEF74DFED5E7A814002032
:101910000068004008B5D0F8C40200F0DEF90328E2
:1019200005D8DFE800F003040203012008BD03200E
:10193000FCE708B594461A466346D0F8C40200F0A6
:1019400076FF032805D8DFE800F003040203012036
:1019500008BD0320FCE708B5D0F8C40200F0ABFFD7
:10196000032805D8DFE800F003040203012008BDC6
:101970000320FCE708B5D0F8C40201F027F80328DB
:1019800005D8DFE800F003040203012008BD0320AE
:10199000FCE708B5D0F8C40201F05AF8032805D8CE
:1019A000DFE800F003040203012008BD0320FCE788
:1019B000D0F8C43211F0800F08D101F07F0101EBA3
:1019C000810103EBC10191F86E01704701F07F01C5
:1019D000013101EB810103EBC1018879704708B542
:1019E000D0F8C40200F036FE032805D8DFE800F086
:1019F00003040203012008BD0320FCE708B5D0F86A
:101A0000C40200F0B9FF032805D8DFE800F00304A2
:101A10000203012008BD0320FCE708B5D0F8C4028A
:101A200000F07EFF032805D8DFE800F0030402037E
:101A3000012008BD0320FCE708B5D0F8C40200F07F
:101A400092FF08BD10B5044611B101290FD010BD99
:101A5000836923B9D4F8F80204F0DCF8F7E7FFF75C
:101A600073FE094A136923F006031361F2E7D0F805
:101A7000F80204F0C5F8A369002BE8D0024A136904
:101A800043F006031361E2E700ED00E00048704711
:101A9000A4170020704738B512F4804F43D0046873
:101AA000B4F8503091F800C04FEACC0E1EFA83F320
:101AB0002344B3F80244C4F309048B69A34228D336
:101AC0001B1B8B618B697BB9056835F82C309BB289
:101AD00023F4804323F0700383F4005343F4004362
:101AE00043F0800325F82C3012F0400F0ED002682E
:101AF0000D7832F825309BB223F4E04323F07003D5
:101B000043F4004343F0C00322F8253024B92046B3
:101B100038BD00238B61D5E723460A8949690068EF
:101B200001F05AFFF3E70468B4F8503091F800C0B0
:101B30004FEACC0E1EFA83F32344B3F80644C4F3F1
:101B400009048B69A3422FD31B1B8B618B697BB963
:101B5000056835F82C309BB223F4804323F07003E2
:101B600083F4005343F4004343F0800325F82C3002
:101B700012F0400F0FD1026891F800C032F82C30FB
:101B80009BB223F4E04323F0700343F4004343F09B
:101B9000C00322F82C30002CB9D023464A89496969
:101BA000006801F019FFB2E700238B61CEE770B542
:101BB00086B0002800F08F80044690F8AD32F3B173
:101BC000032384F8AD32206800F0C7FF254655F89E
:101BD000106BEC460FCDACE80F0095E803008CE8E5
:101BE0000300231D0ECB304600F0A7FF054658B179
:101BF000022384F8AD320125284606B070BD80F876
:101C0000AC32FFF7A5FDDBE70021206800F0AFFF55
:101C10002B461BE0581C00EB800204EBC2020121A2
:101C2000517100EB800204EBC202137103EB8302DB
:101C300004EBC202538700EB800C04EBCC0C0021B8
:101C40008CF80710D16311645164C3B261688B4290
:101C5000E0D316E005EB850304EBC303002283F811
:101C60006D2183F86C5183F86F21C3F87C21C3F890
:101C7000802105EB850304EBC303C3F88421013500
:101C8000EDB2A942E6D8254655F8106BEC460FCDCB
:101C9000ACE80F0095E803008CE80300231D0ECB91
:101CA000304600F066FF054660B9002384F828300E
:101CB000012384F8AD32E369012B08D0206801F0DC
:101CC000B9FA99E7022384F8AD32012594E720465A
:101CD00000F01DFFF2E701258EE790F8AC32012BF2
:101CE0000ED010B50446012380F8AC32006800F035
:101CF0002BFF206801F093FA002084F8AC0210BD9D
:101D00000220704770B505460C46164612F0400F8B
:101D100000F009810268B2F850300978C80010FA62
:101D200083F31344B3F80224C2F30902A369934274
:101D300051D99B1AA361A369002B68D16378002B4A
:101D40004CD12A68B2F8503012FA83F30344B3F846
:101D5000022492B222F4F84292B2A3F80224B3F819
:101D600002246FEA42426FEA524292B2A3F802247E
:101D700029686278002A3DD1B1F8503011FA83F316
:101D8000227803EBC203B3F8062492B222F4F8429D
:101D900092B2A3F80624B3F806246FEA42426FEA2F
:101DA000524292B2A3F8062421782846FFF724FD78
:101DB00016F4804F40D02A68217832F821309BB247
:101DC00023F4E04323F0700343F4404343F08003E3
:101DD00022F8213030E00023A361ACE7012BC7D10A
:101DE0002A68B2F8503012FA83F303440022A3F8B1
:101DF0000224BDE7012AD7D1B1F8503011FA83F39C
:101E0000217803EBC1030022A3F80624CCE716F4E3
:101E1000804F0DD0286830F821309BB223F4E04386
:101E200023F0700343F4404343F0800320F8213053
:101E300094F82430012B12D02A68217832F821300E
:101E40009BB223F4E04323F0400383F0300343F4D8
:101E5000004343F0800322F82130002070BD636905
:101E600013446361E3691344E361216A236999427E
:101E70001BD3C91A21626278002A3FD12968B1F8C0
:101E8000502011FA82F2217802EBC1023E2B18D9C0
:101E9000590913F01F0F00D101396FEAC1616FEAD0
:101EA000514189B2A2F802142AE021B9002384F832
:101EB00024301346DFE7002384F8243023620B46E6
:101EC000D9E78BB9B2F8021489B221F4F84189B28A
:101ED000A2F80214B2F802146FEA41416FEA5141CC
:101EE00089B2A2F802140BE0590813F0010F00D0D8
:101EF0000131890289B2A2F8021401E0012A06D058
:101F00009BB222896169286801F0A2F994E72968E7
:101F1000B1F8502011FA82F2217802EBC10299B295
:101F2000A2F80214ECE70268B2F850300978C80051
:101F300010FA83F31344B3F80624C2F30902A36929
:101F4000934252D39B1AA361A369002B69D1637892
:101F5000002B4DD12A68B2F8503012FA83F318449E
:101F6000B0F802349BB223F4F8439BB2A0F80234D9
:101F7000B0F802346FEA43436FEA53439BB2A0F8D0
:101F8000023429686278002A3ED1B1F8503011FA43
:101F900083F3227803EBC203B3F8062492B222F44F
:101FA000F84292B2A3F80624B3F806246FEA42423C
:101FB0006FEA524292B2A3F8062421782846FFF72E
:101FC0001BFC16F4804F7FF437AF2A68217832F873
:101FD00021309BB223F4E04323F0700343F44043E9
:101FE00043F0800322F8213026E70023A361ABE70A
:101FF000012BC6D12A68B2F8503012FA83F3184484
:102000000023A0F80234BCE7012AD6D1B1F8503041
:1020100011FA83F3217803EBC1030022A3F806240D
:10202000CBE716F4804F0DD1286830F821309BB2F1
:1020300023F4E04323F0700343F4404343F0800370
:1020400020F8213094F82430012B7FF4F5AE636939
:1020500013446361E3691344E361216A236999428C
:102060001BD3C91A216229686278002A3ED1B1F8CF
:10207000502011FA82F2217802EBC1023E2B18D9CE
:10208000590913F01F0F00D101396FEAC1616FEADE
:10209000514189B2A2F806142AE021B9002384F83C
:1020A00024301346DFE70023236284F824300B46F4
:1020B000D9E78BB9B2F8061489B221F4F84189B294
:1020C000A2F80614B2F806146FEA41416FEA5141D2
:1020D00089B2A2F806140BE0590813F0010F00D0E2
:1020E0000131890289B2A2F8061401E0012A06D062
:1020F0009BB262896169286801F0AAF89CE6B1F890
:10210000502011FA82F2217802EBC10299B2A2F8B2
:102110000614EDE72DE9F04105462868B0F8443093
:1021200013F4004F00F09382B0F84440A3B214F0CF
:102130000F0440F0D78013F0100F60D003889AB2DC
:1021400013F4006F40F0908012F4004FE5D0038844
:1021500023F070031B051B0D43F0800303802868E8
:10216000B0F8503095F86C21D20012FA83F3034492
:10217000B3F80634C3F30903C5F888318BB1D5F839
:10218000801171B1B5F8722101F026FCD5F88821D3
:10219000D5F880311344C5F8803100212846FFF777
:1021A0001FFB2A68138899B213F4006FB5D101F4AC
:1021B0004051B1F5405FB0D0B2F8503012FA83F21E
:1021C000D5F87C113E2970D94B0911F01F0F00D1B1
:1021D000013B6FEAC3636FEA53439BB2A2F8063434
:1021E0002A6813889BB223F4804323F0700383F49E
:1021F000405343F4004343F0800313808DE703888A
:102200009BB223F4E14323F070036FEA43436FEA88
:1022100053439BB203802968B1F8503095F82C20C5
:10222000D20012FA83F30B44B3F80234C3F3090368
:10223000AB642A6C13442B6400212846FFF7DCFAB8
:1022400095F82830002B3FF468AF6B6C002B7FF4BF
:1022500064AF95F828302A6843F08003A2F84C3028
:10226000002385F8283058E7B0F8503095F86C21F5
:10227000D20012FA83F30344B3F80634C3F309031C
:10228000C5F88831B5F8722105F52D7101F0A4FB70
:102290002A68138823F070031B051B0D43F080038D
:1022A00013802846FFF794FA37E789B9B2F8063465
:1022B0009BB223F4F8439BB2A2F80634B2F806347A
:1022C0006FEA43436FEA53439BB2A2F8063487E7B1
:1022D0004B0811F0010F00D001339B029BB2A2F812
:1022E00006347DE730F824309EB213F4004F50D10D
:1022F00016F0800F3FF411AF621C02EB820105EB78
:10230000C1010431286830F824309BB223F4E14342
:1023100023F070036FEA43436FEA53439BB220F804
:10232000243002EB820205EBC202D379012B00F0CC
:10233000EF8016F4807F40F085812868B0F8502047
:10234000631C03EB830305EBC3031E79F30013FA4D
:1023500082F30344B3F80234C3F3090304EB8402A9
:1023600005EBC202526C9A4240F2588104EB84079A
:1023700005EBC707D21A7A6404EB840205EBC202AC
:10238000526C002A40F0518131462846FFF734FA5A
:10239000C3E630F8243023F070031B051B0D43F017
:1023A000800320F8243004EB8401C90001F5B471E6
:1023B00029440F1D04EB840305EBC30393F8783124
:1023C000002B42D12868B0F8503004EB840205EBB2
:1023D000C20292F86C21D20012FA83F30344B3F8DC
:1023E0000684C8F30908B8F1000F22D104EB840376
:1023F00005EBC303D3F888214244C3F88821D3F8FE
:1024000080214244C3F88021D3F884313BB104EBEE
:10241000840305EBC303D3F87C31984573D204EBF6
:10242000840305EBC30393F86C112846FFF7D8F932
:102430005EE704EB840105EBC1014346B1F872216C
:10244000D1F8801101F0C8FAD0E704EB840305EB62
:10245000C30393F86F31022B34D0296804EB840254
:1024600005EBC20292F86C0131F820309BB223F4E4
:10247000E04323F0700343F4004343F0C00321F82A
:102480002030286892F86C3130F8232012F4804F05
:102490001FD0B0F85020DB0013FA82F30344B3F8E6
:1024A0000284C8F30908B8F1000F9FD004EB84013F
:1024B00005EBC1014346B1F87421D1F8801101F058
:1024C0008BFA93E7324639462846FFF7E4FA80460E
:1024D0008CE7B0F85020DB0013FA82F30344B3F822
:1024E0000684C8F30908B8F1000F3FF47FAF04EB8E
:1024F000840105EBC1014346B1F87621D1F8801182
:1025000001F06AFA72E73946286800F0B5FEEFE696
:1025100004EB840305EBC30300225A6493F83830BC
:102520003BB316F0400F41D0631C03EB830305EB74
:10253000C3035B793BBB2A68B2F8503012FA83F3CD
:10254000621C02EB820205EBC202127903EBC203AA
:10255000B3F8022492B222F4F84292B2A3F8022411
:10256000B3F802246FEA42426FEA524292B2A3F8F1
:102570000224013404EB840405EBC40421792846C9
:10258000FFF73AF9C9E5012BF3D12A68B2F85030C8
:1025900012FA83F2631C03EB830305EBC3031B797D
:1025A00002EBC3030022A3F80224E2E72A68631CBB
:1025B00003EB830305EBC3035B79EBB9B2F850304F
:1025C00012FA83F3621C02EB820205EBC20212795B
:1025D00003EBC203B3F8062492B222F4F84292B29B
:1025E000A3F80624B3F806246FEA42426FEA524287
:1025F00092B2A3F80624BCE7012BBAD1B2F850304E
:1026000012FA83F2631C03EB830305EBC3031B790C
:1026100002EBC3030022A3F80624AAE704EB84021A
:1026200005EBC20200275764A6E604EB840205EB23
:10263000C202166C1E441664946C2344936400F02A
:102640001BFE6AE532462846FFF75CFB65E5002085
:10265000BDE8F08190F8AC32012B0DD010B50446E6
:10266000012380F8AC3280F82810006800F0D1FD1A
:10267000002084F8AC0210BD0220704710B504465B
:10268000006800F0DFFD10F4004F23D110F4806FDC
:1026900024D110F4804F32D110F4005F39D110F4FE
:1026A000805F40D110F4006F67D110F0800F40F0D0
:1026B000818010F4007F40F0AD8010F4807F27D03F
:1026C0002268B2F844309BB223F480739BB2A2F824
:1026D00044301DE02046FFF71DFD19E02268B2F8E6
:1026E00044309BB223F480639BB2A2F8443020466E
:1026F000FFF793F800212046FFF7ACFF08E02268BF
:10270000B2F844309BB223F480439BB2A2F8443029
:1027100010BD2268B2F844309BB223F400539BB240
:10272000A2F84430F4E72268B2F840309BB223F0BC
:1027300004039BB2A2F840302268B2F840309BB24A
:1027400023F008039BB2A2F8403094F8E432012B46
:102750000CD02046FFF784F82268B2F844309BB2D0
:1027600023F480539BB2A2F84430D1E7002184F8CF
:10277000E4122046FFF766F9EBE72268B2F8403032
:102780009BB243F00803A2F840302268B2F844300C
:102790009BB223F400639BB2A2F844302268B2F8E3
:1027A00040309BB243F00403A2F840302046FFF7CC
:1027B00047F8ADE72268B2F844309BB223F08003BB
:1027C0009BB2A2F8443094F8E432FBB92268B2F824
:1027D00040309BB243F00403A2F840302268B2F8C4
:1027E00040309BB243F00803A2F84030012184F846
:1027F000E4122368B3F85430C3F38D0303F03C03B1
:10280000C4F8E8322046FFF71DF981E72046FFF7BC
:1028100017F87DE72268B2F844309BB223F40073C6
:102820009BB2A2F844302046FEF7F1FF70E738B5BE
:1028300005468C4611F0800F29D101F0070E0EEBF2
:102840008E04E40004F5B4740444211D0EEB8E0ED6
:1028500000EBCE0E00208EF86D010CF0070C81F815
:1028600000C00A61CB704A780AB1A1F80EC0022BF1
:102870001CD095F8AC32012B1BD0012385F8AC326B
:10288000286800F087F9002085F8AC0238BD01F017
:102890000700013000EB800105EBC101043100EBC2
:1028A000800005EBC00001244471D6E700230B71C2
:1028B000DFE70220EAE710B504460A4611F0800F70
:1028C00020D101F0070000EB8003DB0003F5B473B7
:1028D0002344191D00EB800004EBC000002380F8A6
:1028E0006D3102F007020A7094F8AC32012B15D05A
:1028F000012384F8AC32206800F02AFB002084F821
:10290000AC0210BD01F00700013000EB800304EBC6
:10291000C303191D184601234371E2E70220F0E7C3
:1029200010B501F0070404EB8401C90001F5B4718E
:102930000144043104EB840C00EBCC0CCCF8802176
:10294000CCF884310023CCF888318CF86D318CF8C8
:102950006C4124B9006800F08FFC002010BD0068B5
:1029600000F08AFCF9E701F0070101EB810100EBBF
:10297000C101D1F88801704710B501F0070404F1D6
:10298000010C0CEB8C0100EBC101043104EB840E53
:1029900000EBCE0ECEF84020CEF8443001228EF867
:1029A0005020CEF84C300023CEF848300CEB8C038E
:1029B00000EBC3035A711C7124B9006800F05CFC81
:1029C000002010BD006800F057FCF9E738B501F0B1
:1029D00007054268954237D804460B4611F0800F30
:1029E0001FD101EB8101C90001F5B471014404312B
:1029F00003EB830300EBC303002283F86D21012363
:102A00008B700D7094F8AC32012B1FD0012384F829
:102A1000AC32206800F087FB85B1002084F8AC025E
:102A200038BD6B1C03EB830100EBC101043103EBE8
:102A3000830300EBC30301225A71E0E704F52D7113
:102A4000206800F003FCE8E70120E9E70220E7E75F
:102A50000B4601F00F014268914236D810B504468A
:102A600013F0800F22D103F0070202EB8201C900AC
:102A700001F5B4710144043102EB820200EBC202A1
:102A8000002082F86D0100228A7003F007030B70AA
:102A900094F8AC32012B1AD0012384F8AC322068B0
:102AA00000F066FB002084F8AC0210BD03F00702C2
:102AB000013202EB820100EBC101043102EB820220
:102AC00000EBC20201205071DDE7012070470220B7
:102AD000EBE711F0800F0CD001F00701013101EBA1
:102AE000810100EBC10104315AB90A73CB80002087
:102AF000704701EB8101C90001F5B4710144043153
:102B0000F2E701220A730B811B0C4B81EFE70346AE
:102B100002680121C0F8F012002083F8E402B2F844
:102B200054309BB20B43A2F85430B2F854309BB2ED
:102B300043F00203A2F85430704784B001A880E843
:102B40000E00002004B0704703460020A3F84400A4
:102B50004BF68072A3F840207047B0F8403023F461
:102B60007E535B045B0CA0F84030002070470020CF
:102B7000704784B0844601A880E80E000123ACF8B9
:102B800040300020ACF84000ACF84400ACF85000F5
:102B900004B0704710B503460A7830F822C01FFA17
:102BA0008CFC2CF4EC4C2CF0700C1FFA8CFCC878CC
:102BB000032862D8DFE800F0565D0259002048F291
:102BC000800E4CEA0E0C23F822C091F800C033F8B6
:102BD0002C2012B222F4E04222F070024CEA0202EF
:102BE00092B242EA0E0223F82C200A7B002A40F01F
:102BF000D3804A78002A51D0B3F8502013FA82F2D9
:102C00000C7802EBC402B1F806C04FEA5C0C4FEA44
:102C10004C0CA2F800C40C7833F8242012F0400FBA
:102C20000CD033F8242092B222F4E04222F0700259
:102C300042F4004242F0C00223F82420CA78012A5C
:102C40001DD0097833F8212092B222F4E04222F01C
:102C5000400282F0200242F4004242F0800223F857
:102C600021200EE14CF4007CA9E74CF4C06C00205C
:102C7000A5E74CF4806C0020A1E701209FE70978CC
:102C800033F8212092B222F4E04222F0400242F4D2
:102C9000004242F0800223F82120F2E0B3F85020F5
:102CA00013FA82F20C7802EBC402B1F806C04FEAC4
:102CB0005C0C4FEA4C0CA2F804C4B3F8502013FA91
:102CC00082F20C7802EBC4020C693E2C33D94FEA35
:102CD000541C14F01F0F01D10CF1FF3C6FEACC6CB7
:102CE0006FEA5C4C1FFA8CFCA2F806C40C7833F82F
:102CF000242012F4804F0CD033F8242092B222F416
:102D0000E04222F0700242F4404242F0800223F896
:102D10002420097881BB33F8212092B222F480422A
:102D200022F0700282F4405242F4004242F08002EB
:102D300023F82120A5E08CB9B2F80644A4B224F40B
:102D4000F844A4B2A2F80644B2F806446FEA444438
:102D50006FEA5444A4B2A2F80644C7E74FEA540C01
:102D600014F0010F01D00CF1010C4FEA8C2C1FFA6A
:102D70008CFCA2F806C4B9E733F8212092B222F401
:102D8000804222F0700282F4005242F4004242F08B
:102D9000800223F8212074E0CA78022A72D00C78CD
:102DA00033F8242092B222F4E24222F0700242F47C
:102DB000004242F0800223F82420B3F8502013FA96
:102DC00082F291F800C002EBCC02B1F808C04FEAE1
:102DD0005C0C4FEA4C0CA2F800C4B3F8502013FA74
:102DE00082F291F800C002EBCC02B1F80AC04FEABF
:102DF0005C0C4FEA4C0CA2F804C44A78002A50D16B
:102E00000C7833F8242012F4804F0CD033F82420AF
:102E100092B222F4E04222F0700242F4404242F0C8
:102E2000800223F824200C7833F8242012F0400F7D
:102E30000CD033F8242092B222F4E04222F0700247
:102E400042F4004242F0C00223F8242091F800C06E
:102E500033F82C2092B222F4804222F0700282F4E5
:102E6000405248F28004224323F82C20097833F89A
:102E7000212092B222F4E04222F04002224323F8C1
:102E8000212010BD0C7833F8242092B222F4E042C5
:102E900022F0700242F4014242F0800223F8242022
:102EA0008BE70C7833F8242012F4804F0CD033F8E1
:102EB000242092B222F4E04222F0700242F4404216
:102EC00042F0800223F824200C7833F8242012F0FA
:102ED000400F0CD033F8242092B222F4E04222F0CA
:102EE000700242F4004242F0C00223F82420CA7863
:102EF000012A1ED00C7833F8242092B222F4E0424A
:102F000022F0400282F0200242F4004242F08002AD
:102F100023F82420097833F8212092B222F4804249
:102F200022F0700242F4004242F0800223F8212095
:102F3000A7E70C7833F8242092B222F4E04222F082
:102F4000400242F4004242F0800223F82420E1E7EC
:102F50000B7B002B46D14B7813B30A7830F8223024
:102F600013F0400F0CD030F822309BB223F4E04332
:102F700023F0700343F4004343F0C00320F82230F1
:102F80000A7830F822309BB223F4E04323F0400368
:102F900043F4004343F0800320F8223000207047C0
:102FA0000A7830F8223013F4804F0CD030F82230F9
:102FB0009BB223F4E04323F0700343F4404343F017
:102FC000800320F822300A7830F822309BB223F4B4
:102FD000804323F0700343F4004343F0800320F860
:102FE0002230DBE74B78002B4ED10A7830F82230C4
:102FF00013F4804F0CD030F822309BB223F4E0431E
:1030000023F0700343F4404343F0800320F8223060
:103010000A7830F8223013F0400F0CD030F822300C
:103020009BB223F4E04323F0700343F4004343F0E6
:10303000C00320F822300A7830F822309BB223F403
:10304000E04323F0700343F4004343F0C00320F84F
:1030500022300B7830F8232092B222F4804222F002
:10306000700248F2800C42EA0C0220F823200A7811
:1030700030F822309BB223F4E04323F0400343EACC
:103080000C0320F8223089E70A7830F8223013F454
:10309000804F0CD030F822309BB223F4E04323F071
:1030A000700343F4404343F0800320F822300A7851
:1030B00030F8223013F0400F0CD030F822309BB2A1
:1030C00023F4E04323F0700343F4004343F0C003D0
:1030D00020F822300A7830F822309BB223F4E04303
:1030E00023F0700343F4404343F0800320F8223080
:1030F0000B7830F8232092B222F4E04222F0400212
:1031000048F2800C42EA0C0220F823200A7830F8BA
:1031100022309BB223F4804323F0700343EA0C0374
:1031200020F822303AE74B788BB10A7830F8223019
:103130009BB223F4E04323F0400383F0100343F4F5
:10314000004343F0800320F82230002070470A78C3
:1031500030F822309BB223F4804323F0700383F4D1
:10316000805343F4004343F0800320F82230ECE71F
:103170000B7B002B4BD14B7833B30A7830F82230DD
:1031800013F0400F0CD030F822309BB223F4E04310
:1031900023F0700343F4004343F0C00320F82230CF
:1031A000CB78012B33D00A7830F822309BB223F44D
:1031B000E04323F0400383F0200343F4004343F053
:1031C000800320F8223022E00A7830F8223013F40D
:1031D000804F0CD030F822309BB223F4E04323F030
:1031E000700343F4404343F0800320F822300A7810
:1031F00030F822309BB223F4804323F0700383F431
:10320000405343F4004343F0800320F82230002071
:10321000704711B98023A0F84C3000207047B0F8F7
:1032200058306FEA43436FEA53439BB2A0F85830DB
:1032300000207047B0F85830C3F30E03A0F85830A0
:1032400000207047B0F8440080B2704700207047FB
:1032500010B45C1C6408024402F5806207E00B783D
:10326000487843EA002322F8023B0231013C002C5B
:10327000F5D15DF8044B704770B505460C464A78A9
:10328000012A32D00B7B002B40F083828B690A69C4
:10329000934240F25D829B1A8B61B5F8503015FA6B
:1032A00083F3217803EBC1033E2A40F25582510992
:1032B00012F01F0F00D101396FEAC1616FEA51416D
:1032C00089B2A3F80614227835F822309BB223F491
:1032D000804323F0700383F4405343F4004343F0EE
:1032E000800325F82230002070BD8E6909698E4266
:1032F00000D90E46237B2BB3E378022B44D0236AFC
:103300009B1B2362237835F8231011F0400F00F047
:10331000DC81002A40F0C981B5F8502015FA82F20C
:1033200002EBC3033E2E40F2A381720916F01F0F79
:1033300000D1013A6FEAC2626FEA524292B2A3F838
:103340000624BBE1B6B23346E28861692846FFF73E
:103350007FFFB5F8503015FA83F3227803EBC203F0
:10336000A3F80264227835F822309BB223F4E043BC
:1033700023F0400383F0300343F4004343F0800321
:1033800025F822300020AFE7236A994280F052816D
:10339000227835F822309BB223F4E04323F0700307
:1033A00043F4014343F0800325F82230236A9B1B3A
:1033B0002362237835F8232012F0400F00F09D801F
:1033C00062788ABBB5F8502015FA82F202EBC3038B
:1033D0003E2E0CD9720916F01F0F00D1013A6FEA88
:1033E000C2626FEA524292B2A3F806241EE08EB97E
:1033F000B3F8062492B222F4F84292B2A3F806245B
:10340000B3F806246FEA42426FEA524292B2A3F83E
:1034100006240BE0720816F0010F00D00132920270
:1034200092B2A3F8062401E0012A27D0B3B2628940
:1034300061692846FFF70CFF636933446361236ABF
:103440002269934224D99B1B23626378002B40D1CD
:10345000B5F8503015FA83F3227803EBC2033E2E01
:103460001AD9720916F01F0F00D1013A6FEAC26231
:103470006FEA524292B2A3F802242CE0B5F8502031
:1034800015FA82F202EBC303B2B2A3F80624CDE729
:10349000002222621E46D8E78EB9B3F8022492B207
:1034A00022F4F84292B2A3F80224B3F802246FEA9D
:1034B00042426FEA524292B2A3F802240BE0720831
:1034C00016F0010F00D00132920292B2A3F802244A
:1034D00001E0012B06D0B3B2228961692846FFF7CB
:1034E000B7FE3FE7B5F8503015FA83F3227803EBC7
:1034F000C203B2B2A3F80224EDE762788ABBB5F842
:10350000502015FA82F202EBC3033E2E0CD9720949
:1035100016F01F0F00D1013A6FEAC2626FEA524201
:1035200092B2A3F802241EE08EB9B3F8022492B23C
:1035300022F4F84292B2A3F80224B3F802246FEA0C
:1035400042426FEA524292B2A3F802240BE07208A0
:1035500016F0010F00D00132920292B2A3F80224B9
:1035600001E0012A27D0B3B2228961692846FFF71A
:103570006FFE636933446361236A2269934224D9ED
:103580009B1B23626378002B40D1B5F8503015FAAD
:1035900083F3227803EBC2033E2E1AD9720916F088
:1035A0001F0F00D1013A6FEAC2626FEA524292B233
:1035B000A3F806242CE0B5F8502015FA82F202EBAD
:1035C000C303B2B2A3F80224CDE7002222621E4652
:1035D000D8E78EB9B3F8062492B222F4F84292B238
:1035E000A3F80624B3F806246FEA42426FEA524277
:1035F00092B2A3F806240BE0720816F0010F00D077
:103600000132920292B2A3F8062401E0012B06D007
:10361000B3B2628961692846FFF71AFEA2E6B5F8DF
:10362000503015FA83F3227803EBC203B2B2A3F849
:103630000624EDE7217835F8212092B222F4E24207
:1036400022F0700242F4004242F0800225F821206C
:10365000B5F8502015FA82F2217802EBC1029BB234
:10366000A2F80234228961692846FFF7F1FD79E664
:103670008EB9B3F8062492B222F4F84292B2A3F8BB
:103680000624B3F806246FEA42426FEA524292B22D
:10369000A3F8062412E0720816F0010F00D00132E0
:1036A000920292B2A3F8062408E0B5F8502015FA69
:1036B00082F202EBC303B2B2A3F80624B3B262896A
:1036C00061692846FFF7C4FD4CE68ABBB5F8502077
:1036D00015FA82F202EBC3033E2E0CD9720916F0E2
:1036E0001F0F00D1013A6FEAC2626FEA524292B2F2
:1036F000A3F8022425E08EB9B3F8022492B222F492
:10370000F84292B2A3F80224B3F802246FEA4242CC
:103710006FEA524292B2A3F8022412E0720816F045
:10372000010F00D00132920292B2A3F8022408E005
:10373000B5F8502015FA82F202EBC303B2B2A3F837
:103740000224B3B2228961692846FFF781FD09E6A8
:1037500000228A611A46A0E58AB9B3F8062492B21B
:1037600022F4F84292B2A3F80624B3F806246FEAD2
:1037700042426FEA524292B2A3F80624A3E55108EE
:1037800012F0010F00D00131890289B2A3F80614AA
:1037900099E5CB78022B3BD0012B40F01B81896946
:1037A0002369994240F2CA80C91AA161AAB9B5F841
:1037B000502015FA82F2217802EBC1023E2B40F232
:1037C000C180590913F01F0F00D101396FEAC1619F
:1037D0006FEA514189B2A2F802146278002A40F0DF
:1037E000EB80B5F8502015FA82F2217802EBC10285
:1037F0003E2B40F2C480590913F01F0F00D101394C
:103800006FEAC1636FEA53439BB2A2F806345AE5EC
:10381000AAB9B0F8503010FA83F30A7803EBC20368
:1038200009693E2925D94A0911F01F0F00D1013A33
:103830006FEAC2626FEA524292B2A3F8022463783E
:10384000002B50D1B5F8503015FA83F3227803EBF2
:10385000C20321693E2929D94A0911F01F0F00D15D
:10386000013A6FEAC2626FEA524292B2A3F80624AA
:103870003BE089B9B3F8022492B222F4F84292B242
:10388000A3F80224B3F802246FEA42426FEA5242DC
:1038900092B2A3F80224D2E74A0811F0010F00D037
:1038A0000132920292B2A3F80224C8E789B9B3F8B0
:1038B000062492B222F4F84292B2A3F80624B3F896
:1038C00006246FEA42426FEA524292B2A3F80624FB
:1038D0000BE04A0811F0010F00D00132920292B2BF
:1038E000A3F8062401E0012B1DD0E369002B3FF46F
:1038F000EAAC227835F8221044F2400303EA0100D2
:103900008B4302D000287FF4DEAC35F822309BB226
:1039100023F4E04323F0700343F4004343F0C00377
:1039200025F82230CFE4B5F8503015FA83F3227829
:1039300003EBC203228AA3F80624D6E70023A3617F
:103940000B4633E78BB9B2F8021489B221F4F8417F
:1039500089B2A2F80214B2F802146FEA41416FEA88
:10396000514189B2A2F8021437E7590813F0010F48
:1039700000D00131890289B2A2F802142DE78BB977
:10398000B2F806349BB223F4F8439BB2A2F8063493
:10399000B2F806346FEA43436FEA53439BB2A2F88E
:1039A000063490E4590813F0010F00D001318B0266
:1039B0009BB2A2F8063486E4012A7FF484ACB5F801
:1039C000502015FA82F2217802EBC1029BB2A2F8D4
:1039D000063478E4012087E410B45C08104400F554
:1039E000806007E030F8022B0A70C2F307224A70A9
:1039F0000231013C002CF5D113F0010F01D00388F6
:103A00000B705DF8044B7047104B1B780BB901200D
:103A1000704710B504464FF47A70B0FBF3F30C4ACC
:103A20001068B0FBF3F001F08BF968B90F2C01D9E5
:103A300001200AE0002221464FF0FF3001F03AF960
:103A4000044B1C60002000E0012010BD7800002025
:103A5000000000207C00002010B5032001F018F9C0
:103A60000F20FFF7D1FF10B10124204610BD0446FE
:103A7000FDF7D2FBF9E70000034B1B78034A1168FE
:103A80000B441360704700BF78000020C419002069
:103A9000014B1868704700BFC419002038B50446B0
:103AA000FFF7F6FF0546B4F1FF3F02D0044B1B7849
:103AB0001C44FFF7EDFF401BA042FAD338BD00BF06
:103AC00078000020002859D010B5044690F8413005
:103AD000002B43D0242384F841302268136823F05C
:103AE000010313606368226823F070631361226826
:103AF000936823F400439360E368012B33D0A368F9
:103B0000226843F404439360E368022B31D02268B7
:103B1000536843F0007343F4004353602268D36852
:103B200023F40043D360236962691343A1692268C7
:103B300043EA0123D360E369216A22680B431360DF
:103B40002268136843F0010313600020606420239F
:103B500084F84130206384F8420010BD80F8403082
:103B6000FDF7CEF9B6E7A368226843F400439360FB
:103B7000CAE723684FF400625A60C8E70120704723
:103B800090F84130DBB2202B24D190F84030012B4B
:103B900022D0012380F84030242380F8413002688D
:103BA000136823F0010313600268136823F4805341
:103BB000136002681368194311600268136843F0C8
:103BC00001031360202380F84130002380F8403047
:103BD00018467047022070470220704790F8413025
:103BE000DBB2202B22D190F84030012B20D00123D2
:103BF00080F84030242380F841300268136823F0B5
:103C0000010313600268136823F4706343EA01211F
:103C100011600268136843F001031360202380F8E9
:103C20004130002380F8403018467047022070472A
:103C30000220704730B583B00446204B9B6D13F0D3
:103C4000805F0BD000F0CCFFB0F5007F17D0802C48
:103C50001FD82DD0702C2DD000211BE0174DAB6D3F
:103C600043F08053AB65AB6D03F080530193019B30
:103C700000F0B6FFAB6D23F08053AB65E4E7802C1A
:103C800003D9A02C03D9022104E0002102E0012184
:103C900000E003210A4A136823F007030B43136073
:103CA000136803F007038B4206D1002003B030BD38
:103CB0000221EFE70121EDE70120F7E700100240C4
:103CC00000200240284A9368D26802F0030213F0F1
:103CD0000C030AD00C2B06D0042B1FD0082B20D0AD
:103CE0000020024610E0012AF6D11F4A126812F0A5
:103CF000080F0CD11C4AD2F89420C2F303221B49AE
:103D000051F8222043B100200C2B0DD07047164AE9
:103D10001268C2F30312F2E71046F5E714480022D6
:103D2000F2E714480022EFE70F4BDB6803F00303D0
:103D3000022B16D0032B00D10E4A0B49C868C0F3E2
:103D40000210431CC868C0F3062002FB00F0B0FB61
:103D5000F3F0CB68C3F3416301335B00B0FBF3F0D6
:103D6000D4E7034AE9E700BF00100240C47400082A
:103D70000024F40000127A00002800F01C83F0B543
:103D800083B00446964B9D6805F00C05DE6806F08E
:103D90000306036813F0100F5AD0E5B10C2D18D0AC
:103DA000A369002B00F0BB808D4A136843F0010328
:103DB0001360FFF76DFE0746894B1B6813F0020F77
:103DC00040F09A80FFF764FEC01B0228F4D903205C
:103DD000FCE2012EE4D1824B1B6813F0020F03D0EA
:103DE000A369002B00F0E982206A7D4B1B6813F069
:103DF000080F5BD07A4B1B6803F0F00398425CD845
:103E0000774B1A6842F008021A601A6822F0F00232
:103E1000216A0A431A605A6822F47F42E16942EA41
:103E200001225A60002D60D0FFF74CFF6C4B9B685D
:103E3000C3F303136B4AD35C03F01F03D8406A4BF0
:103E400018606A4B1868FFF7DFFD002840F0BE825B
:103E5000236813F0010F00F08180082D75D00C2D20
:103E600071D06368B3F5803F00F09780B3F5A02F61
:103E700000F099805A4B1A6822F480321A601A684E
:103E800022F480221A606368002B00F09980FFF70B
:103E9000FFFD0746524B1B6813F4003F5ED1FFF74E
:103EA000F7FDC01B6428F5D903208FE24C4BD3F8F3
:103EB00094301B0903F0F003A0E7FFF7BBFE0028D6
:103EC00040F07D82464B1A6842F008021A601A6878
:103ED00022F0F002216A0A431A605A6822F47F42F3
:103EE000E16942EA01225A609EE7206AFFF7A2FEDA
:103EF000002899D0012069E2394B1A6842F0080283
:103F00001A601A6822F0F002216A0A431A605A689D
:103F100022F47F42E16942EA01225A6098E7304A7E
:103F2000136823F001031360FFF7B2FD07462C4B23
:103F30001B6813F0020F8BD0FFF7AAFDC01B0228ED
:103F4000F5D9032042E2032E8BD1254B1B6813F4D5
:103F5000003F03D06368002B00F03382236813F026
:103F6000020F58D0042D45D00C2D41D0E368002B12
:103F700077D01B4A136843F480731360FFF788FD02
:103F80000646174B1B6813F4806F61D1FFF780FD65
:103F9000801B0228F5D9032018E2114A136843F464
:103FA000803313606FE703F18043A3F53C331A6855
:103FB00042F480221A601A6842F480321A6062E782
:103FC000FFF766FD0746064B1B6813F4003FC5D09C
:103FD000FFF75EFDC01B6428F5D90320F6E100BFA2
:103FE00000100240AC740008000000207C0000209B
:103FF000022EBBD1A44B1B6813F4806F03D0E3687F
:10400000002B00F0E081A04A536823F0F8532169A7
:1040100043EA01635360236813F0080F4CD06369CF
:104020009BB3994AD2F8943043F00103C2F894301C
:10403000FFF72EFD0646944BD3F8943013F0020F91
:104040003AD1FFF725FD801B0228F4D90320BDE1FA
:104050008D4A536823F0F853216943EA01635360A2
:10406000D9E7894A136823F480731360FFF710FDC2
:104070000646854B1B6813F4806FCCD0FFF708FD14
:10408000801B0228F5D90320A0E17F4AD2F89430A2
:1040900023F00103C2F89430FFF7FAFC06467A4B8E
:1040A000D3F8943013F0020F06D0FFF7F1FC801B19
:1040B0000228F4D9032089E1236813F0040F7AD091
:1040C000714B9B6D13F0805F36D16F4B9A6D42F050
:1040D00080529A659B6D03F080530193019B0126EA
:1040E0006A4B1B6813F4807F28D0A368012B39D05A
:1040F000052B3FD0644BD3F8902022F00102C3F887
:104100009020D3F8902022F00402C3F89020A368F6
:10411000002B3DD0FFF7BCFC07465B4BD3F890303B
:1041200013F0020F46D1FFF7B3FCC01B41F28833F6
:104130009842F2D9032049E10026D1E7534A136897
:1041400043F480731360FFF7A3FC07464F4B1B68D3
:1041500013F4807FC9D1FFF79BFCC01B0228F5D95F
:10416000032033E1484AD2F8903043F00103C2F80B
:104170009030CCE7444BD3F8902042F00402C3F8CF
:104180009020D3F8902042F00102C3F89020BEE7BF
:10419000FFF77EFC07463C4BD3F8903013F0020F3C
:1041A00008D0FFF775FCC01B41F288339842F2D962
:1041B00003200BE1E6B9236813F0200F35D0636AC2
:1041C000E3B1314AD2F8983043F00103C2F8983095
:1041D000FFF75EFC06462C4BD3F8983013F0020F25
:1041E00023D1FFF755FC801B0228F4D90320EDE012
:1041F000254A936D23F080539365DCE7224AD2F879
:10420000983023F00103C2F89830FFF741FC0646CE
:104210001D4BD3F8983013F0020F06D0FFF738FC8F
:10422000801B0228F4D90320D0E0A36A002B00F001
:10423000CC80022B17D00C2D00F0CC80124A1368D2
:1042400023F080731360FFF723FC04460E4B1B68BA
:1042500013F0007F00F0A880FFF71AFC001B022873
:10426000F4D90320B2E0084BDB6803F00301E26AF3
:1042700091420DD00C2D00F0AB80034B1B6813F066
:10428000806F2FD00120A1E000100240007000409C
:1042900003F07002216B0139B2EB011FEAD103F484
:1042A000FE42616BB2EB012FE4D103F07842A16BC7
:1042B000B2EBC16FDED103F4C001E26B5208013AE8
:1042C000B1EB425FD6D103F0C063226C5208013AD1
:1042D000B3EB426FCED1404B1B6813F0007F49D047
:1042E000002073E03C4A136823F080731360FFF7EB
:1042F000CFFB0546384B1B6813F0007F06D0FFF755
:10430000C7FB401B0228F5D903205FE0324AD3687F
:1043100032491940E36A206B013843EA0013606BAD
:1043200043EA0023E06B4008013843EA4053206C25
:104330004008013843EA4063A06B43EAC0630B4383
:10434000D360136843F080731360D36843F08073C5
:10435000D360FFF79DFB04461F4B1B6813F0007FE3
:1043600006D1FFF795FB001B0228F5D903202DE0AD
:1043700000202BE0184B1A6842F080721A60DA684D
:1043800042F08072DA60FFF783FB0446124B1B6831
:1043900013F0007F06D1FFF77BFB031B022BF5D93F
:1043A000032013E0002011E00B4AD1680C4B0B40B6
:1043B000D36000200AE001207047012006E00120C0
:1043C00004E0012002E0012000E0002003B0F0BD85
:1043D0000120FBE70120F9E7001002408C809D01DD
:1043E000FCFFEEFE002800F0AF8070B50D460446DD
:1043F000594B1B6803F007038B420BD2564A1368D4
:1044000023F007030B431360136803F007038B4289
:1044100040F09C80236813F0020F0CD0A2684F4B31
:104420009B6803F0F0039A4205D94C498B6823F04E
:10443000F0031A438A60236813F0010F39D06368D0
:10444000032B09D0022B26D063BB444A126812F01A
:10445000020F06D1012076E0404A126812F0007F78
:1044600076D03E498A6822F0030213438B60FFF73F
:104470000FFB0646394B9B6803F00C036268B3EBF5
:10448000820F16D0FFF704FB801B41F2883398425D
:10449000F0D9032057E0314A126812F4003FE0D10E
:1044A000012050E02D4A126812F4806FD9D101200A
:1044B00049E0236813F0020F0CD0A268274B9B68D9
:1044C00003F0F0039A4205D224498B6823F0F003ED
:1044D0001A438A60204B1B6803F00703AB420AD9DA
:1044E0001D4A136823F007032B431360136803F07E
:1044F0000703AB422ED1236813F0040F06D0174AEE
:10450000936823F4E063E1680B439360236813F03E
:10451000080F07D0114A936823F46053216943EAD6
:10452000C1039360FFF7CEFB0C4B9B68C3F30313EF
:104530000B4AD35C03F01F03D8400A4B18600A4BA8
:104540001868FFF761FA70BD012070470120FAE793
:104550000120F8E70120F6E70020024000100240A9
:10456000AC740008000000207C000020014B18689B
:10457000704700BF0000002008B5FFF7F7FF054BAC
:104580009B68C3F30223044AD35C03F01F03D840A3
:1045900008BD00BF00100240BC74000808B5FFF75A
:1045A000E5FF054B9B68C3F3C223044AD35C03F0C9
:1045B0001F03D84008BD00BF00100240BC740008B3
:1045C000F8B504460F46584BDB6813F0030F18D0BC
:1045D000554BDB6803F003030268934202D00125C8
:1045E0002846F8BD002A00F09D804F4BDB68C3F3DE
:1045F000021301334268934201D00125F0E7002500
:1046000009E00368022B56D0032B5BD0012B41D06D
:104610000125002DE4D1444A136823F08063136020
:10462000FFF736FA0646404B1B6813F0006F05D0C3
:10463000FFF72EFA831B022BF5D90325002DCFD1CE
:10464000002F4DD138490B6923F0784323F4FE4302
:10465000A068E268D20642EA002213430B61324AA4
:10466000136843F080631360FFF712FA06462E4B7F
:104670001B6813F0006F05D1FFF70AFA831B022BAA
:10468000F5D90325002DABD1274A1369A1690B4346
:104690001361A5E7244A126812F0020F1ED02248C7
:1046A000C26822F073026168013943EA01131343BF
:1046B000C3600025ADE71C4A126812F4806FEED18A
:1046C0000125A6E7184A126812F4003FE7D1164AFE
:1046D000126812F4802FE2D101259AE7012598E7AC
:1046E000012F0FD01048026922F0C06222F4FE426E
:1046F000A16863695B08013B5B0643EA012313433E
:104700000361ACE70848026922F4C00222F4FE42C9
:10471000A16823695B08013B5B0543EA012313435E
:1047200003619CE701255BE7001002402DE9F041A1
:1047300082B00446036813F4006F25D0C36BB3F551
:10474000000F06D0B3F5400F12D04BB1012637460B
:104750001CE0AE4AD36843F48033D360002708E0FE
:1047600000210430FFF72CFF074610B106460DE08C
:104770000027A64AD2F8883023F44003E16B0B43AC
:10478000C2F88830002601E000263746236813F47B
:10479000003F6BD09D4B9B6D13F0805F4CD19B4BCA
:1047A0009A6D42F080529A659B6D03F0805301939D
:1047B000019B4FF00108964A136843F4807313601D
:1047C000FFF766F90546924B1B6813F4807F05D10D
:1047D000FFF75EF9401B0228F5D90327002F40D1CF
:1047E0008A4BD3F8903013F4407315D0226D9A425F
:1047F00012D0864AD2F8903023F44073D2F8901049
:1048000041F48031C2F89010D2F8901021F4803138
:10481000C2F89010C2F8903013F0010F0FD1002FA2
:1048200040F0C980794AD2F8903023F44073216D6A
:104830000B43C2F8903015E04FF00008BBE7FFF7DC
:1048400027F90546714BD3F8903013F0020FE6D1EB
:10485000FFF71EF9401B41F288339842F2D9032733
:10486000DDE73E46B8F1000F40F0A780236813F063
:10487000010F08D0654AD2F8883023F00303216A7B
:104880000B43C2F88830236813F0020F08D05F4A48
:10489000D2F8883023F00C03616A0B43C2F88830E9
:1048A000236813F0200F08D0584AD2F8883023F438
:1048B0004063A16A0B43C2F88830236813F4007F79
:1048C00008D0524AD2F8883023F44023616B0B435E
:1048D000C2F88830236813F4806F08D04B4AD2F8AE
:1048E000883023F44013A16B0B43C2F8883023684F
:1048F00013F0400F08D0454AD2F8883023F44053D3
:10490000E16A0B43C2F88830236813F4807F08D033
:104910003E4AD2F8883023F44033216B0B43C2F86F
:104920008830236813F4005F0FD0384AD2F88830FB
:1049300023F04063216C0B43C2F88830236CB3F141
:10494000006F40D0B3F1806F42D0236813F4802F02
:104950000FD02E4AD2F8883023F04063616C0B43AD
:10496000C2F88830636CB3F1006F39D0B3F1806F57
:104970003BD0236813F4804F0CD0244AD2F88830FF
:1049800023F04053A16C0B43C2F88830A36CB3F101
:10499000805F32D0236813F4004F08D01B4AD2F84E
:1049A000883023F08043E16C0B43C2F888303046F6
:1049B00002B0BDE8F0813E4654E7144A936D23F0FF
:1049C0008053936552E7D36843F48013D360BCE708
:1049D0000121201DFFF7F4FD0028B6D00646B4E7FC
:1049E000D36843F48013D360C3E70121201DFFF790
:1049F000E7FD0028BDD00646BBE70221201DFFF7DA
:104A0000DFFD0028C6D00646C4E700BF0010024004
:104A100000700040F0B583B0002362E085685E005E
:104A20000324B44025EA0405CC68B4402C438460D8
:104A3000446824EA0C0C4C68C4F300149C4044EA1B
:104A40000C0444605EE0DD08083550F8256003F092
:104A500007044FEA840C0F2404FA0CF426EA040E2F
:104A60000C6904FA0CF444EA0E0440F8254060E0B6
:104A7000022400E0002404FA0EF42C430CF1020C92
:104A80004C4D45F82C404C4CA568D44325EA020611
:104A90004F6817F4801F01D042EA0506464DAE600C
:104AA000ED6804EA05064F6817F4001F01D042EADA
:104AB0000506414DEE606D6804EA05064F6817F47F
:104AC000003F01D042EA05063B4D6E602D682C4048
:104AD0004E6816F4803F01D042EA0504364A14605D
:104AE00001330A6832FA03F462D04FF0010C0CFA79
:104AF00003FC1CEA0202F3D04C6804F00304013CFE
:104B0000012C8BD94C6804F00304032C0CD0C4682E
:104B10005D004FF0030C0CFA05FC24EA0C0C8C68C9
:104B2000AC4044EA0C04C4604C6804F00304022C5A
:104B300089D004684FEA430E4FF0030C0CFA0EFCC8
:104B400024EA0C0C4C6804F0030404FA0EF444EA62
:104B50000C0404604C6814F4403FC1D0174C256E1F
:104B600045F001052566246E04F001040194019CC2
:104B70004FEA930C0CF102050E4C54F8255003F04B
:104B800003044FEA840E0F2404FA0EF425EA040508
:104B9000B0F1904F3FF46EAF094CA04206D004F53F
:104BA0008064A0423FF464AF072464E7012462E715
:104BB00003B0F0BD000001400004014000100240BD
:104BC000000400480AB181617047816270474369FF
:104BD00001EA030221EA030141EA024181617047CF
:104BE000024B186800F4C060704700BF00700040BE
:104BF000B0F5007F0FD01F4B1B6803F4C063B3F503
:104C0000806F34D01B4A136823F4C06343F480637D
:104C1000136000207047174B1B6803F4C063B3F5A3
:104C2000007F20D0134A136823F4C06343F4007359
:104C30001360114B1B68322202FB03F30F4AA2FBE5
:104C400003239B0C013300E0013B0A4A526912F432
:104C5000806F01D0002BF7D1064B5B6913F4806F96
:104C600003D10020704700207047032070470020C8
:104C7000704700BF007000400000002083DE1B432F
:104C8000024A536843F480635360704700700040E9
:104C9000074AD36823F4E0631B041B0C000200F4F2
:104CA000E060034343F0BF6343F40033D3607047D5
:104CB00000ED00E000B5194BDB68C3F30223C3F13C
:104CC000070CBCF1040F28BF4FF0040C03F1040ED5
:104CD000BEF1060F18D9033B4FF0FF3E0EFA0CFC55
:104CE00021EA0C0199400EFA03F322EA0303194367
:104CF00000280BDB0901C9B200F1604000F56140FA
:104D000080F800135DF804FB0023E5E700F00F00D6
:104D10000901C9B2024B1954F4E700BF00ED00E0ED
:104D200014ED00E0002807DB00F01F02400901231A
:104D30009340024A42F82030704700BF00E100E093
:104D40000138B0F1807F0BD24FF0E0235861054A63
:104D5000F02182F823100020986107221A61704721
:104D60000120704700ED00E030B583B000230193CF
:104D7000002800F0DA800446436D13B323689A6874
:104D800012F0005F05D09A6822F0204222F03F0224
:104D90009A602268936813F0805F1FD1936823F0B4
:104DA000104323F03F0343F080539360604B1B6834
:104DB0009B09604AA2FB03239B0901335B0001931B
:104DC00009E0FCF72DF80023A36584F85030D5E7FF
:104DD000019B013B0193019B002BF9D12268936851
:104DE00013F0805F78D1636D43F010036365A36DAA
:104DF00043F00103A3650120936813F0040300D07E
:104E00000123616D11F0100F40F08880002B40F0FD
:104E10008580636D23F4817343F0020363659368B7
:104E200013F0010F0BD1444B9B6813F0010F06D117
:104E3000636842498A6822F47C1213438B60627E65
:104E4000636B43EA4233E2681343A268134394F866
:104E5000202043EA0243012A40D0A26A22B102F490
:104E60007072E16A0A4313432168CD68344A2A40CC
:104E70001343CB6021688B6813F0040300D0012337
:104E80008A6812F0080200D00122B3B9AAB9227EC2
:104E900094F830305B0043EA8232CB6823F48043DD
:104EA00023F002031343CB6094F83830012B1AD05F
:104EB0002268136923F0010313612369012B24D0B5
:104EC0002268136B23F00F031363636D23F0030356
:104ED00043F00103636526E000208DE7626A013A32
:104EE00043EA4243B9E721680B6923F4FF6323F0E7
:104EF0000403E26B256C2A43656C2A43A56C2A43A4
:104F0000134343F001030B61D7E721680B6B23F0D8
:104F10000F03E269013A13430B63D6E7636D43F075
:104F200010036365012003B030BD0120FBE700BF23
:104F300000000020632D3E050000045000030450D3
:104F400007C0F0FFF0B583B00022019290F8502026
:104F5000012A00F03D820346012280F850200268B9
:104F6000926812F0040F09D0426D42F020024265AF
:104F70000120002283F8502003B0F0BD4A68052AC2
:104F800008D8023A032A68D8DFE802F0025D6063BD
:104F90000C224A601D684C683035220A920002F0EB
:104FA0000C02A85804F01F0E1F2404FA0EF420EA85
:104FB00004000C68C4F3846C0CFA0EFC40EA0C008C
:104FC000A8501C68A26812F0040200D00122A06858
:104FD00010F0080000D001200AB9002840D018685D
:104FE000826812F0010F17D10A68CD68D0F8B0407E
:104FF000C2F3120C24EA0C0405F0180CAD4D25FA8E
:105000000CF52A40C2F312022243C0F8B020C8684F
:10501000A94A904200F0B9800A68A8490A4200F003
:10502000D381A749896801F0E074A648824200F064
:105030007D81A548824200F0A081A448824200F010
:10504000B081002095E712224A60A3E718224A6047
:10505000A0E74FF480724A609CE706224A6099E715
:105060000E688D681434720E920002F00402A0588B
:10507000C6F3045C072606FA0CF620EA060005FAD9
:105080000CF52843A0504C691868C268C2F3C102ED
:10509000520004FA02F20D69042D0ED00E68603041
:1050A00050F825708A4C3C4006F0F84632431443D1
:1050B00044F0004440F8254091E7026E046EC4F3CA
:1050C00084640A68C2F3120585BBC2F38462944209
:1050D00034D01C68626E606EC0F384600A68C2F3EC
:1050E000120585BBC2F38462904234D01C68A26E64
:1050F000A06EC0F384600A68C2F3120585BBC2F3D8
:105100008462904234D01C68E26EE06EC0F384602A
:105110000A68C2F3120585BBC2F3846290427FF431
:105120005EAFE26E22F00042E26658E792FAA2F227
:1051300012B1B2FA82F2CAE72022C8E7026E22F068
:1051400000420266C5E792FAA2F212B1B2FA82F206
:10515000CAE72022C8E7626E22F000426266C5E715
:1051600092FAA2F212B1B2FA82F2CAE72022C8E79A
:10517000A26E22F00042A266C5E792FAA2F212B134
:10518000B2FA82F2CAE72022C8E71C680A68C2F3B2
:105190001205002D39D1900E013000F01F000928B2
:1051A0008CBF00200120002867D0002D3CD1900E3C
:1051B0000130800600F0F840002D41D1960E0136F6
:1051C00006F01F0C012606FA0CF63043002D46D1DE
:1051D000920E013202F01F0202EB4202120502435C
:1051E000886804F11406550EAD0005F004057459E5
:1051F000C2F304524FF0070C0CFA02FC24EA0C0C28
:1052000090404CEA0000705106E792FAA2F048B1D3
:10521000B0FA80F0013000F01F0009288CBF002098
:105220000120C0E72020F5E792FAA2F030B1B0FAF1
:1052300080F00130800600F0F840BDE72020F8E75C
:1052400092FAA2F64EB1B6FA86F6013606F01F06BD
:105250004FF0010C0CFA06F6B7E72026F5E792FAB4
:10526000A2F242B1B2FA82F2013202F01F0202EB64
:1052700042021205B3E72022F6E75DBB900E013033
:10528000800600F0F8408DBB960E013606F01F0C2C
:10529000012606FA0CF63043BDBB920E013202F035
:1052A0001F0202EB42021E3A120542F00072024354
:1052B00096E700BFFFFF070000007F400000088066
:1052C00000030450000052C7000084CB010000809E
:1052D00000F0FF0392FAA2F030B1B0FA80F0013092
:1052E000800600F0F840CEE72020F8E792FAA2F618
:1052F0004EB1B6FA86F6013606F01F064FF0010CE5
:105300000CFA06F6C7E72026F5E792FAA2F25AB1A0
:10531000B2FA82F2013202F01F0202EB42021E3A9E
:10532000120542F00072C2E72022F3E711F4000FE9
:105330007FF47FAE1968274A914201D0002018E619
:1053400044F400022448816821F0E0710A4382603D
:10535000224A126892092249A1FB021292090132E3
:1053600002EB42029200019202E0019A013A01929C
:10537000019A002AF9D10020FBE511F0807F7FF42B
:105380005CAE1968134A914201D00020F1E544F067
:1053900080721148816821F0E0710A438260002028
:1053A000E7E511F4800F11D119680A4A914201D042
:1053B0000020DEE544F480020748816821F0E071B6
:1053C0000A4382600020D4E50020D2E50020D0E529
:1053D0000220D1E50000045000030450000000202A
:1053E000632D3E0510B504460168836802691343C6
:1053F00042691343C269134308688C4A024013434D
:105400000B602268536823F44053E1680B435360F8
:10541000A1692268864B9A4201D0236A1943936896
:1054200023F430630B4393602368824A93421CD079
:10543000814A93422DD07E4A934243D010227C4928
:105440008B4260D0E069B0F5004F00F08C80082AF4
:1054500000F2E580DFE812F0B400CA00B200E30019
:10546000CD00E300E300E300D00002F55842D2F89B
:10547000882002F00302032A09D8DFE802F00204C0
:1054800038060122DBE70422D9E70822D7E71022F9
:10549000D5E702F5E632D2F8882002F00C020C2A99
:1054A0000ED8DFE802F0070D0D0D090D0D0D260DCC
:1054B0000D0D0B000022C2E70422C0E70822BEE760
:1054C0001022BCE702F5C832D2F8882002F440620C
:1054D000B2F5006F0FD005D87AB1B2F5806F0ED15A
:1054E0000422ACE7B2F5406F0BD10822A7E70222F5
:1054F000A5E70222A3E70222A1E700229FE71022EC
:105500009DE710229BE7082A79D8DFE802F00878A7
:105510002A782778787805004FF4004003E0FFF7F9
:105520002BF800286DD0626802EB420383426AD8F0
:10553000B0EB023F69D8010E00025308C0184FF0CB
:10554000000341F10001FAF7ABFEA0F540723B4BBE
:105550009A425CD82368D860002043E0FEF7B2FB93
:10556000DFE73748DFE7082A53D8DFE802F00721F2
:105570000552245252520B00314803E0FEF7FCFF63
:10558000002848D06268530803EB4000B0FBF2F0FB
:10559000A0F110024FF6EF739A423ED883B223F087
:1055A0000F03C0F3420018432368D860002019E0BD
:1055B000FEF7F4FFE4E7FEF785FBE1E7204802E0B1
:1055C000FEF7DAFF68B3636800EB5300B0FBF3F05B
:1055D000A0F110024FF6EF739A4224D8236880B2EC
:1055E000D860002000236366A36610BDFEF7D6FFD7
:1055F000E8E7FEF767FBE5E74FF40040E3E701204B
:10560000F0E70020EEE70120ECE70120EAE70120C7
:10561000E8E70120E6E70020E4E70120E2E70120D7
:10562000E0E70020DEE70120DCE700BFF369FFEFE1
:10563000008000400038014000440040FFFC0F00A3
:105640000024F400436A13F0010F06D00268536887
:1056500023F40033816A0B435360436A13F0020F53
:1056600006D00268536823F48033C16A0B43536049
:10567000436A13F0040F06D00268536823F48023B2
:10568000016B0B435360436A13F0080F06D00268A6
:10569000536823F40043416B0B435360436A13F098
:1056A000100F06D00268936823F48053816B0B437C
:1056B0009360436A13F0200F06D00268936823F4C6
:1056C0000053C16B0B439360436A13F0400F0AD041
:1056D0000268536823F48013016C0B435360036C1E
:1056E000B3F5801F0BD0436A13F0800F06D0026819
:1056F000536823F40023816C0B43536070470268A6
:10570000536823F4C003416C0B435360EBE72DE96E
:10571000F84305460F4616469946DDF820802C686A
:10572000E46937EA04030CBF4FF0010C4FF0000CA2
:10573000B44553D1B8F1FF3FF1D0FEF7A9F9A0EB82
:10574000090040452DD8B8F1000F2AD02B681A68FF
:1057500012F0040FE3D0DA6912F4006FDFD04FF4D7
:1057600000621A622A6852E8003F23F4D07342E8CC
:1057700000310029F6D12A6802F1080353E8003FFE
:1057800023F00103083242E800310029F3D120233D
:10579000AB67EB67C5F88030002385F874300320D1
:1057A0001DE02A6852E8003F23F4D07342E800313C
:1057B0000029F6D12A6802F1080353E8003F23F0DC
:1057C0000103083242E800310029F3D12023AB67FE
:1057D000EB67002385F87430032000E00020BDE86B
:1057E000F8832DE9F04182B01E46836F202B56D1FD
:1057F00004460D469046002955D0002A55D090F811
:105800007430012B53D0012380F874300023C0F88A
:10581000803021238367FEF73BF90746A4F85080C8
:10582000A4F85280A368B3F5805F05D04FF000085C
:10583000002384F8743014E0236913B14FF000089A
:10584000F6E7A8460025F3E738F8023B2268C3F3E1
:1058500008031385B4F8522092B2013A92B2A4F828
:105860005220B4F852309BB273B100963B460022EE
:1058700080212046FFF74BFFD8B9002DE4D02368E4
:1058800015F8012B1A85E5E700963B4600224021DA
:105890002046FFF73CFF70B92023A36700E00220F9
:1058A00002B0BDE8F0810120FAE70120F8E702200C
:1058B000F6E70320F4E70320F2E730B583B00446AF
:1058C0000023C0F88030FEF7E3F80546226812682E
:1058D00012F0080F0DD123681B6813F0040F16D1C6
:1058E0002023A367E3670020206684F8740003B0D8
:1058F00030BD6FF07E430093034600224FF4001149
:105900002046FFF704FF0028E5D00320EFE76FF003
:105910007E4300932B4600224FF480012046FFF780
:10592000F6FE0028DCD00320E1E768B310B504469A
:10593000836F03B32423A3672268136823F0010352
:1059400013602046FFF74EFD012813D0636ABBB9F0
:105950002268536823F4904353602268936823F0CD
:105960002A0393602268136843F001031360204602
:10597000FFF7A3FF10BD80F87430FBF75DFBD9E79C
:105980002046FFF75FFEE3E70120704798B108B5B6
:1059900003460020C3F8B802C3F8C002C3F8CC0223
:1059A00009B1C3F8B412012183F89C121A70184689
:1059B000FBF76AFF08BD0320704710B582B00023D3
:1059C000ADF8063061B10446C0F8B812CB6A4BB1ED
:1059D0000DF106009847C4F8CC02002002B010BDBB
:1059E0000320FBE70020F9E708B5FBF793FF08BDAC
:1059F00008B5D0F8B83213B11B68984708BD03202A
:105A0000FCE708B5D0F8B8320BB15B6898470020C6
:105A100008BD38B5044600F2AA25284600F02FF943
:105A20000123C4F89432B4F8B032C4F8983294F830
:105A3000AA1201F01F03012B0DD0022B10D02BB1A5
:105A400001F080012046FBF795FF03E02946204640
:105A500000F0E5FA38BD2946204600F018FBF9E7CA
:105A60002946204600F047FBF4E738B504460D46CA
:105A700041BB1346D0F89422032A01D0084638BD12
:105A8000D0F85C11D0F86021914209D890F89C328E
:105A9000DBB2032B0FD0204600F06CFC2846EEE76B
:105AA000891AC0F85C118A4228BF0A46194600F0DC
:105AB00059FC2846E3E7D0F8B8321B69002BEAD03E
:105AC0009847E8E790F89C32DBB2032B01D0002026
:105AD000D5E7D0F8B8329B690BB19847CFE70020E3
