S013000055553030315F444D4131372E737265633D
S21440000030100020C11140009D1140009D1140005D
S2144000109D1140009D1140009D11400000000000D1
S2144000200000000000000000000000009D1140009D
S2144000309D114000000000009D1140007D154000CD
S2144000409D1140009D1140009D1140009D114000B3
S2144000509D1140009D1140009D1140000000000091
S2144000609D1140009D114000000000009D11400081
S2144000709D1140009D11400089154000B915400073
S21440008000000000000000009D1140009D1140004F
S2144000909D1140009D1140009D1140009D11400063
S2144000A09D1140009D1140009D1140009D11400053
S2144000B09D1140009D1140009D1140009D11400043
S2144000C09D1140009D1140009D11400010B5054C0B
S2144000D0237833B9044B13B10448AFF300800123AF
S2144000E0237010BDB4090020000000009872400044
S2144000F00C4B43B10C480D4910B5AFF300800C488B
S214400100036823B910BD0A48036833B97047094BE2
S214400110002BF7D0BDE810401847064B002BF5D013
S214400120184700BF0000000098724000B809002041
S214400130987240000000000010B41B4A116890F806
S214400140223061F3000380F82230184B1968C1F35F
S214400150407190F8224061F3410480F822401168D3
S214400160C1F34001E4B261F3820480F8224019688A
S214400170C1F38071E4B261F3C30480F82240126890
S214400180C2F3803290F8231062F3000180F8231007
S2144001901B68C3F34063CAB263F3410280F823206E
S2144001A0002010BC704700BF3C100E403C120E4072
S2144001B090F8223013F0100F37D02E4A136843F0D1
S2144001C00403136090F8223013F0200F33D02A4AED
S2144001D0136843F00043136090F8223013F0400F4A
S2144001E02FD0244A136843F00803136090F9223056
S2144001F0002B2CDB214A136843F08063136090F891
S214400200233013F0100F28D01A4A136843F40053D3
S214400210136090F8233013F0200F24D1174A136848
S21440022043F08073136000207047154A136843F00C
S21440023004031360C6E7114A136843F00043136093
S214400240CAE70F4A136843F008031360CEE70A4A2A
S214400250136843F080631360D1E7094A136843F498
S21440026000531360D5E7044A136843F08073136065
S214400270D9E700BF30100E4030120E4034120E4008
S21440028034100E4082B00023ADF8063007E000BFC1
S214400290BDF806309BB201339BB2ADF80630BDF8D0
S2144002A006309BB2092BF2D902B0704770B50646AD
S2144002B0802400250DE0134A136843F4005313606E
S2144002C00FE0114B98470F4A136843F4804313607E
S2144002D06408A4B13442EED00C4A136843F4005389
S2144002E01360094B9847094A136843F480431360E8
S2144002F0074B1B6813F4805FE3D02543E1E72846AD
S21440030070BD00BF340E0E4085024000300E0E40D9
S2144003103C0E0E4038B50D46084A136843F4006359
S2144003201360074CA0472846A0470020A047054A30
S214400330136843F400631360C0B238BD340E0E40F9
S214400340AD024000300E0E4070B54A4C022323806A
S214400350CB232371972363714F23A3719523E371B6
S21440036040F25B736380444B93E80300E060217483
S21440037060612176002584F82250404A136843F491
S214400380805313603E490B6843F4C04343F00F0369
S2144003900B603C48036844F203010B430360043897
S2144003A0036843F4005343F00C030360843003684F
S2144003B00B430360343803680B43036040380368DC
S2144003C019430160136843F40053136002F55F62FB
S2144003D0136843F0674313601432136843F0C44312
S2144003E01360043A136843F005431360843213687D
S2144003F043F0C4431360343A136843F0C443136075
S214400400403A136843F0C4431360A584E5842585C9
S2144004106585A2F58462136843F4C03313601032D6
S214400420136843F4C03313602432136843F48033B4
S214400430136000BF00BF00BF00BF043A136843F418
S21440044080331360294685200F4EB04705210B2088
S214400450B04705210D20B04705210F20B0470521A4
S2144004601120B04729460320B0472584A583E5835D
S21440047070BD00BF480A00208869400010040E4046
S21440048000100E4014100E401503400038B50D46BF
S2144004900C4A136843F4006313600B4CA04728468D
S2144004A0A0470020A0474FF0000560F30F2500202E
S2144004B0A04760F30705054A136843F400631360DA
S2144004C0A8B238BD340E0E40AD024000300E0E408D
S2144004D070B5054600248484C4840485448521463A
S2144004E0C420084EB047A8842146C820B047E884B8
S2144004F02146CC20B04768852146C020B047288595
S214400500204670BD8D044000044B1B680384044A9B
S214400510136843F002031360002070475080034086
S2144005200080034042F2FF538383C383002070471A
S214400530054B00221A805B681A2B02DC0133024A04
S21440054053600020704700BFD0090020054B9B68D1
S214400550012B01D000207047024A138801331380D4
S214400560F8E700BFD0090020022818DD10B58C68D7
S2144005700C4920460C4B984720B118220B4B5A602A
S214400580002010BD0A492046074B98470028F7D060
S214400590064B01229A605A6801325A60F0E7002002
S2144005A0704700BF906940004D1D4000D0090020B4
S2144005B09C69400038B51E4B00249C601C801D4D35
S2144005C01D4A802128461D4B984728461C4B984775
S2144005D01C4B1D4A1A601D4898601D4959601D4AAB
S2144005E0DA601D4B1360906051601C4BD3601C4A10
S2144005F01A601C4A9A601C4A5A601C4ADA601C4BB5
S21440060013601C4B93601C4951601C4BD3601C4AC2
S2144006101A601C4A9A605960DC601B4A136843F0B3
S214400620C04313601032136843F0C043136038BDB4
S214400630D0090020840A0020CC0A0020C9104000BF
S214400640AD104000740A0020A4694000A86940002C
S21440065031054000BC0A0020B46940008C0A0020E6
S214400660B8694000C06940004D0540009C0A002023
S214400670D0694000D869400069054000AC0A0020B7
S214400680E8694000EC694000000E0E400022815CA4
S214400690A9B110B40A4B1B6813F0020FFAD0084BEE
S2144006A01B6813F4007FFAD0064C23680B43236084
S2144006B00132D2B2815C0029ECD110BC7047704741
S2144006C0144002401C4002400FB430B59BB01EACF4
S2144006D054F8045B6422002101A8084B9847009414
S2144006E02246294601A8064B984701A8054B98473D
S2144006F01BB0BDE8304004B0704700BF4116400014
S214400700ED2040008D06400008B5064B1B881D2B8B
S21440071000D808BD0448054B9847024B00225A6053
S2144007201A80F6E7D0090020186A4000F10B400016
S21440073010B582B05C4B5B681B2B00F2B080DFE8E4
S21440074013F01C0032003E004600AE004E00AE00E5
S2144007505600AE005E00AE006E00AE007700AE0003
S2144007608000AE008800AE009000AE009800AE005C
S214400770A000AE00A800AE002E004C4A136843F01E
S2144007800053136000BF00BF00BF00BF043A1368A9
S21440079043F000531360444A536801335360444B5C
S2144007A0984702B010BD40498A89013292B28A8188
S2144007B00F2AF4D101334B6000238B81EFE73D488D
S2144007C03D4B9847384A138801331380E7E73B4848
S2144007D0394B9847344A536801335360DFE738480B
S2144007E0354B9847304A536801335360D7E735480E
S2144007F0314B98472C4A536801335360CFE7324811
S214400800017942798379C4794088019000942F48D1
S214400810294CA047244A536801335360BFE72C490C
S2144008202C48254B9847204A536801335360B6E717
S21440083029492A48204B98471B4A5368013353603E
S214400840ADE727481C4B9847174A53680133536017
S214400850A5E72448184B9847134A5368013353601A
S2144008609DE72148144B98470F4A5368013353601D
S21440087095E71E48104B98470B4A53680133536020
S2144008808DE71B480C4B9847074A53680133536023
S21440089085E7054A00211180013353607FE7024A0D
S2144008A01388013313807AE7D0090020340E0E40B7
S2144008B009074000306A4000C9064000386A4000D8
S2144008C0406A40005C6A4000480A0020786A40005F
S2144008D0540A0020A06A40005C0A0020BC6A40001F
S2144008E0D86A4000F06A4000046B40001C6B400031
S2144008F0286B400008B50B4B5A780A2158680A4BBB
S2144009009847002808DD20220849064B5868084BBF
S2144009109847B0F1FF3F00D008BD0248054B9847C6
S214400920FAE700BF840A002001114000740A002044
S21440093031114000AD10400010B50C4A136843F02A
S214400940004313601032136843F000431360084BB3
S21440095098470848084CA047084B98470848A0477F
S214400960084B98470848A04710BD00BF000E0E40F1
S214400970910A4000406B4000F10B400049034000A4
S214400980506B4000B5054000646B400010F0010F0E
S21440099005D0064A136843F0004313607047044A84
S2144009A0136843F000431360704700BF340E0E4098
S2144009B0300E0E40054A13780133DBB213700F2B0E
S2144009C002D10022014B1A70704700BFDE0900209A
S2144009D008B5084A53780133DBB253700A2B00D06F
S2144009E008BD054B9847054B98470022014B5A7067
S2144009F0F6E700BFDE090020B50940003107400099
S214400A0010B5184A9378591C9170013B092B28D889
S214400A10DFE803F00E161A1E272421272705114C5F
S214400A206078114B9847114B98470023A37010BD30
S214400A300F4C20460F4B984720460F4B984710BD0B
S214400A400B480E4B984710BD09480D4B984710BDB4
S214400A500C4B984710BD0C4B984710BD04480B4BA9
S214400A60984710BDDE0900208D094000D10940009E
S214400A70480A00203901400009054000D1044000E2
S214400A802505400015104000F5084000B101400023
S214400A9008B5234A32212348234B9847234A244B00
S214400AA01360244B9360244B5360244BD360244AFA
S214400AB01A60244A9A60244A5A60244ADA60244BD0
S214400AC01360244B9360244B5360244BD360244ADA
S214400AD01A60244A9A60244A5A60244ADA60244BB0
S214400AE01360244B9360244B5360244BD360244ABA
S214400AF01A60244A9A60244A5A60244ADA60244B90
S214400B001360244B9360244B5360244BD360244A99
S214400B101A60244A9A60244A5A600022DA6008BD65
S214400B206C0B0020E00B0020C91040005C0B00203E
S214400B30706B4000786B40004D0C4000F80B002076
S214400B40986B4000A06B40006D0C4000D00B00201E
S214400B50B06B4000B86B4000750F4000A00B002003
S214400B60C86B4000D06B40009D0C40004C0B0020F2
S214400B70E46B4000EC6B4000FD0D4000E80B0020AD
S214400B80FC6B4000046C4000AD0E4000B00B0020F3
S214400B90186C4000206C4000F90E4000C00B00204E
S214400BA0346C40003C6C40000D0F4000074B1B6807
S214400BB013F0020FFAD0054B1B6813F4007FFAD0EF
S214400BC0034B1A6810431860704700BF14800240F9
S214400BD01C80024038B50546002403E0034B984786
S214400BE00134E4B2285D0028F8D138BDAD0B400092
S214400BF00FB430B58FB012AC54F8045B32220021EB
S214400C0001A80D4B98470D4A136843F40003136040
S214400C1000942246294601A8094B984701A8094B4B
S214400C209847094A136843F4000313600FB0BDE8C1
S214400C30304004B0704700BF41164000300E0E40B2
S214400C40ED204000D50B4000340E0E4010B5044851
S214400C50044CA04701210448A047002010BD00BF17
S214400C604C6C4000F10B4000646C400010B50748E7
S214400C70074B9847074C05E0A26821680648044B96
S214400C809847E468002CF7D1002010BD7C6C4000EB
S214400C90F10B40005C0B0020946C400030B583B0F4
S214400CA03B483C4DA8473C4C21883C48A8472179C6
S214400CB06279A379E07900903948A8476188394835
S214400CC0A84704F10C013848A84704F114013748F6
S214400CD0A847A18B3648A847E18B3648A847218CC1
S214400CE03548A847A18C3548A847E18C3448A847E2
S214400CF0218D3448A847618D3348A84794F8221080
S214400D00C1F300113148A84794F82210C1F34011AE
S214400D102F48A84794F82210C1F380112D48A847C1
S214400D2094F82210C9092C48A84794F8221001F0DC
S214400D3001012A48A84794F82210C1F340012848E8
S214400D40A84794F82210C1F380012648A84794F893
S214400D502210C1F3C0012448A84794F82310C1F3D9
S214400D6000112248A84794F82310C1F340112048A8
S214400D70A84794F8231001F001011E48A84794F8AC
S214400D802310C1F340011C48A847002003B030BDE3
S214400D90A06C4000F10B4000480A0020B06C4000B8
S214400DA0C46C4000DC6C4000F06C4000046D4000B9
S214400DB0186D4000306D4000446D4000546D40005A
S214400DC0646D4000746D4000846D4000946D40003A
S214400DD0A86D4000BC6D4000D06D4000E46D400002
S214400DE0F86D40000C6E4000206E4000346E4000AF
S214400DF0486E40005C6E4000706E400070B5022841
S214400E0014DD0C4648681F4EB047C5B2A068B047D0
S214400E10C0B2CDB91C4B93F8222060F3041283F87D
S214400E2022201A481A4B9847002070BD1948184C83
S214400E30A0471948A0471948A0471948A04719484D
S214400E40A0471948A047EFE7012D0BD0022D11D03F
S214400E50032DE6D10C4B93F8222060F3C71283F89B
S214400E602220DEE7084B93F8222060F3451283F8F1
S214400E702220D6E7044B93F8222060F3861283F8AC
S214400E802220CEE7E9154000480A0020046F4000C3
S214400E90F10B4000846E4000A06E4000C46E4000DF
S214400EA0DC6E4000EC6E4000F86E400038B50A4DEF
S214400EB028460A4B98470A480A4CA047A98C0A4835
S214400EC0A047E98C0948A047298D0948A047698D65
S214400ED00848A047002038BD480A0020D1044000FA
S214400EE0146F4000F10B4000546D4000646D4000AC
S214400EF0746D4000846D400008B50248024B984728
S214400F00002008BD246F4000F10B400070B5094E2C
S214400F103046094CA047094D2846094B9847A98BAF
S214400F200848A047E98B0848A0473046A04700201D
S214400F3070BD00BF386F4000F10B4000480A0020EB
S214400F4025054000186D4000306D400010F0010F40
S214400F5005D1064A136843F0005313607047044AAD
S214400F60136843F000531360704700BF340E0E40C2
S214400F70300E0E4010B548681C4B9847C0B248B17A
S214400F8001280BD0022812D0032817D006281CD0E0
S214400F90002010BD1648174B9847F9E70020164C1E
S214400FA0A0471648134B98470120A047F0E700207B
S214400FB0114B984712480F4B9847E9E701200E4BD4
S214400FC0984710480B4B9847E2E70F48094B98471D
S214400FD0BFF34F8F0D49CA6802F4E0620C4B1343CF
S214400FE0CB60BFF34F8F00BFFDE700BFE915400061
S214400FF0606F4000F10B40004D0F4000746F4000A2
S214401000806F40008C6F4000986F400000ED00E01D
S2144010100400FA0510B50E4B5A780A2158680D4B55
S214401020984700280FDD0A4C61680B480B4B9847E1
S21440103020220B4960680B4B9847B0F1FF3F03D026
S2144010400348094B984710BD0848044B9847F7E7B4
S214401050E00B002001114000A86F4000F10B40005B
S2144010605C0B002031114000AD104000B86F4000CE
S214401070024688B1C378012B0FD05378591C90781C
S21440108091FBF0F300FB1313DBB2537011788B42E5
S21440109014BF00230123D370704703780133807850
S2144010A093FBF0F100FB11331370E6E748B108B547
S2144010B0002101704170C17082784068014B9847AA
S2144010C008BD70474116400028B108B5426081709F
S2144010D0014B984708BD7047AD10400010B550B161
S2144010E0C47814B10124204610BD42684378D154D8
S2144010F0024B9847F7E70124F5E700BF7110400020
S214401100002393420FDA30B4C518C45C8C4205D035
S21440111001339342F8DB4FF0FF3301E000222A70A0
S214401120184630BC70474FF0FF33184670470000F3
S21440113070B50C460121002603E000230370012110
S214401140013003785BB19342F7D00029F8D0072EE0
S2144011501DD8104B43F8260001360021F0E71EB993
S2144011604FF0FF3070BDE46874B125682946094BDE
S2144011701868094B98470028F5D1002DF3D06368CE
S21440118004493046984770BD4FF0FF3070BD6FF051
S214401190010070BDE4090020E9164000BFF34F8F00
S2144011A00549CA6802F4E062044B1343CB60BFF3C0
S2144011B04F8F00BFFDE700BF00ED00E00400FA05DA
S2144011C008B5104B104A9A4209D00E4B0E4A03E01F
S2144011D011681960043304320C498B42F8D30C4B27
S2144011E002E000221A6004330A4A9342F9D30A4ABC
S2144011F00A4B23F07F039360094B9847094B984767
S214401200FEE700BF0000002098724000B4090020AE
S214401210B4090020300C002000ED00E00000400043
S214401220F1154000051540004FF48072014B1A60DE
S214401230704700BF000A0E400022014B1A607047FC
S21440124054140E40074A136843F45C1343F02003DB
S2144012501360054B1A6842F001021A601A681A6059
S214401260704700BF20040E4030040E40034B044A33
S2144012705A609A6007221A60704700BF10E000E08C
S21440128020D50100174B1A6842F020021A601A68EF
S21440129042F040021A606C331A6822F020021A604C
S2144012A01A6822F040021A600F4A136843F48043DB
S2144012B01360A2F53C22A2F57C72136843F04E03FD
S2144012C013604FF40C62094B1A605022043B1A60BC
S2144012D0012208331A60064B4FF48042C3F880213F
S2144012E01A607047040E0E4010040E400440024040
S2144012F000E100E01C4A136843F400031360103218
S214401300136843F400031360184B1A6842F4001243
S2144013101A601A6842F480021A606C331A6822F423
S21440132000121A601A6822F480021A60104A136883
S21440133043F400431360A2F53822A2F57C7213688A
S21440134043F0270313604FF40C620A4B1A60502296
S214401350043B1A60012208331A60074B4FF40042E0
S214401360C3F880211A607047000E0E40040E0E40EF
S21440137010040E400480024000E100E00E4A13686C
S21440138043F000531360A2F52822A2F5806213684A
S21440139043F0010313608432136843F48073136090
S2144013A0903A136843F4C0631360043A136843F0FA
S2144013B002031360704700BF10040E4030B101288E
S2144013C00ED0022816D003281ED07047134B1A683A
S2144013D022F001021A601A6842F002021A60704750
S2144013E00E4B1A6822F001021A601A6822F00202B6
S2144013F01A607047094B1A6842F001021A601A6870
S21440140042F002021A607047044B1A6842F001022A
S2144014101A601A6822F002021A60D6E7308000404E
S21440142008B520B3324A136843F40063136002F5EC
S2144014301F62136843F4D04313601032136843F4BA
S214401440D04313602032136843F4D04313606432B1
S214401450136843F480531360343A136843F480535C
S2144014601360403A136843F48053136008BD204A23
S214401470136843F4001313601E4B1A6842F00102CF
S2144014801A601A6822F002021A6003201A4B984724
S2144014901A4B1A6842F47F421A601A6842F00402F5
S2144014A01A6003F5582303F6D4531A6842F40062D0
S2144014B01A601A6842F480521A601A6842F400525F
S2144014C01A601A6842F480421A606C331A6822F432
S2144014D080521A601A6822F400521A601A6822F47F
S2144014E080421A60064A136843F00103136008BD41
S2144014F010040E4004800040BD1340003080004081
S2144015000080004008B5104B9847104B9847104B4A
S2144015109847104B9847104B9847104B98470120D8
S2144015200F4B98470F4B98470F4B98470F48104B19
S2144015309847104B1B78012BFBD10F4B9847002246
S2144015400C4B1A70F5E700BF291240006D124000A0
S214401550451240003912400085124000F512400006
S214401560211440007D13400039094000CC6F4000F4
S214401570F10B40000C0A0020010A40000122014BFA
S2144015801A7070470C0A002008B5074B1B6813F00A
S214401590010F07D0054B1968C9B20D2902D004487F
S2144015A0044B984708BD00BF144002401840024014
S2144015B0840A0020DD10400008B5074B1B6813F076
S2144015C0010F07D0054B1968C9B20D2902D004484F
S2144015D0044B984708BD00BF148002401880024064
S2144015E0E00B0020DD1040000A22002100F04EBD36
S2144015F070B50F4E0F4D761BB61018BF002405D0A1
S214401600013455F8043B9847A642F9D10A4E0B4D93
S214401610761B05F02BFEB61018BF002406D001340A
S21440162055F8043B9847A642F9D170BD70BD00BF3F
S21440163078724000787240008072400078724000B5
S21440164070B4860746D0541E002A41D0CAB203461C
S21440165002E014F1FF343BD303F8012B9D07F8D189
S214401660032C2ED9CDB245EA05250F2C45EA054573
S21440167019D903F110022646103E0F2E42F8105C90
S21440168042F80C5C42F8085C42F8045C02F1100236
S214401690F2D8A4F1100222F00F0204F00F04103228
S2144016A0032C13440DD91E462246043A032A46F814
S2144016B0045BFAD8221F22F003020432134404F0DB
S2144016C003042CB1C9B21C4403F8011B9C42FBD155
S2144016D070BC704714460346C2E700BF00000000D7
S2144016E0A2EB0300704700BF02780B78012A28BFA0
S2144016F09A42F5D16DE9044540EA0104CDE9026716
S2144017006FF0000C4FEA447212B380EA010414F002
S214401710070F6AD100F0070420F0070004F0030525
S21440172021F007014FEAC505F0E8042314F0040F42
S214401730F1E804670CFA05F462EA040266EA040675
S2144017400AD063EA0403624667EA0407664603E093
S214401750F0E80423F1E8046782FA4CF582EA0604CE
S214401760A4FA8CF46CBB83FA4CF583EA0705A5FA19
S2144017708CF595B950E9022351E9026782FA4CF597
S21440178082EA0604A4FA8CF483FA4CF583EA070549
S214401790A5FA8CF52543DBD09CB92DBAB5FA85F46D
S2144017A024F0070427FA04F1DDE9026723FA04F37C
S2144017B003F0FF0001F0FF01FDE80445A0EB010047
S2144017C0704724BAB4FA84F424F0070426FA04F1E5
S2144017D0DDE9026722FA04F202F0FF0001F0FF01A1
S2144017E0FDE80445A0EB0100704714F0030F3CD120
S2144017F010F0030428D150F8082B51F8083B82FA21
S2144018004CF582EA0305A5FA8CF55DB950F8042C30
S21440181051F8043C82FA4CF582EA0305A5FA8CF5A9
S214401820002DE8D02DBAB5FA85F424F0070423FA43
S21440183004F122FA04F202F0FF0001F0FF01FDE895
S2144018400445A0EB010070474FEAC40420F00300B3
S21440185050F8082B21F0030151F8083B0CFA04F429
S21440186062EA040263EA0403C9E710F003041AD0EC
S214401870A1EB040120F00300E40750F8042B06D047
S2144018800FD28B785FFAA2F4E41A06D12BB1CB784C
S2144018905FFAB2F4E41A00D11BB920465DF8104B4B
S2144018A0704701F1040150F8042BCC0721F00301E6
S2144018B051F8043B48D824D222F07F4482FA4CF5B3
S2144018C094EA1325A5FA8CF50AD165B951F8043B7C
S2144018D084EA0204B4EB036F0ED150F8042BEBE716
S2144018E04FEA132355E035F07F454DD10878FDE8A3
S2144018F00445C0F1000070474FEA126203F0FF0350
S21440190047E002EA1C4482FA4CF594EA1345A5FAED
S2144019108CF50AD165B951F8043B84EA0204B4EB6D
S214401920034F0CD150F8042BEBE74FEA134330E05B
S21440193015EA1C4528D10B884FEA124229E04FEAA7
S214401940124203EA1C4324E002F0FF0482FA4CF5FC
S21440195094EA1365A5FA8CF50AD165B951F8043BAB
S21440196084EA0204B4EB032F09D150F8042BEBE7CA
S2144019704FEA13630DE015F0FF0F05D10B684FEAF1
S214401980122223F07F4304E04FF00000FDE80445B8
S214401990704712BA1BBA82FA4CF482EA0304A4FADD
S2144019A08CF5B5FA85F402FA04F203FA04F34FEA2A
S2144019B01260FDE80445A0EB13607047000000008D
S2144019C090F800F06DE9024520F007016FF0000C3A
S2144019D010F0070491F820F040F049804FF00004E2
S2144019E06FF00700D1E9002391F840F000F10800BD
S2144019F082FA4CF2A4FA8CF283FA4CF3A2FA8CF3F5
S214401A004BBBD1E9022382FA4CF200F10800A4FA5B
S214401A108CF283FA4CF3A2FA8CF3E3B9D1E90423AF
S214401A2082FA4CF200F10800A4FA8CF283FA4CF3E6
S214401A30A2FA8CF37BB9D1E9062301F1200182FAA0
S214401A404CF200F10800A4FA8CF283FA4CF3A2FAA6
S214401A508CF3002BC6D0002A04BF04301A4612BAB4
S214401A60B2FA82F2FDE8024500EBD2007047D1E9B7
S214401A70002304F00305C4F100004FEAC50514F046
S214401A80040F91F840F00CFA05F562EA05021CBF17
S214401A9063EA050362464FF00004A9E72DE9F041EA
S214401AA04FF0010E744600254FF0FF362B198B423F
S214401AB000EB06070DD23F5D10F803C0BC452DD2A3
S214401AC01D460124A3EB060E2B198B4200EB06079E
S214401AD0F1D34FF00108C2F800E0444600254FF02D
S214401AE0FF372B19994200EB070E0ED91EF804E07B
S214401AF010F803C0F44518D91D460124A3EB070887
S214401B002B19994200EB070EF0D80137701C87421C
S214401B1024BFC2F800803846BDE8F0810CD04FF0B4
S214401B20010E2E4674467544C0E70BD04FF00108B0
S214401B302F4644464544D4E7744512BF01341D46FB
S214401B400124B3E7444512BF01341D460124C8E7CB
S214401B502DE9F04FADF2144D164605468B4610461D
S214401B60194603AA1C46FFF799FF03AB81460DF2C0
S214401B700C4243F8044F9342FBD14CB1631E721E95
S214401B8004A812F8011F40F8213013F1FF33F8D2B1
S214401B9003994A463144304600F052FB00286FD144
S214401BA009F1FF330093F31882460193234680469B
S214401BB0544658469A4608EB0A073A1A00212844E3
S214401BC000F0EEFA002856D1002F54D0EB1904AAA4
S214401BD013F8013C52F823304BB124B1039A934298
S214401BE001D2AAEB0203984400243846E3E74C456A
S214401BF023460AF1FF3E38BF4B46734513D208EBE7
S214401C00030216F803C0A85C84452A4406EB030189
S214401C1006D02CE011F801CF12F8010F844526D1EA
S214401C2001337345F6D34C45009980F08980009B7C
S214401C3008EB0302019BA85C1B7898422A447FD19C
S214401C40019804F1FF3B06E010F801CD12F801EDD3
S214401C50F44503D119464B1E9B45F5D101348C42C1
S214401C6070D8039C3846A044AAEB0404A3E7C9F105
S214401C7001029044B7E700200DF2144DBDE8F08F06
S214401C80A4EB09034B4538BF4B46013309F1FF38F7
S214401C90039306EB080358464FF0000ACB46994696
S214401CA00AEB04073A1A0021284400F079FA002883
S214401CB0E1D1002FDFD0EB1904AA13F8013C52F80B
S214401CC02330A3BB611E8B4515D20AEB0B0216F8D8
S214401CD00B3015F802E09E452A4406EB0B005B46A7
S214401CE006D027E010F801CF12F801EFF44521D1D5
S214401CF001338B42F6D3B8F1FF3F11D00AEB08020E
S214401D0099F80010AB5C99422A440FD14B4605E047
S214401D1013F8010D12F8011D884207D1B342F7D1DE
S214401D2005EB0A000DF2144DBDE8F08F039B9A4474
S214401D303846B5E7CBF1010292449A443846AFE7BD
S214401D4049468BE705EB080096E700BF0278002A75
S214401D5000F001812DE9F04F91F8008085B04446AF
S214401D60B8F1000F16D0864601F1010C012703E0BA
S214401D7013F8014B6CB19C46A24214BF002707F0F3
S214401D8001071EF8012F6346002AF1D19CF8003067
S214401D90FBB917B105B0BDE8F08F0E460546414683
S214401DA00130ACEB060400F07BFA074688B1012C04
S214401DB0F0D02819874294BFC11B01211F2C8B46A7
S214401DC00BD9234632463846FFF7C2FE05B0BDE87B
S214401DD0F08F002005B0BDE8F08F03AA21463046BC
S214401DE0FFF75CFE0399804602463144304600F0D9
S214401DF027FA002857D108F1FF330093F31881469D
S214401E00054601935846B2466619321A00213844B0
S214401E1000F0C6F90028DCD1002EDAD0C84543468B
S214401E2038BF4B469C4212D95A191AF80310B85C70
S214401E3081423A440AEB030E06D02CE01EF8010F0E
S214401E4012F8011F884226D101339C42F6D1C8457C
S214401E50009940F28380009BEA18019BB85C1B788F
S214401E6098423A447AD1019809F1FF3B06E010F8CF
S214401E7001CD12F801EDF44503D119464B1E5B45E2
S214401E80F5D109F10109894557D8039B30461D44D1
S214401E90A4EB0309B8E7C8F1010215441D444FF00E
S214401EA000093046B0E7A4EB0803434538BF434635
S214401EB0013308F1FF39039306EB09035846002522
S214401EC0BB469A4667193A1A0021584400F068F90A
S214401ED000287FF47EAF002F3FF47BAF444515D9F2
S214401EE008EB050216F808301BF8020098425A44E0
S214401EF006EB0801434606D023E011F801EF12F83E
S214401F00010F86451DD101339C42F6D1B9F1FF3F02
S214401F1012D005EB09029AF800301BF802109942DD
S214401F205A4414D1534605E013F8010D12F8011D2A
S214401F3088420CD1B342F7D15F46781905B0BDE868
S214401F40F08FC8F1010215441D443846BAE7039B9A
S214401F5038461D44B6E70B7813B97047414690E7BC
S214401F60002070472DE9F84FDDF828900F46804650
S214401F7016461D468A4600E0A2465446484614F891
S214401F8001BB00F0E9F85844427812F00802F3D159
S214401F90BBF12D0F4FD0BBF12B0F04BF94F800B010
S214401FA00AF102041DB1102D56D0AC4604E0BBF138
S214401FB0300F60D00A25AC46002A0CBF6FF00049AF
S214401FC04FF000490021B9FBFCFE08460CFB1E9A68
S214401FD005E029D00CFB0030012114F801BBABF121
S214401FE03003092B05D9ABF14103192B0BD8ABF1C4
S214401FF037039D420FDDB1F1FF3FEED08645E8D274
S2144020004FF0FF31E9E7ABF16103192B03D8ABF191
S21440201057039D42EFDC4B1C13D002B1404246B101
S214402020C1B93760BDE8F88F9A45D3DA4FF0FF3133
S214402030D3E7BDE8F88F94F800B001220AF1020415
S214402040B0E72223C8F80030EEB1671E4846376036
S214402050BDE8F88F8146F8E7BBF1300FA5D123786D
S21440206003F0DF03582BA0D14FF0100C94F801B0CA
S21440207065460234A0E7237803F0DF03582BF3D0FD
S2144020800825AC4698E74846BDE8F88F30B5084C7A
S214402090084B25686C6B83B0002C08BF1C46009428
S2144020A013460A4601462846FFF75CFF03B030BD9C
S2144020B00000002034040020F0B59BB00D466FF0C1
S2144020C000444FF402774FF6FF7669460095049534
S2144020D0ADF80C7002940594ADF80E6000F054F91B
S2144020E0009B00221A701BB0F0BD00BF10B4044C19
S2144020F013460A460146206810BCFFF7DDBF00BF06
S21440210000000020024B13B1024800F005B87047AB
S2144021100000000025214000002301461A461846CC
S21440212001F06EBB38B50A4C0A4D641BA4100AD0A9
S21440213004F18043013B05EB8305013C55F8043927
S2144021409847002CF9D1BDE8384005F099B800BF53
S214402150907240008C724000D0F8EC00704700BF90
S214402160704700BF704700BF82B049B15AB16BB1EB
S21440217013780B601278101C18BF012002B070470D
S21440218001A9002AF3D1104602B070476FF0010053
S214402190F4E700BF00000000000000000000000060
S2144021A001F0FF01102A2BDB10F0070F08D010F8C3
S2144021B0013B013A8B422DD010F0070F42B3F6D1C7
S2144021C0F0B441EA012141EA014122F007047FF0E0
S2144021D000070023F0E80256083C85EA010586EA37
S2144021E0010685FA47F5A3FA87F586FA47F6A5FA73
S2144021F087F68EB9EED1F0BC01F0FF0102F007027F
S21440220032B110F8013B013A83EA010313B1F8D129
S2144022100020704701387047002D06BF354603380A
S214402220073815F0010F07D1013015F4807F02BF43
S214402230013015F4C03F0130F0BC0138704700BF94
S214402240032A70B422D940EA01039B0711D00378D1
S2144022500C78A3421DD10A44013105E010F8013F35
S21440226011F8014BA34214D19142F7D1002070BC23
S21440227070470D680668AE420C46034601F10401FD
S21440228000F1040008D1043A032AF2D8002ADED12D
S214402290ECE7181B70BC704721461846D7E700BFCE
S2144022A0C9B2002941D08207F0B467D00378002B2A
S2144022B068D0994237D0431C04E013F8010B90B322
S2144022C081422FD09A071C46F7D1256841EA012360
S2144022D043EA034383EA0506A6F10130A5F101323D
S2144022E020EA060022EA0502024312F0803F11D19E
S2144022F0204650F8046F83EA0607A7F10135A6F199
S214402300013225EA070522EA06022A4312F0803FF8
S214402310EFD00446207818B905E014F8010F10B144
S2144023208142FAD12046F0BC7047830724D0037818
S214402330002BF9D0431C03E002780133002AF3D087
S21440234099071846F8D11968A1F1013222EA01022C
S21440235012F0803F08D153F8041FA1F1013222EA5F
S214402360010212F0803FF6D01A78184642B110F8B3
S214402370013F002BFBD170470346E4E70446A4E741
S214402380184670471846CEE72DE9F04FC3B00C46C6
S2144023900B9192460F930C9002F054FA03681A93EE
S2144023A01846FFF70DFBA3891990190603D5236934
S2144023B0002B01F0038000230DF1C80913931593F9
S2144023C014932793269318931B930993CDF89490D0
S2144023D0C846169317939AF800305446E3B1252B17
S2144023E002D119E0252B03D014F8013F002BF9D178
S2144023F0A4EB0A0585B1269B279AC8F800A00133AE
S2144024002A44072BC8F80450279226937FDC08F10D
S2144024100808099B2B4409932378002B7FD0002380
S2144024201A468DF8773019460D939B464FF0FF308D
S21440243063780A9004F1010A0AF1010AA3F1200028
S214402440582800F2C183DFE810F03802BF03BF030C
S2144024504002BF03BF03BF03BF03BF03BF03450222
S2144024600302BF035D006B02BF0386029D039D030C
S2144024709D039D039D039D039D039D039D03BF03F5
S214402480BF03BF03BF03BF03BF03BF03BF03BF03F7
S214402490BF0337035703BF035703BF03BF03BF033F
S2144024A0BF039803BF03BF03AD03BF03BF03BF0310
S2144024B0BF03BF035902BF03BF031E03BF03BF03CF
S2144024C0BF03BF03BF03BF03BF03BF03BF03BF03B7
S2144024D0C602DB025703570357038B02DB02BF03D8
S2144024E0BF039002BF039D02CC01B4020802BF03A3
S2144024F0E101BF037E00BF03BF030D020D980F939B
S21440250040420D904BF0040B9AF8003094E725AA11
S2144025100B990C9803F006F840B9C84679E7279B14
S21440252023B10C980B9925AA02F0FCFF0B9B9B89C4
S21440253013F0400F099B18BF4FF0FF3309930998DB
S21440254043B0BDE8F08F1BF0200F119340F0DD81C3
S2144025500F9A1BF0100F134640F06E851BF0400F8D
S21440256000F06A8514880432002501230F92002764
S2144025708DF877700A994A1C00F065822BF080022D
S214402580079254EA050240F06482002940F03C84F9
S214402590002B40F0D7841BF001030E9300F0048616
S2144025A042AE302306F8413D0A9B0E9A9342B8BF8E
S2144025B0134608930023129317B1089B01330893E0
S2144025C0079B13F00203109302D0089B0233089334
S2144025D0079B13F0840540F00E830D9B089AA3EBEF
S2144025E0020BBBF1000F40F30683BBF1100F279C94
S2144025F0269A29DD43462146A84610270C9C0B9D6B
S21440260006E0ABF1100BBBF1100F03F1080318DD29
S2144026100132B74826921031072A279183E8810075
S214402620EFDD25AA2946204602F07CFF00287FF4ED
S2144026307DAFABF1100BBBF1100F2799269A4B4696
S214402640E6DC45460C4698460132A94B26925C4449
S214402650072A279488E8080800F398849DF877703E
S21440266008F1080877B1269B013301340DF1770154
S2144026700122072B2794269388E8060000F3DB8385
S21440268008F10808109B6BB1269B013302341EA943
S2144026900222072B2794269388E8060000F3D68369
S2144026A008F10808802D00F015830A9B0E9A9F1AA1
S2144026B0002F36DD102F269B8E4D27DD42462146C5
S2144026C0B0464FF0100B2E460C9C0B9D04E0103F7E
S2144026D0102F02F1080215DD01331031072B279128
S2144026E0269382E84008F2DD25AA2946204602F0D5
S2144026F019FF00287FF41AAF103F102F2799269B0A
S2144027004A46E9DC35460C464646904601333C444C
S214402710072B2794269388E8A00000F3818308F1CE
S2144027200808079BDF0500F16882269B0E99C8F8CB
S214402730006001330C44072B2794C8F804102693F6
S21440274000F34D8308F10808079B5B073AD50D9BBD
S214402750089A9D1A002D35DD102D269B20DD10266B
S2144027600C9FDDF82CB004E0103D102D08F1080851
S21440277016DD01335E4A26931034072B279488E8EB
S2144027804400F1DD25AA5946384602F0CBFE002823
S2144027907FF4CCAE103D102D279C269BC846E8DC27
S2144027A00133534A26932C44072B279488E8240069
S2144027B008DD25AA0B990C9802F0B4FE00287FF499
S2144027C0B5AE279C099B0D9A08998A42ACBF9B18C8
S2144027D05B180993002C40F00D8300232693C846CF
S2144027E0F9E511931BF0200340F0E3811BF0100243
S2144027F040F02E841BF0400300F02A840F991346C5
S2144028000A4604320C880F920025B0E60F9A1193C0
S214402810166800248DF87740151D002E00F0A78618
S2144028200A9A531C00F0098621463046FFF7B8FC4A
S214402830002800F0E186831B0E930A940F95CDF88E
S2144028401CB023EAE373089312949DF87770B3E6BE
S2144028509AF8003001222B21EEE54BF0200B9AF837
S2144028600030E9E51193002A40F09587224B1893F3
S2144028701BF0200F40F011810F9A1BF0100F1346EB
S21440288040F0E1831BF0400F00F0DD8304331488F2
S2144028900F9300251BF0010F00F00C8154EA05034E
S2144028A000F0088130239DF844208DF878308DF86C
S2144028B079204BF0020B022359E69AF800300029A3
S2144028C07FF4BAAD01222021B6E54BF0010B9AF811
S2144028D00030B1E50F9C23680D9318460028234628
S2144028E003F10403FFF60AAE0F939AF80030A3E50F
S2144028F03870400048704000187040004BF0100B95
S2144029001BF0200F11933FF423AE0F9D073525F0A3
S214402910070303F10802D3E900450F92012326E698
S2144029209AF800302A2B0AF1010400F02787A3F119
S21440293030000928A24600F2AD8600231C461AF84D
S214402940013B04EB840400EB4404A3F13000092867
S214402950F5D90A9472E54BF0800B9AF800306BE597
S2144029604BF0400B9AF8003066E59AF800306C2B36
S21440297003BF9AF801304BF0200B0AF1010A4BF0E6
S214402980100B59E5002A40F011871BF0200F40F04D
S214402990F9841BF0100F40F0AC841BF0400F00F0A1
S2144029A0A8840F9A136804320F92BDF824201A8028
S2144029B011E50F99B34B0C681893302278230431F5
S2144029C08DF8793011934BF0020B0F9100258DF85E
S2144029D078200223CBE50F9911930A688DF8A02042
S2144029E000230A461F468DF87730043201230893A9
S2144029F0CDF81CB00A9712970F920E9328AEDFE5DB
S214402A001193002A40F0EA861BF0200F5DD11BF0A0
S214402A10100F40F008831BF0400F00F004830F991E
S214402A20B1F900400431E51722462B460F91002AA3
S214402A3073F1000358DB0A999DF877704A1C4FF0F3
S214402A4001037FF49BAD54EA050200F0DF81CDF828
S214402A501CB0012B00F07B82022B40F006821898B7
S214402A604E46230904F00F0143EA05732A091C4623
S214402A701546435C06F8013D54EA0503F1D1A9EB3F
S214402A8006030E9390E51193002A40F0A3867E4BF2
S214402A9018931BF0200F3FF4EFAE0F9D073525F03F
S214402AA0070303F108021BF0010F0F92D3E900451C
S214402AB07FF4F4AE02235AE51193002A40F086864E
S214402AC04BF0100B1BF0200FA1D00F9D073525F0C3
S214402AD00705D5E90023002A05F108011D4673F1D4
S214402AE000030F911446A6DA2D27644265EB450590
S214402AF08DF8777001233DE51193002A40F06286F9
S214402B000F9D073525F0070303F108020F921A6858
S214402B1015925B681493149B159D23F00044284639
S214402B2021464FF0FF32594B03F03CFD002840F061
S214402B304A83284621464FF0FF32544B03F014FD9B
S214402B40002840F0408315A80DC8149903F002FDF4
S214402B50002840F030859DF877704D4E4D4B2BF059
S214402B608000079011980322002108920A91472876
S214402B70D8BF1E460E9212911EE54BF0080B9AF8EF
S214402B80003059E4A3F1300000231C461AF8013BFC
S214402B9004EB840400EB4404A3F130000928F5D983
S214402BA00D944BE44BF0100B11931BF020033FF4B5
S214402BB01DAE0F9D073525F0070303F10802D3E944
S214402BC000450F920023D2E41193002A40F0E78597
S214402BD0119A002A3FF4A3AC002301211F46089116
S214402BE08DF8A020CDF81CB08DF877300A9312935C
S214402BF00E9128AEE4E4279C34E5119B652B40F308
S214402C00A78015A80DC8149903F09AFC002800F078
S214402C105081269B204AC8F8002001330134012207
S214402C20072B27942693C8F8042000F36A8308F1FC
S214402C3008081F9B139A279C934203DB079BDD07DC
S214402C407FF582AD269B19991A9AC8F80020013361
S214402C500C44072BC8F804102794269300F39E8351
S214402C6008F10808139B5E1E002E7FF76DAD102EF0
S214402C70269B0A4D40F3F58122461027DDF830B0FA
S214402C800B9C13E01870400004704000FFFFEF7F7D
S214402C90F86F4000F46F40003470400048704000C9
S214402CA008F10808103E102E40F3DA810133103246
S214402CB0072B2792269388E8A000F1DD25AA214617
S214402CC0584602F02FFC00287FF430AC279A269B0B
S214402CD0C846E7E70D9B089A9F1A002F7FF7E5AC9A
S214402CE0102F269BB64D27DD42462146B0464FF074
S214402CF0100B2E460C9C0B9D04E0103F102F02F14B
S214402D00080215DD01331031072B2791269382E800
S214402D104008F2DD25AA2946204602F003FC00289A
S214402D207FF404AC103F102F2799269B4A46E9DCD7
S214402D3035460C464646904601333C44072B27947E
S214402D40269388E8A00000F3328208F10808ACE435
S214402D50139B269F012B40F3FE810137013401234C
S214402D60072F27942697C8F80060C8F8043000F369
S214402D70038208F10808199A1A9BC8F800300137F0
S214402D801444072F27942697C8F8042000F300829F
S214402D9008F1080815A80DC8149903F0D1FB139B39
S214402DA0002840F00181013B013701361C44072FC3
S214402DB026972794C8F80060C8F8043000F32781A7
S214402DC008F108081B9AC8F804200137144421ABC0
S214402DD0072F27942697C8F800307FF7B3AC25AA6C
S214402DE00B990C9802F09EFB00287FF49FAB279C23
S214402DF0C846A9E425AA0B990C9802F093FB002834
S214402E003FF4EBACFFF792BBDDF81CB0012B00F0B3
S214402E103481022B25D1CDF81CB0002400251EE6B7
S214402E2025AA0B990C9802F07DFB00287FF47EAB18
S214402E30279CC84675E425AA0B990C9802F072FBAD
S214402E4000287FF473AB279CC8461BE425AA0B9941
S214402E500C9802F067FB00287FF468AB279CC846B6
S214402E6020E4CDF81CB000240025494600E0314659
S214402E70E20842EA4572E80804F0070305461446AD
S214402E80303354EA050201F8013C01F1FF36EED139
S214402E90079AD2077FF5F3AD302B3FF4F0AD0239F9
S214402EA0302306F8013CA9EB01030E930E46FFF7CC
S214402EB07BBB1F99002940F32E82129B139A9342A4
S214402EC0A8BF1346002B1F460DDD269BC8F80060A2
S214402ED001333C44072B2794C8F80470269300F32C
S214402EE01F8308F10808129B002FA8BFDB1B002B8E
S214402EF01F4640F3D680102F269B314D40F3ED8180
S214402F0042462146B0464FF0100B2E460C9C0B9D79
S214402F1004E00832103F102F40F3DB8101331031BC
S214402F20072B2791269382E84008F2DD25AA2946FA
S214402F30204602F0F7FA00287FF4F8AA2799269B45
S214402F404A46E7E70A9B0E934E46FFF72DBB002DF9
S214402F5008BF0A2CC0F08F804E46204629460A22DB
S214402F60002303F05DFB303206F8012D204629464B
S214402F7000230A2203F054FB04460D4654EA050398
S214402F80EBD1A9EB06030E93FFF70EBB25AA0B99D0
S214402F900C9802F0C7FA00287FF4C8AA9DF877700C
S214402FA0279CC846FFF75EBB5E1E002E7FF70AAF23
S214402FB0102E034D22DD22464FF0100B0C9C06E0EF
S214402FC048704000103E102E08F1080815DD013705
S214402FD01032072F2792269788E82008F2DD25AA88
S214402FE00B99204602F09EFA00287FF49FAA103ED6
S214402FF0102E279A269FC846E9DC144601373444EB
S214403000072F2794269788E860007FF7D9AE25AA31
S2144030100B990C9802F086FA00287FF487AA279C22
S214403020269FC846CEE60F9A146813460433E51723
S2144030300F9322462B46FAE404321C680F92012373
S2144030400025FFF794BA1C6804330F93002521E44B
S2144030500F990A4604320C680F920025FFF787BA8C
S214403060144601333444072B2794269388E860009F
S2144030707FF768ABB3E6DDF81CB0CDF81CB042AEC7
S2144030803034012306F8414D0E93FFF78DBA25AA3A
S2144030900B990C9802F046FA00287FF447AA279C22
S2144030A0C8461F9A139B9A4244DB079BD90741D4D4
S2144030B0139B12989A1A1D1A9542A8BF1546002DC2
S2144030C00EDD2699C8F80450013106442C440729E1
S2144030D0C8F800602794269100F33B8208F1080860
S2144030E0002DACBF561B1646002E7FF72DAB102E7C
S2144030F0269BB04DB5DD22461027DDF830B00B9C40
S21440310004E008F10808103E102EA9DD0133103205
S214403110072B2792269388E8A000F2DD25AA2146B1
S214403120584602F0FFF900287FF400AA279A269B0B
S214403130C846E8E7269B19981A99C8F80010013344
S2144031400444072B2794C8F80400269300F3F5811F
S21440315008F10808ACE7079BDA073FF5FEAD0137F4
S21440316001340123072F27942697C8F80060C8F833
S21440317004307FF725AE4AE725AA0B990C9802F053
S214403180D1F900287FF4D2A9279C269FC846F2E5AD
S21440319025AA0B990C9802F0C5F900287FF4C6A919
S2144031A0279C269FC846F5E54E46FFF7FDB925AA5B
S2144031B00B990C9802F0B6F900287FF4B7A9279C23
S2144031C0C846FFF772BA159C22462046149C2346F2
S2144031D0214603F0E7F9002840F086820A9B013337
S2144031E0119B23F020030E9300F0E281472B00F062
S2144031F01E814BF480730793149B1F1E159B0893E8
S214403200BBBF3B4603F1004700232D231093119B81
S214403210662B00F0BB81462B00F0DF800E9B089AA1
S214403220452B0CBF0A9B0A9D23A820A908BF5D1CFE
S214403230049003911FA802213B46029001950091FD
S2144032400C9800F0D5FB119B672B064640F0E081BA
S2144032501BF0010F00F046827419169A0898179BC7
S214403260394603F06DF9002840F06581239BA34260
S21440327006D230215A1C23921970239B9C42F9D8BF
S2144032809B1B13930E9B472B00F0E980119B652BED
S21440329040F3CD81119B662B1F9B129300F09E81BD
S2144032A0139B129A1946914200F38A811BF0010F34
S2144032B040F0138222EAE273089367230E9211933A
S2144032C0109B002B40F0C4800A939DF87770FFF760
S2144032D073B935460C464646904601333C44072B68
S2144032E02794269388E8A0003FF7D1AE08F1080857
S2144032F0D7E60F9A136804320F92099A1A60FFF7BE
S2144033006AB825AA0B990C9802F00CF900287FF4AD
S2144033100DA9C8468DE4269B274AC8F800200133ED
S21440332001340122072B27942693C8F8042072DC28
S21440333008F1080829B9139B1BB9079BD8077FF5E6
S21440334003AA269B19981A9AC8F800200133024609
S2144033502244072B2792C8F80400269300F38D8159
S21440336008F108080029C0F265811399C8F8006082
S21440337001338C18072B27942693C8F804107FF740
S214403380E1A92CE50F9A09991368CD17084604322F
S21440339029460F92C3E90001FFF71DB825AA0B99ED
S2144033A00C9802F0BFF800287FF4C0A8279CC846B7
S2144033B058E400BF487040003470400040210C98EC
S2144033C001F04EFA0B9A10601061002800F0F2816E
S2144033D00B9A40235361FEF7EEBF23A820A90A9C10
S2144033E0049003911FA803210290089A01943B463B
S2144033F000910C9800F0FCFA25460646119B462B99
S21440340006EB05047FF429AF3378302B00F0788143
S2144034101F9D2C4421E725AA0B990C9802F082F8B0
S21440342000287FF483A81F99279CC84682E70A9BFA
S214403430002B08BF01230A93DBE630460A94FEF7CA
S214403440BFFA0F950E90CDF81CB00346FFF7F9B9BA
S2144034502D2700238DF877700A93FFF7AEB81F9B91
S21440346012931A46033304DB0A9B19469142BFF671
S21440347017AF119B023B11939DF844308DF8843072
S214403480129B013B002B1F93BDBF129BC3F1010350
S2144034902D222B22092B8DF8852040F316810DF125
S2144034A093042046AB4D00E0104685FB0312D91727
S2144034B0C1EBA20101EB8102A3EB420230320929A3
S2144034C000F8012C0B4600F1FF32EDDC30330238B9
S2144034D0D9B2844202F8011C40F265810DF18600A3
S2144034E0134601E013F8011B00F8011BA342F9D173
S2144034F001339B1A0DF18602134421AA9B1A139A94
S2144035001B93012A13440E9340F319810E9B199A7C
S21440351013440E9323EAE373089300231293CFE6F3
S21440352025AA0B990C9801F0FDFF00287EF4FEAF0B
S214403530279CC846D7E42346A2E625AA0B990C98B2
S21440354001F0F0FF00287EF4F1AF1F9A279CC84692
S214403550AEE525AA0B990C9801F0E4FF00287EF40E
S214403560E5AF1F9A139B279C9A1AC846B8E50A9B54
S2144035701296062B28BF06230A96374608930F95C1
S214403580CDF81CB00E93744EFFF716B823A820A9AA
S2144035900A9D049003911FA803210290089A019562
S2144035A03B4600910C9800F023FA064644192BE758
S2144035B006230A931DE62D278DF87770FFF7CDBAC0
S2144035C0199A139B1344129A0E93002A40F3B08024
S2144035D023EAE37308936723119371E6002B40F3C5
S2144035E0C3800A9A002A40F099801BF0010F40F0F1
S2144035F0958008930E9363E60A9B08930E930A9071
S2144036000F95CDF81CB012909DF87770FEF7D4BF9A
S214403610119B472B7FF420AE1BF0010F7FF4EEAEDC
S214403620239B9B1B13930E9B472B3FF418AF1F9B6C
S214403630129321E74F421031484D2FDA1024DDF81F
S21440364030B004E008F10808103F102F26DD0133A3
S2144036501032072B27922693C8F80050C8F804402B
S214403660F0DD25AA0B99584601F05CFF00287EF451
S2144036705DAF279A269BC846E6E725AA0B990C9885
S21440368001F050FF00287EF451AF1F99279A269BE1
S214403690C84667E600200A90FEF7D0BE01333A449B
S2144036A0072B88E8A0002792269308F108087FF7A2
S2144036B05CAE25AA0B990C9801F034FF00287EF4E6
S2144036C035AF279A269BC8464FE6303330228DF8D2
S2144036D087308DF8862022AB0FE7129B199A134449
S2144036E00E9375E7239BCBE5149B1D4E002BB6BF70
S2144036F02D279DF877708DF877701A4BFFF72FBA05
S214403700169A0898179B394602F01AFF00287FF44D
S2144037107FAEC5F101051F952C449EE5129B199A74
S21440372013440A9A1A4422EAE2730E920893C7E5B3
S214403730129B0E9AC3F101031A441346D0E71BF0BE
S214403740010312937FF4E2AE0E9B23EAE3730893E1
S214403750B6E500BF676666662C704000487040005D
S21440376000704000FC6F40000A9B13B91BF0010F2D
S21440377002D0199B0133D4E701233AE70F9D9AF80C
S2144037800130286840EAE0700A9028460430A24695
S2144037900F90FEF751BE8DF87710FFF767B88DF89B
S2144037A07710FFF715BA0DF18603A6E68DF8771069
S2144037B0FFF7EBB80C9A0C2313604FF0FF330993D6
S2144037C0FEF7BDBE8DF87710FFF79AB98DF87710E3
S2144037D0FFF776B98DF87710FFF759B98DF877105F
S2144037E0FFF712B921B1FF2A04D80A7001207047AA
S2144037F0084670478A2303604FF0FF30704700BF8B
S2144038002DE9F8432C4D0646286898460F469146C3
S214403810FEF7A6FC294B1C68D4F84831002B3ED056
S2144038205A681F2A1CDC02F1010E76B103EB8201B6
S2144038300124C1F88890D3F8880194402043022E92
S214403840C3F88801C1F8088123D00232C3F804E0E7
S214403850286843F82270FEF785FC0020BDE8F88310
S214403860174B0BB34FF4C870AFF300800346D8B184
S214403870D4F848210260002141600A46C4F8480155
S2144038804FF0010EC0F88811C0F88C11002EDCD025
S214403890CCE7D3F88C110C43C3F88C41D5E704F53C
S2144038A0A673C4F84831BBE72868FEF75BFC4FF0C8
S2144038B0FF30BDE8F88300BF30040020E06F4000D2
S2144038C00000000002690B69934200F38D802DE9E9
S2144038D0F04F03F1FF3801F1140700F1140B57F8CD
S2144038E028205BF828304FEA880483B00132B3FBC7
S2144038F0F2F90BEB0403009407EB040A0193B9F1C9
S214403900000F39D000252E46BC46DE465CF8044BF8
S214403910DEF80030A2B209FB0255220C2C0C09FB43
S2144039200242ADB2751B96B2C6EB134615FA83F348
S21440393006EB23469BB243EA0643E2454FEA12456E
S2144039404EF8043B4FEA2646E0D2009B5BF8033035
S21440395093B9019C231F9B450CD254F8043C4BB9A9
S214403960A4F1080302E01A68043B1AB99B4508F123
S214403970FF38F8D3C0F81080044601F0C5FC002894
S2144039802EDB09F101095D46002357F8041B286821
S2144039908AB29A1A0B0C12FA80F2C3EB104303EB6E
S2144039A0224392B242EA0342BA4545F8042B4FEA14
S2144039B02343EAD25BF828200BEB880382B91A1F10
S2144039C093450BD253F8042C42B9083B02E01A68E0
S2144039D0043B1AB99B4508F1FF38F8D3C4F8108069
S2144039E0484603B0BDE8F08F002070470000000056
S2144039F02DE9F04F016C9BB00446279E92469B46AD
S214403A0041B1426C4A60012393408B6001F0A4FAB6
S214403A1000232364BBF1000F5D4635DB0023336093
S214403A209D4BAB4315D0504659460022002302F02A
S214403A3087FD804600282DD0269A01231360289BB8
S214403A40002B00F0BD809548186001381BB0BDE8DB
S214403A50F08F269A42F20F731360BAF1000F0DD121
S214403A60C5F3130555B9289B8D48002BEED000F1C1
S214403A700803289A13601BB0BDE8F08F289B89483E
S214403A80002BE3D0C31CF4E701232BF00045336042
S214403A90AB46C5E718AA19AB0192009352465B465F
S214403AA0204601F0D1FC2B0D814671D0CBF313029A
S214403AB042F07F51189FCDF850805046A3F2FF3613
S214403AC041F440110022784B02F01EF96CA3D3E972
S214403AD0002302F0CDFA6CA3D3E9002302F016F9D6
S214403AE0CDE90201304602F05DFA69A3D3E900232E
S214403AF002F0BEFA02460B46DDE9020102F006F984
S214403B00CDE9040102F064FD002202900023DDE9C5
S214403B10040102F01FFD002840F07381029D162D1F
S214403B2000F25D81614B03EBC503D3E900015246C9
S214403B305B4602F02DFD002800F0C5816B1E029307
S214403B4000230E93BF1B7B1E069300F15481002377
S214403B500893029B002BC0F24581069A0D931146AE
S214403B601944002306910C93249B092B2AD8052B35
S214403B7040F35B86043B24930025249B023B032BA7
S214403B8000F24286DFE813F0D403C902DF03610483
S214403B90189F199E3E4406F23243202B40F38E81F6
S214403BA0C3F1400306F212409D402AFA00F0284333
S214403BB002F0E8F90123013EA1F1F871149381E780
S214403BC03B4843E7002161642046259101F09EF979
S214403BD04FF0FF330A93259A0F93012304902064F5
S214403BE024920B93199B002BC0F2D980029A0E2A7E
S214403BF000F3D5802D4B03EBC203D3E90023CDE978
S214403C000823259B002BC0F2BA83DDE908565046B0
S214403C102A463346594602F055FB02F0D9FC804608
S214403C2002F0C0F92A46334602F022FA0B46024614
S214403C305946504602F068F8049D08F130032B7050
S214403C400A9B012B06460F4605F1010568D0002267
S214403C50184B02F00DFA0022002306460F4602F0EB
S214403C606FFC002840F08880CDF82C904FF0000A7A
S214403C70DFF840B00C94DDE9088928E0AFF3008017
S214403C8061436F63A787D23FB3C8608B288AC63F1D
S214403C90FB799F501344D33F0000F07F35704000BF
S214403CA05C714000687140000000F83F9871400029
S214403CB0347040000000244002F0DAF9002200236D
S214403CC006460F4602F03CFC002840F0C1834246C0
S214403CD04B463046394602F0F5FA02F079FC044687
S214403CE002F060F942464B4602F0C2F902460B46E5
S214403CF03046394602F008F804F1300E049E05F8C6
S214403D0001EBA5EB060E0A9EB645CDE906015246E6
S214403D105B46D1D1A046DDF82C900C9C06460F465B
S214403D2032463B463046394601F0F0FF06460F46DF
S214403D3002460B46DDE9080102F00CFC48B9324663
S214403D403B46DDE9080102F0FBFBA8B118F0010F85
S214403D5012D015F8018C049A6B1E04E09A4200F0CB
S214403D60018413F8018DB8F1390F03F10105F5D040
S214403D7008F1010883F800804946204601F0ECF837
S214403D800022029B2A70269A01331360289B002B40
S214403D9000F09E8304981D601BB0BDE8F08F0B9A20
S214403DA0002A3ED0249A012A40F311830A9B0C9A9B
S214403DB05F1EBA42C0F28F83D71B0A9B002BC0F20D
S214403DC08B84089D0A9B089A1A440892069A0121F9
S214403DD01A442046069201F059F9064624E001238B
S214403DE00E93AFE6089A029BD21A5B420C930023CE
S214403DF008920D93B8E6C7F1010308930023069393
S214403E00A7E6029D284602F0CDF802460B46DDE9BD
S214403E10040102F095FB00287FF480AE6B1E0293EF
S214403E207CE60C9F089D0B9E002D0CDD0699002914
S214403E300B4608DDA942089AA8BF2B46D21AED1AAF
S214403E40CB1A089206930C9BD3B10B9B002B00F029
S214403E50B782002F10DD31463A46204601F0B2F9CF
S214403E604A4601460646204601F01AF9494680462B
S214403E70204601F071F8C1460C9BDA1B40F0A18247
S214403E800121204601F002F90D9B002B80461CDDE7
S214403E9001461A46204601F095F9249B012B8046A0
S214403EA040F3548200230C93D8F8103008EB830379
S214403EB0186901F09BF8C0F1200010E0C3F120051E
S214403EC00AFA05F074E60E903CE6249B012B40F37C
S214403ED0878200230C930D9B0120002BE4D1069A89
S214403EE0104410F01F0000F0A180C0F12003042B06
S214403EF040F39E84089BC0F11C000344089313467D
S214403F00034405440693089B002B05DD49461A46A4
S214403F10204601F0A7F98146069B002B05DD414669
S214403F201A46204601F09EF980460E9B002B40F034
S214403F3086800A9B002B40F366820B9B002B00F08A
S214403F409880002D05DD31462A46204601F08AF944
S214403F5006460C9B002B40F0378306960A9B049A35
S214403F60DDF818B0013BD3180B930AF001030C930D
S214403F701746C24651464846FFF7A4FC314605461A
S214403F80484601F0C1F95A460A905146204601F08B
S214403F90D7F9C268804605F13003002A40F02B82EC
S214403FA001464846089301F0AFF941460690204640
S214403FB000F0D2FF069A089B32B9249921B90C9A90
S214403FC0002A00F0EF83249A0A990029C0F29F82C3
S214403FD005D1249919B90C99002900F09882002A35
S214403FE000F306830B9A3B7007F10108974245465B
S214403FF000F00C83494600230A22204600F0B6FF14
S2144040005E45814631464FF000034FF00A02204697
S21440401000F0EB8100F0AAFF5946064600230A222C
S214404020204600F0A3FF47468346A3E71C20089B94
S21440403003440893069B03440544069363E74146BE
S214404040484601F061F90028BFF673AF029F494623
S21440405000230A222046013F029700F087FF0B9B71
S2144040608146002B40F0B6830F9B002B40F3BF8366
S2144040700A93DDF810B00A9F5D4602E000F076FF36
S214404080814641464846FFF71DFC00F1300A05F8D8
S21440409001ABA5EB0B03BB424FF00A024FF0000307
S2144040A049462046EADB049B0A9A012AACBF9B1885
S2144040B001331D464FF0000B49460122204601F0D1
S2144040C0D1F84146814601F01FF9002840F33D8271
S2144040D015F8012C04996B1E04E08B4200F0AE816B
S2144040E013F8012D392A03F10105F6D001321A7072
S2144040F04146204600F030FF002E3FF43DAEBBF177
S214404100000F05D0B34503D05946204600F024FFA3
S2144041103146204600F020FF2EE600230B93029BFC
S214404120259A13440F930133012B1F461E460A93CC
S214404130B8BF01270021172F61640AD90122042342
S2144041405B0003F114008742114602F10102F7D2E8
S2144041506164204600F0DAFE0E2E049020643FF69E
S21440416041AD002D3FF43EAD02990029CDE910AB9C
S21440417040F30282B84B01F00F020D1103EBC2036D
S214404180E906D3E9006740F1AE81B44B5046594644
S214404190D3E9082302F096F8CDE9120105F00F05A1
S2144041A04FF0030A8DB1DFF8B482EA0709D53046EE
S2144041B03946D8E9002301F05BFF0AF1010A0646BA
S2144041C00F466D1008F10808EFD13B463246DDE950
S2144041D0120102F077F8074688460E9B43B100224C
S2144041E09F4B3846414602F0B5F9002840F086829B
S2144041F0504601F0D7FE3A46434601F039FF994B08
S214404200002201F083FD0A9B0546A1F15076002B63
S21440421000F03E81029B15930A9B12930B9B002B4A
S21440422000F0FA81129A8C4B8F4903EBC20353E994
S2144042300223002002F046F82A46334601F064FD89
S21440424082468B463846414602F0C2F9054601F0A2
S214404250A9FE02460B463846414601F055FD30352C
S2144042605FFA85F8049D06460F4685F800800246AC
S2144042700B4650465946013502F08AF9002854D17B
S21440428032463B460020764901F03EFD02460B464C
S2144042905046594602F07CF9002840F07082129A47
S2144042A0012A00F01181129B049ACDF848901344DD
S2144042B099460DE000206A4901F026FD52465B46CD
S2144042C002F048F9002840F058824D4500F0FA8048
S2144042D0504659460022654B01F0CAFE0022634B09
S2144042E082468B463046394601F0C2FE0F460646A9
S2144042F002F06EF9804601F055FE02460B46304607
S214404300394601F001FD08F130085FFA88F8524658
S2144043105B4605F8018B06460F4602F01BF932460F
S2144043203B460028C6D0DDF84890159B029323E50F
S21440433000230B93259B002B40F3DC801F461E4634
S2144043400F930A93F6E601230B93F3E7BAF1000FB7
S2144043507FF4A8ADCBF31303002B7FF4BAAD2BF05C
S21440436000473F0D3F05002F00F00D82089B0133AC
S2144043700893069B0133069301230C93ABE50A9BF7
S214404380002B3FF742AC40F021820022384BDDE95B
S214404390080101F06DFE52465B4602F0EFF8DDF88C
S2144043A028804646002841D0259B049DDB43029347
S2144043B04146204600F0D0FD002E3FF4DDACA7E697
S2144043C00C9A4946204600F0FDFE814658E5149A70
S2144043D0002A00F0878103F233430C9F089DF2E4E5
S2144043E0BAF1000F7FF475ADB4E700F0BFFD474665
S2144043F006468346BEE501462046069300F0ACFDE1
S2144044000122069BE0E5249B022B7FF796AD0A9B94
S214404410002BC9D141460522204600F0A7FD0146A3
S2144044208046484600F070FF0028BDDD029A049999
S2144044303123013202920B704D1CB9E7029A0132C9
S2144044400292049A3123137052E601230B9366E6D8
S214404450DDF82C900C9C8FE4987140007071400001
S2144044600000F03F00001C400000E03F00002440F9
S21440447000001440504601F095FD3A46434601F090
S214404480F7FD0022C14B01F041FC0546A1F15076F4
S21440449041460022BE4B384601F036FC2A4633469B
S2144044A082468B4602F074F88046002840F0108121
S2144044B02A4606F100435046594602F04BF818B1DA
S2144044C0464671E7DDF84890DDE910ABFFF78ABB5A
S2144044D00498FFF7BBBA0C9B0D9A0C97FB1A1A442C
S2144044E00D92002769E4DDE910234FF0020ACDE97A
S2144044F0122357E60021012361642046259300F0ED
S21440450005FD259B049020640A930F9329E6002A14
S214404510D046CDF818B09A4611DD494601222046CD
S21440452000F0A0FE4146814600F0EEFE002840F333
S2144045304681BAF1390F00F0068105F1310AB346DB
S21440454087F800A07D1C069ED2E504D11AF0010F24
S21440455001D0BDE5154615F8013C302B05F1FF327C
S214404560F8D0C5E5049930220A70029A15F8018CF5
S21440457001320292FFF7FCBB00F0BB80029B5D421B
S214404580844B05F00F0203EBC203D3E90023DDE9B9
S214404590100101F06DFD2D110746884600F02C8174
S2144045A07D4E4FF0020AEB0709D538464146D6E91C
S2144045B0002301F05DFD0AF1010A074688466D10AA
S2144045C006F10806EFD108E67168204600F09EFC2A
S2144045D0336902339A00054606F10C010C3000F0B0
S2144045E0EFFB29460122204600F03CFE0690B5E44B
S2144045F0392BCDF818B0D04600F0A58003F1010A5B
S214404600B34687F800A07D1C069E71E55A46D04604
S214404610B3469A4616464FE5129B5E4901EBC301E8
S2144046202A46334651E9020101F022FDCDE9160142
S2144046303846414601F0CCFF054601F0B3FC0B4638
S21440464002464146384601F05FFB129B0F460499EE
S2144046503035012B0D70064601F1010526D0129B20
S214404660049ADFF83CB1CDF8489013444FF0000A66
S214404670994652465B463046394601F0F9FC0F46AD
S214404680064601F0A5FF804601F08CFC08F1300894
S21440469002460B463046394601F036FB05F8018B9C
S2144046A04D4506460F46E4D1DDF848903B4B002288
S2144046B0DDE9160101F02AFB32463B4601F04AFF8F
S2144046C0002846D0159B029315F8018CFFF743BB94
S2144046D04FF000084646A9E6089B0A9A9D1A002312
S2144046E0FFF771BB189B0C9F089DC3F13603FFF77D
S2144046F06ABBDDE910784FF0020A6EE50A9B002B94
S2144047003FF4B8AE0F9B002B7FF7DEAE0022244B63
S2144047103846414601F0ACFC074688460AF101009F
S21440472001F040FC3A46434601F0A2FC0022174BFB
S21440473001F0ECFA029A0F9B1293013A0546A1F15A
S214404740507615926AE53922B3463A70069E7D1C2D
S214404750C0E4DDE916230020104901F0D5FA3246C0
S2144047603B4601F015FF08B9AEE6154615F8013C84
S214404770302B05F1FF32F8D0D7E5DDF84890159B91
S2144047800293FFF7E8BA0C97FFF7A5BB00001C4062
S2144047900000144098714000707140000000E03FF7
S2144047A000002440392BCDF818B0D046DDF828B0AC
S2144047B09A46C8D0BBF1000F3FF7BFAEBFE67FF4C6
S2144047C0BEAE1AF0010F3FF4BAAEB2E64FF00008A4
S2144047D04646E9E5314600230A22204600F0C6FB5D
S2144047E00F9B002B06460ADD0A93FFF7AABB249BC5
S2144047F0022B23DC0F9B3BE44FF0020AEDE4249BA4
S214404800022B1BDC0F9BEFE70025656429462046FC
S21440481000F07CFB4FF0FF330A930F930123049084
S214404820259520640B93FFF7DDB90125FFF7A5B961
S2144048303FF469ABC0F13C00FFF7F9BB0F9B0A930E
S214404840E5E500BF044A054B1268506B002808BFD8
S2144048501846F030704700BF0000002034040020A7
S2144048602DE9F04F01F10B06162E83B0054640F2B7
S2144048709E8036F0070600F1BD80B14200F2BA8055
S21440488000F038FBB6F5FC7FC0F09382730A00F068
S214404890B880042B00F27981B30903F1390003F1A3
S2144048A0380EC300BF4F3B44A3F108015C68A142E9
S2144048B006D10CE0002A80F2AA80E468A14206D025
S2144048C0636823F003039A1B0F2AF3DD70463C69A6
S2144048D0DFF8E4E2744500F0AB81636823F003033D
S2144048E09A1B0F2A00F39081002AC7F814E0C7F8F5
S2144048F010E080F29D80B3F5007F80F06181DB0898
S21440490003F1010C99107A6857F83C80C4F8088087
S21440491001238B4007EBCC0113430839E1607B60F1
S21440492047F83C40C8F80C408210012494409C4212
S21440493000F28B801C4206D120F0030064001C422B
S21440494000F10400FAD007EBC009CC468046DCF8FC
S2144049500C309C4507D16DE1002A80F27B81DB68F4
S2144049609C4500F06781596821F003018A1B0F2A95
S214404970F2DDD3F80CC0D3F8088000939C19284683
S21440498046F0010642F001055E60C8F80CC0CCF85F
S21440499008807C613C61C4F80CE0C4F808E06560BF
S2144049A05A5000F0ADFA009B03F108041EE01029AF
S2144049B020D800F09FFA102618230220794F3B4457
S2144049C0A3F108025C68944200F03D816368E168A8
S2144049D0A66823F00303234428465A68F16042F051
S2144049E001028E605A6000F08BFA0834204603B00D
S2144049F0BDE8F08F00240C2320462B6003B0BDE8B2
S214404A00F08F40204FF400734FF03F0E4AE72344A8
S214404A10E1685A68A66842F00102F16028468E6056
S214404A205A6000F06DFA0834204603B0BDE8F08FB7
S214404A30234428465A6842F001025A6000F060FA61
S214404A400834204603B0BDE8F08FBC68636823F0A6
S214404A500308B04504D3A8EB06030F2B00F385806C
S214404A60DFF85891504BD9F800201B680132334488
S214404A7004EB080A00F0558103F580530F3323F406
S214404A807F6B2BF00F0B5946284600F039FD411C32
S214404A90024600F0FC80824500F2F780434B1968DE
S214404AA05944196000F04D81D9F8000001301BBF11
S214404AB0A2EB0A0A5144C9F80020196012F0070117
S214404AC000F01581C1F10800C1F58051024408315B
S214404AD002EB0B09C9F30B09A1EB09094946284625
S214404AE00193009200F00CFD431C9DE80C0000F082
S214404AF04381801A484440F001001968BA6049442E
S214404B00BC425060196017D0B8F10F0F40F2FB80DE
S214404B106068A8F10C0222F0070204EB020E00F0D7
S214404B2001004FF0050C10430F2A6060CEF804C019
S214404B30CEF808C000F217811D4BBC681A68914237
S214404B4088BF19601B4B1A689142626888BF19601B
S214404B5022F003029642A2EB060301D80F2B04DC98
S214404B60284600F0CDF9002440E7A21943F001039F
S214404B7046F0010666602846BA60536000F0C0F909
S214404B800834204603B0BDE8F08F142B71D9542B5F
S214404B9000F2A380330B03F16F0003F16E0EC300E7
S214404BA080E600BFA0050020400A0020100A002032
S214404BB0380A00203C0A0020A8050020A80900204A
S214404BC05A0A042A5BD9142A00F2AE8002F15C012C
S214404BD0C9005B3207EB010C7958ACF1080C8C45E8
S214404BE000F088804A6822F00302934273D28968B4
S214404BF08C45F7D1DCF80C207B68E260C4F808C02E
S214404C009460CCF80C408FE6A11946F0010C42F0B7
S214404C100106C4F804C0284679613961C1F80CE041
S214404C20C1F808E04E60E25000F06AF90834DDE66C
S214404C307B6879E608F1010818F0030F0CF1080CC0
S214404C407FF485AE2DE0DC68A34208BF02303FF417
S214404C503EAEBBE619441C464A68DB6854F8086F0B
S214404C6042F001024A602846F3609E6000F048F930
S214404C70BCE603F15C0003F15B0EC30012E69A0942
S214404C8002F13901C9003832A4E7BC4254D0BC68AE
S214404C90626822F003025DE759F80839994540F00A
S214404CA0868010F0030F00F1FF30F5D17B6823EAD1
S214404CB004037B6064009C423FF6C7AE002C3FF482
S214404CC0C4AE1C4240467FF43EAE64001C4200F137
S214404CD00400FAD037E68C468CE7B3F5AA7F15D8A1
S214404CE0F30B03F1780003F1770EC300DAE54FF4D7
S214404CF08051EDE67B689210012101FA02F21343DF
S214404D007B60624679E70123536029E740F25452BC
S214404D10934222D8B30C03F17D0003F17C0EC3000E
S214404D20C0E503F1100BAEE6542A29D81A0B02F15F
S214404D306F01C9006E324DE7204B1968594419601F
S214404D40B2E6CAF30B0000287FF4AEAE08EB0B03C6
S214404D50BA6843F001035360EEE67F204FF47E735B
S214404D604FF07E0E9EE504F108012846009300F0C1
S214404D70D7FC009B1968DFE601204FF00009BCE62F
S214404D80B2F5AA7F05D8DA0B02F17801C90077326E
S214404D9020E740F254518A4205D89A0C02F17D0130
S214404DA0C9007C3216E74FF47E717E2212E77B689C
S214404DB080E7F00806F1080300E600BF100A00206E
S214404DC0844641EA000313F003036DD1403A41D3D1
S214404DD051F8043B40F8043B51F8043B40F8043B90
S214404DE051F8043B40F8043B51F8043B40F8043B80
S214404DF051F8043B40F8043B51F8043B40F8043B70
S214404E0051F8043B40F8043B51F8043B40F8043B5F
S214404E1051F8043B40F8043B51F8043B40F8043B4F
S214404E2051F8043B40F8043B51F8043B40F8043B3F
S214404E3051F8043B40F8043B51F8043B40F8043B2F
S214404E4051F8043B40F8043B51F8043B40F8043B1F
S214404E50403ABDD2303211D351F8043B40F8043BBF
S214404E6051F8043B40F8043B51F8043B40F8043BFF
S214404E7051F8043B40F8043B103AEDD20C3205D3CF
S214404E8051F8043B40F8043B043AF9D2043208D0C7
S214404E90D2071CBF11F8013B00F8013B01D30B8839
S214404EA003806046704700BF082A13D38B078DD017
S214404EB010F003038AD0C3F10403D21ADB071CBFE9
S214404EC011F8013B00F8013B80D331F8023B20F853
S214404ED0023B7BE7043AD9D3013A11F8013B00F88C
S214404EE0013BF9D20B7803704B7843708B78837014
S214404EF0604670470148FDF733B900BF180C0020E4
S214404F000148FDF72FB900BF180C0020C36C70B5E0
S214404F1005460C464BB153F8240080B1026843F86E
S214404F20242000230361C36070BD2122042100F0C9
S214404F3077FBE86403460028EDD1002070BD0121D0
S214404F4001FA04F6721D2846920000F069FB00281C
S214404F50F3D044608660E4E731B1C36C4A6853F8E6
S214404F602200086043F82210704700BFF0B50C6975
S214404F7083B00D46064601F1140E0027DEF8000009
S214404F8081B202FB0133010C180C02FB01019BB2FB
S214404F90013703EB0143BC424EF8043B4FEA114352
S214404FA0ECDC3BB1AA68944207DA05EB8402013494
S214404FB053612C61284603B0F0BD69680193013106
S214404FC03046FFF7A3FF2A69023205F10C01074677
S214404FD092000C30FFF7F4FEF26C6968019B52F8C1
S214404FE02100286042F821503D46DEE7020C1204BC
S214404FF00346B2B90304102013F07F4F04BF1B02D0
S214405000083013F0704F04BF1B01043013F0404FBC
S21440501004BF9B000230002B02DB5B0003D4202041
S21440502070470020E8E70130704700BF036813F080
S2144050300702014607D0DA0721D4980721D49B08F7
S2144050400B600220704798B298B1104613F0FF0FDD
S21440505004BF1B0A08301A0704BF1B0904309A070E
S21440506004BF9B080230DA0707D45B0804D120202F
S21440507070471B0C1020E9E701300B60704700209A
S21440508070475B080B600120704700BF10B50C46A8
S2144050900121FFF73BFF01224461026110BD00BFC2
S2144050A02DE9F04F0C691569AC4283B08B46164625
S2144050B004DA2246B3462C460E461546DBF8083040
S2144050C0DBF8041004EB05089845C8BF0131FFF72C
S2144050D01DFF00F1140909EB880AD145009005D25E
S2144050E04B46002143F8041B9A45FBD806F1140CA6
S2144050F00CEB85030BF1140B9C450BEB840E4CD24A
S214405100CDF804A09A46DCF80050AFB2EFB10021CB
S2144051104D465E460C4656F8042B286893B281B23C
S21440512007FB0313120C010C234407FB021101EB8F
S21440513013419BB243EA0143B64545F8043B4FEA68
S2144051401144E8D82C60DCF800502D0C1DD0D9F85E
S214405150003048461C46594600220E88240C05FB63
S214405160064422449BB243EA024340F8043B51F8CB
S214405170043B04681B0CA6B205FB036303EB124317
S2144051808E454FEA1342E8D803600CF1040CE24522
S21440519009F10409B7D8DDF804A0B8F1000F0BDD1B
S2144051A05AF8043CAAF1040A1BB105E05AF8043D3B
S2144051B013B9B8F10108F9D10098C0F8108003B0CF
S2144051C0BDE8F08F12F003032DE9F0411446074680
S2144051D02ED10D46A4101CD0BE6C96B3E3074FF0FC
S2144051E0000806D4641014D03068A8B10646E30719
S2144051F0F8D5324629463846FFF752FFB5B16A68B9
S214405200FB6C641053F82210296043F82250054680
S214405210EAD12846BDE8F081324631463846FFF7A7
S2144052203FFF3060C0F800800646E0E70546D9E715
S2144052305A1E0B4D002355F82220FFF797FE0546D1
S214405240C8E701213846FFF761FE40F2712101228E
S2144052500023416102610646B8640360BEE700BFB2
S214405260607240002DE9F84391460A698B684FEA20
S214405270691404EB020808F101059D420E460746F4
S214405280496804DD5B009D4201F10101FADC3846C5
S214405290FFF73CFE002C00F1140306DD03EB84020E
S2144052A0002143F8041B9A42FBD1346906F11401ED
S2144052B019F01F0901EB840E1DD0C9F1200C002205
S2144052C00C6804FA09F4144343F8044B51F8042BD1
S2144052D08E4522FA0CF2F3D81A600AB108F102059C
S2144052E0FB6C7268013D53F822100561316043F84B
S2144052F02260BDE8F883043B51F8042B43F8042FA2
S2144053008E45F9D8ECE700BF30B40B690546006916
S214405310C01A0FD19B001435143119442B4401E0B8
S2144053209D4207D253F8044D51F8042D9442F7D0CD
S21440533002D3012030BC70474FF0FF30FAE700BF81
S2144053402DE9F0410F690E4611697F1A002F9046ED
S21440535017D1890006F1140502F1140E6B1871443A
S21440536001E09D425CD253F8042D51F8044DA24210
S214405370F7D05ED233462C464646754698460127B9
S21440538005E058DB06F1140508F11404002771689F
S214405390FFF7BCFDD8F810303669C76004EB830CC5
S2144053A0A64605EB860700F1140400235EF8041BAE
S2144053B055F8048B8AB213FA88F3090C9A1AC1EB93
S2144053C0184303EB224392B242EA0342F44544F8C0
S2144053D0042B4FEA2343E9D8AF4217D9A446AE463A
S2144053E05EF8042B13FA82F3191401EB12419BB2B8
S2144053F043EA014277454CF8042B4FEA2143EFD865
S214405400ED432F4427F0030704373C44043C22B9BD
S21440541054F8043D013E002BFAD00661BDE8F08109
S2144054200021FFF773FD0122002302614361BDE8BE
S214405430F0817446ABE7334606F1140402F11405D6
S214405440164601279846A2E72DE9F04182B0012191
S2144054501C46C3F30A571546089EFFF757FDC4F38C
S214405460130480460FB144F4801401941DB302A87F
S21440547040F8085DFFF7DAFD002834D19DE80C00BF
S214405480C8F81420002B0CBF01210221C8F81830A0
S214405490C8F81010DFB908EB8103A0F23240306044
S2144054A01869FFF7A3FD099BC0EB41101860404602
S2144054B002B0BDE8F08101A8FFF7B8FD019BC8F82F
S2144054C0143001212030C8F81010002FE3D0099B7B
S2144054D0A7F233470744C0F13500376018604046AE
S2144054E002B0BDE8F0819DE80A00C0F1200203FA50
S2144054F002F20A43C3400193C8F81420C2E700BF33
S21440550038B5074C002305460846236001F010FADC
S214405510431C00D038BD2368002BFBD02B6038BD21
S2144055202C0C00202DE9F04F936883B09046002B5A
S21440553070D082460C4617688D68086842E0A3899A
S21440554013F4906F2ED06569216905EB4505A0EBF5
S214405550010B05EBD5750BF101006D103044A842E8
S2144055602A4684BF05462A465B0538D5114650462E
S214405570FFF776F900283CD05A4621690190FFF79C
S2144055801FFCA289019B22F4906242F08002A28115
S214405590A5EB0B0203EB0B00656123612060A26064
S2144055A03546B3465A46494600F0A0F9D8F8083082
S2144055B0A2682068551B58449E1BA5602060C8F80A
S2144055C008603EB37E683B460837002EFAD0AE42AF
S2144055D0D3F80090AB46B2D23546B346E2E75046E3
S2144055E000F0E8F903460028D2D12169504600F081
S2144055F097F80C23CAF80030A389002243F04003F2
S2144056004FF0FF30A381C8F80820C8F8042003B044
S214405610BDE8F08F0020C8F8040003B0BDE8F08F66
S21440562010B502FB01F1FFF71BF90446D8B150F85C
S214405630042C22F00302043A242A18D8132A14D938
S21440564000231B2A0360436016D9242A8360C36064
S21440565011BF00F110020361436100F118020023FC
S214405660136053609360204610BD0246F7E7002162
S214405670FBF7E6FF204610BD00F10802EFE700BF4B
S214405680F8B5244F0C460646FFF734FCBB685D6809
S214405690C4F57E610F3125F00305294421F47F616E
S2144056A021F00F01A1F58054B4F5805F07DB00219F
S2144056B03046FFF725FFBB682B44984204D030465F
S2144056C0FFF71EFC0020F8BD61423046FFF718FF8A
S2144056D001300DD0104BBA6819682D1B45F00105F6
S2144056E03046091B55601960FFF70AFC0120F8BDDB
S2144056F000213046FFF704FFBA68831A0F2BDEDD21
S214405700064C0549246843F00103001B53600860BB
S214405710D5E700BFA0050020100A0020A8090020F9
S214405720002944D02DE9F0410D468046FFF7E2FBC4
S21440573055F8047C694927F00103A5F10804E218EE
S2144057408E685068B24220F003005ED0FE0750607C
S2144057500BD455F8087CE41B01F1080EA568754586
S2144057603B446DD0E768EF60BD6015186D68ED0787
S2144057703ED543F001026260E350B3F5007F17D296
S214405780DB08581C9A104D6851F83070A76001230A
S214405790934001EBC0022B43083AE2604B6041F86D
S2144057A03040FC604046BDE8F041FFF7A9BB70477B
S2144057B05A0A042A52D89A0902F13907FF0002F120
S2144057C03805C819CA59083890424FD0516821F058
S2144057D003018B4232D292689042F7D1C368A060F0
S2144057E0E3609C60C4604046BDE8F041FFF788BB7C
S2144057F095683B4FBD42034440D0D068E86043F0D4
S214405800010285606260E350B7E7FF07034407D4B0
S21440581055F8082CA41A1344A068E268C260906049
S214405820304A126843F00100934260608C60B9D3FE
S2144058302D4B40461968FFF723FFB3E71046CDE7E8
S21440584011184968C90744D49168D268CA600344AD
S21440585043F0010091606060E350A3E7142A16D835
S21440586002F15C07FF0002F15B05AAE7AA100123DC
S2144058704D6893402B434B600346B0E743F001022C
S2144058804C610C61E560A5606260E3508AE7542A8B
S21440589006D81A0B02F16F07FF0002F16E0590E77B
S2144058A0B2F5AA7F06D8DA0B02F17807FF0002F1BC
S2144058B0770586E740F25450824206D89A0C02F1A9
S2144058C07D07FF0002F17C057BE74FF47E777E255F
