:020000040800F2
:1000000000000120095000083116000841160008C0
:1000100055160008691600087D160008000000004B
:100020000000000000000000000000008D16000825
:100030009D16000800000000AD160008BD1600085F
:1000400059500008595000085950000859500008EC
:1000500059500008595000085950000859500008DC
:1000600059500008595000085950000859500008CC
:1000700059500008595000085950000859500008BC
:1000800059500008595000085950000859500008AC
:10009000595000085950000859500008595000089C
:1000A000595000085950000859500008595000088C
:1000B00059500008000000000000000059500008DE
:1000C00059500008000000000000000059500008CE
:1000D00000000000D1160008F11600080000000022
:1000E00059500008595000080000000000000000AE
:1000F0000000000000000000000000000000000000
:10010000000000000000000000000000595000083E
:10011000000000000000000059500008595000087D
:10012000595000085950000859500008595000080B
:10013000595000080000000000000000000000000E
:1001400059500008595000085950000859500008EB
:1001500059500008595000085950000859500008DB
:10016000595000085950000859500008000000007C
:10017000595000085950000800000000000000001D
:10018000595000085950000859500008000000005C
:1001900010B5054C237833B9044B13B10448AFF3C1
:1001A00000800123237010BD7000002000000000BB
:1001B000505A000808B5034B1BB103490348AFF37D
:1001C000008008BD0000000074000020505A0008A4
:1001D00010F8012B11F8013B012A28BF9A42F7D0F1
:1001E000D01A7047034613F8012B002AFBD1181AC6
:1001F000013870470000000000000000000000000F
:1002000001F0FF01102A2BDB10F0070F08D010F8C7
:10021000013B013A8B422DD010F0070F42B3F6D1CB
:10022000F0B441EA012141EA014122F007047FF0E4
:1002300000070023F0E80256083C85EA010586EA3B
:10024000010685FA47F5A3FA87F586FA47F6A5FA77
:1002500087F68EB9EED1F0BC01F0FF0102F0070283
:1002600032B110F8013B013A83EA010313B1F8D12E
:100270000020704701387047002D06BF354603380F
:10028000073815F0010F07D1013015F4807F02BF48
:10029000013015F4C03F0130F0BC0138704700BF99
:1002A00053B94AB9002908BF00281CBF4FF0FF31DD
:1002B0004FF0FF3000F074B9ADF1080C6DE904CED9
:1002C00000F006F8DDF804E0DDE9022304B0704731
:1002D0002DE9F047089D04468E46002B4DD18A42F9
:1002E000944669D9B2FA82F252B101FA02F3C2F12C
:1002F000200120FA01F10CFA02FC41EA030E9440BD
:100300004FEA1C48210CBEFBF8F61FFA8CF708FBDD
:1003100016E341EA034306FB07F199420AD91CEBB5
:10032000030306F1FF3080F01F81994240F21C81E7
:10033000023E63445B1AA4B2B3FBF8F008FB10332F
:1003400044EA034400FB07F7A7420AD91CEB040464
:1003500000F1FF3380F00A81A74240F20781644434
:10036000023840EA0640E41B00261DB1D4400023B9
:10037000C5E900433146BDE8F0878B4209D9002D1D
:1003800000F0EF800026C5E9000130463146BDE8A7
:10039000F087B3FA83F6002E4AD18B4202D3824211
:1003A00000F2F980841A61EB030301209E46002DC0
:1003B000E0D0C5E9004EDDE702B9FFDEB2FA82F215
:1003C000002A40F09280A1EB0C014FEA1C471FFA73
:1003D0008CFE0126200CB1FBF7F307FB131140EA5A
:1003E00001410EFB03F0884208D91CEB010103F127
:1003F000FF3802D2884200F2CB804346091AA4B2E9
:10040000B1FBF7F007FB101144EA01440EFB00FEBC
:10041000A64508D91CEB040400F1FF3102D2A64521
:1004200000F2BB800846A4EB0E0440EA03409CE7C0
:10043000C6F12007B34022FA07FC4CEA030C20FA6D
:1004400007F401FA06F31C43F9404FEA1C4900FA8D
:1004500006F3B1FBF9F8200C1FFA8CFE09FB18110A
:1004600040EA014108FB0EF0884202FA06F20BD97D
:100470001CEB010108F1FF3A80F08880884240F2CD
:100480008580A8F102086144091AA4B2B1FBF9F011
:1004900009FB101144EA014100FB0EFE8E4508D90C
:1004A0001CEB010100F1FF346CD28E456AD9023891
:1004B000614440EA0840A0FB0294A1EB0E01A14276
:1004C000C846A64656D353D05DB1B3EB080261EBE4
:1004D0000E0101FA07F722FA06F3F1401F43C5E9BE
:1004E000007100263146BDE8F087C2F12003D840F4
:1004F0000CFA02FC21FA03F3914001434FEA1C4736
:100500001FFA8CFEB3FBF7F007FB10360B0C43EA27
:10051000064300FB0EF69E4204FA02F408D91CEBD7
:10052000030300F1FF382FD29E422DD902386344D5
:100530009B1B89B2B3FBF7F607FB163341EA034175
:1005400006FB0EF38B4208D91CEB010106F1FF38C4
:1005500016D28B4214D9023E6144C91A46EA0046BB
:1005600038E72E46284605E70646E3E61846F8E64D
:100570004B45A9D2B9EB020864EB0C0E0138A3E796
:100580004646EAE7204694E74046D1E7D0467BE777
:10059000023B614432E7304609E76444023842E7EF
:1005A000704700BF40F2E3307047000000B585B0EF
:1005B0008DF80C00C1F307238DF80D308DF80E1067
:1005C00064230093032303AA9021034802F084F9D3
:1005D00005B05DF804FB00BFEC030020F0B585B06A
:1005E0000D468DF80C0000238DF80D300F4E64275A
:1005F0000097012303AA9021304602F06DF90446CA
:100600000097022303AA9021304602F023FA2043E8
:100610009DF80C204FF0000362F30F239DF80D208E
:1006200062F307032B80C0B205B0F0BDEC030020DD
:1006300008B501460020FFF7D1FFC0B208BD10B5D4
:100640000446FFF7AFFF6FEA40416FEA514189B2BC
:10065000240304F4E04421430120FFF7A7FF10BD69
:1006600000B583B00023ADF806300DF1060101207E
:10067000FFF7B4FF10F0FF0F07D1BDF90630002BD4
:1006800008DB012003B05DF804FB034800F040F9EB
:100690000120F7E70020F5E7685A00080388C3EB5C
:1006A000431003EB8000704700B585B08DF80C0057
:1006B000C1F307238DF80D30CBB28DF80E300A0A46
:1006C0000146074800F024F964230093032303AA9A
:1006D0009221044802F000F905B05DF804FB00BF68
:1006E000885A0008EC03002000B585B000238DF87F
:1006F0000C308DF80D1064230093022303AA4100EF
:10070000024802F0E9F805B05DF804FBEC030020B4
:1007100001280CDD08B5486804F09FFC10F0FF0FBD
:1007200014BF01220022034B1A72002008BD0120D1
:10073000704700BF4C03002001280CDD08B5486855
:1007400004F08BFC10F0FF0F14BF01220022034BBA
:100750005A72002008BD0120704700BF4C030020E2
:1007600010B586B0134B9C8A0522694603A800F099
:10077000BDFC012103A800F0CCFC032103A800F07C
:10078000C8FC022103A800F0C4FC210A03A800F061
:10079000C0FCE1B203A800F0BCFC03A800F0D0FC50
:1007A00003A800F093FA03A800F0A6FC002006B00E
:1007B00010BD00BF4C03002008B52B4A2B4B136023
:1007C0002B4B93602B4B53602B4BD3602B4A1A60FF
:1007D0002B4A9A602B4A5A602B4ADA602B4B1360E3
:1007E0002B4B93602B4B53602B4BD3602B4A1A60DF
:1007F0002B4A9A602B4A5A602B4ADA602B4B1360C3
:100800002B4B93602B4B53602B4BD3602B4A1A60BE
:100810002B4A9A602B4A5A602B4ADA602B4B1360A2
:100820002B4B93602B4B53602B4BD3602B4A1A609E
:100830002B4A9A602B4A5A602B4ADA602B4B136082
:100840002B4B93602B4B53602B4BD3602B4A1A607E
:100850002B4A9A602B4A5A600022DA602A4AFF210A
:100860002A4800F0DDFB08BDCC010020A05A00089A
:10087000A85A00089D090008BC010020C85A0008B9
:10088000D05A0008B909000814020020E05A0008F4
:10089000E85A0008E5090008DC010020F85A0008C1
:1008A000005B00081107000824020020105B00080C
:1008B000185B00083907000804020020445B0008A8
:1008C000285B0008250A00089C000020345B000813
:1008D0003C5B0008890A00088C0000204C5B000883
:1008E000545B0008C50A0008AC010020645B0008E6
:1008F0006C5B0008410B0008EC010020785B0008ED
:10090000805B000861070008AC000020FC010020AB
:100910000FB430B5C3B046AC54F8045BFF220021DD
:1009200002A804F0C3FB01942246294602A804F061
:1009300067FC02A8FFF756FC0A2382B202A9054809
:1009400004F05EFA012001F081FD43B0BDE83040C3
:1009500004B070473804002008B50D4B5A780A21BE
:10096000586800F076FB002800DC08BD2022094909
:10097000074B586800F086FBB0F1FF3F03D00448F6
:1009800000F042FBF1E70448FFF7C2FFF7E700BFC2
:10099000FC010020CC010020905B000808B5044851
:1009A000FFF7B6FF01210348FFF7B2FF002008BDA3
:1009B000A45B0008B45B000810B50748FFF7A8FF68
:1009C000064C05E0A26821680548FFF7A1FFE4682E
:1009D000002CF7D1002010BDCC5B0008CC0100201A
:1009E000E45B0008012816DD08B5486804F035FB13
:1009F00010F0FF0003D0062806D0002008BD0748ED
:100A0000FFF786FF0020F9E70548FFF781FF03F0B5
:100A100067FD0020F2E70120704700BFF05B00088F
:100A2000045C000810B5104C21681048FFF770FFF7
:100A300061680F48FFF76CFF637A8BB10D490E4870
:100A4000FFF766FF084B1B7A63B10A490B48FFF7B3
:100A50005FFF054B59890A48FFF75AFF002010BD78
:100A60000849ECE70749F1E74C0300201C5C00084B
:100A7000385C0008185C0008545C0008605C0008E2
:100A80006C5C0008145C000838B50B4C204630F84C
:100A9000145FFFF703FE024629460848FFF738FFB8
:100AA000204630F8164FFFF7F9FD0246214604486C
:100AB000FFF72EFF002038BD4C0300208C5C00089F
:100AC000B85C0008012835DD38B5486804F0C5FA7F
:100AD00085B241F210010520FFF7E6FD0146164CF4
:100AE0002046FFF715FF00210320FFF7DDFD01463B
:100AF0002046FFF70DFF4FF440710220FFF7D4FDB1
:100B000001462046FFF704FF29460920FFF7CCFDE8
:100B100001462046FFF7FCFE08210520FFF7C4FD33
:100B200001462046FFF7F4FE29460448FFF7F0FE91
:100B3000002038BD01207047E45C0008EC5C000830
:100B4000022801DC0120704710B50C46886804F0CB
:100B500084FA80B263681B78412B0CD0422B11D0F1
:100B60000C4C218A0C48FFF7D3FE618A0B48FFF733
:100B7000CFFE002010BD074B1882C1B22E20FFF718
:100B8000B3FDEDE7034B5882C1B23E20FFF7ACFD49
:100B9000E6E700BF4C030020005D0008105D000880
:100BA00072B6FEE700B5ADB0442200211BA804F0E8
:100BB0007DFA002116911791189119911A915422DA
:100BC00001A804F073FA10231B93012221926023E1
:100BD00023930223259326922792282228920722E4
:100BE00029922A932B931BA802F024F900282FD1D5
:100BF0000F231693032317930023189319931A9323
:100C0000042116A802F02CFD20BB44F243030193FB
:100C1000002309930A930C934FF0805313930123FD
:100C2000029303931023049307230593022306934F
:100C300007934FF08073089301A802F055FF58B94D
:100C40004FF4007003F07AFB40B92DB05DF804FB5F
:100C5000FFF7A6FFFFF7A4FFFFF7A2FFFFF7A0FF34
:100C600008B501F0D1FBFFF79DFF00F03DFB00F060
:100C70001BFC00F0B7FB00F041FC00F0C1FA00F0F3
:100C800005F9054B1B78092BFBD900F079F9024BCC
:100C900000221A70F5E700BF340200207047000000
:100CA00010B5002202214FF0904003F0C1FA054C2C
:100CB000FF220549204600F019FA204600F01CFAF0
:100CC00010BD00BF380200204802002030B5C1B07E
:100CD0000546002407E06B68195D0DF804101D48F7
:100CE000FFF716FE01342B78A342F4DC29891A4859
:100CF000FFF70EFE631C2A7A0DF804206A7A0DF8BD
:100D000003200124154B1C70224602214FF0904015
:100D100003F08EFA204601F099FB00240AE06423D8
:100D200001220DEB04010E4804F06AF8012001F0E5
:100D30008DFB01342B780133A342F0DA002202212B
:100D40004FF0904003F074FA044B00221A7041B047
:100D500030BD00BF205D0008285D0008440200206F
:100D6000BC040020444B1B78012B00D0704710B509
:100D700088B0424800F007FA012809D03F4B1A78A2
:100D80005B789A4270D23C4B00221A7008B010BDBA
:100D90003A4B5B681A78012A03D0384800F0ACF966
:100DA000ECE75A78032AF8D19A7812B9D978012950
:100DB00029D0002AF1D1DB78022BEED1304B9C8A6E
:100DC000052203A9684600F091F90121684600F068
:100DD000A0F90321684600F09CF90221684600F062
:100DE00098F9210A684600F094F9E1B2684600F0EB
:100DF00090F9684600F0A4F96846FFF767FF684677
:100E000000F07AF9C9E71F48FFF748FC04460722BB
:100E100003A9684600F06AF90121684600F079F9F3
:100E20000321684600F075F90221684600F071F967
:100E3000210E684600F06DF9C4F30741684600F0E2
:100E400068F9C4F30721684600F063F9E1B2684627
:100E500000F05FF9684600F073F96846FFF736FF67
:100E6000684600F049F998E7044800F045F906485B
:100E7000FFF74EFD87E700BF350200203802002053
:100E80004C03002060030020305D000808B5FFF728
:100E900093FC0C48FFF73CFDFFF702FF0A48FFF701
:100EA00037FD012210214FF0904003F0C1F90022DC
:100EB00020214FF0904003F0BBF90448FFF728FDD4
:100EC00008BD00BF405D0008505D0008605D00087F
:100ED000054A13780133DBB213700F2B00D0704733
:100EE000134600221A70FAE74903002008B5074AA2
:100EF00013780133DBB213700A2B00D008BDFFF763
:100F0000E7FF024B00221A70F8E700BF47030020FA
:100F100008B540214FF0904003F0A4F908BD00004F
:100F200000B583B00023ADF806300420FFF787FB3F
:100F3000FFF796FB0028FBD10DF10600FFF778FBC9
:100F40000A4BBDF806209A820520FFF778FBFFF7D1
:100F500087FB0028FBD10DF10600FFF769FB034B6F
:100F6000BDF80620DA8203B05DF804FB4C030020D4
:100F700008B5024620214FF0904003F059F908BD12
:100F800008B5114A1378591C1170043B062B0CD874
:100F9000DFE803F00C100B0B13160400FFF7A6FF9D
:100FA000FFF7B6FF084B00221A7008BD0120FFF7BB
:100FB000DFFFFAE7FFF7B4FFF7E7FFF7D3FEF4E749
:100FC000FFF7CAFCF1E700BF48030020024688B1E2
:100FD000C378012B0FD053780133917893FBF1F054
:100FE00001FB1033DBB2537011788B4214BF002326
:100FF0000123D370704703780133817893FBF1F0BC
:1010000001FB10331370E6E748B108B50021017009
:101010004170C1708278406804F048F808BD70479C
:1010200028B108B542608170FFF7EEFF08BD704738
:1010300010B560B10346C47814B10124204610BD38
:1010400040685A7881541846FFF7C0FFF6E701243C
:10105000F4E703460020904211DA00B503EB000EDE
:1010600013F800C08C4505D001309042F6DB4FF0FC
:10107000FF3002E000238EF800305DF804FB4FF0F3
:10108000FF30704770B50C460121002603E00023B5
:1010900003700121013003785BB19342F7D000293E
:1010A000F8D0072E1DD8104B43F82600013600213A
:1010B000F0E71EB94FF0FF3012E0E46874B1256824
:1010C0002946094B1868FFF783F80028F5D1002D51
:1010D000F3D0636804493046984701E04FF0FF3091
:1010E00070BD6FF00100FBE7640300200023037074
:1010F0004270416003817047002303E04268002191
:10110000D154013342789A42F8DC00230370038102
:10111000704703784278934205D2426803F1010C8C
:1011200080F800C0D154704703780BB9FF20704796
:10113000013BDBB203704268D05C0021D1547047A0
:101140004FF6FF730381002111E05B080381013A30
:101150005AB1038913F0010FF7D05B08038183F4C0
:10116000204383F001030381F1E70131C9B2037821
:101170008B4206D943685B5C028953400381082295
:10118000E6E70089704710B504464FF6FF73038108
:10119000002111E05B082381013A5AB1238913F041
:1011A000010FF7D05B08238183F4204383F0010310
:1011B0002381F1E70131C9B223789A1E914206DA00
:1011C00063685B5C2289534023810822E5E76268FB
:1011D000D11811F8020C217A884201D0002010BDEC
:1011E000134413F8012C637A9A4201D00020F6E7E9
:1011F0002046FFF799FF2046FFF796FF0120EEE714
:1012000000B587B0002300930193029303930493E6
:1012100005931948194A026043608360C360036103
:1012200004224261037643760122C26180F82030B5
:101230008362C36280F83030436380F8383000F056
:10124000A7FA90B90E4B0093062301930023029353
:101250007F2203920422049205936946064800F017
:10126000F5FC28B907B05DF804FBFFF799FCE9E746
:10127000FFF796FCF6E700BF88030020000004504B
:101280000080F03E00B589B00023039304930593DA
:10129000069307930268124B9A4202D009B05DF898
:1012A00004FB03F17043A3F5F833DA6C42F4005207
:1012B000DA64DA6C02F400520192019ADA6C42F0BC
:1012C0000202DA64DB6C03F002030293029B032345
:1012D00003930B23049303A9024802F063FEDDE7A6
:1012E0000000045000040048F0B58BB000240594C1
:1012F0000694079408940994364BDA6C42F0040281
:10130000DA64DA6C02F004020192019ADA6C42F0BB
:101310000102DA64DA6C02F001020292029ADA6CDB
:1013200042F00202DA64DA6C02F002020392039ADB
:10133000DA6C42F08002DA64DB6C03F08003049321
:10134000049B2246F2214FF0904002F071FF224EA2
:1013500022462021304602F06BFF4FF440430593B4
:1013600003250695079405A91C4802F01BFE40F6CC
:10137000011305930695079405A94FF0904002F0DC
:1013800011FEF2230593012706970794089405A9F7
:101390004FF0904002F006FE4FF480530593069400
:1013A000079405A94FF0904002F0FCFD202305931F
:1013B00006970794089405A9304602F0F3FD082328
:1013C00005930695079405A9054802F0EBFD0BB0BF
:1013D000F0BD00BF001002400004004800080048B3
:1013E000001C004808B51248124B0360124B4360C2
:1013F000002383600122C260036143618361C36192
:10140000036201F0B1F950B90021094801F0E0FB95
:1014100040B90021064801F025FC30B908BDFFF7AE
:10142000BFFBF1E7FFF7BCFBF3E7FFF7B9FBF5E71D
:10143000EC03002000540040EC9C901010B588B0E4
:101440000023039304930593069307930268134BB9
:101450009A4201D008B010BD114CE36C43F0020376
:10146000E364E36C03F002030193019BC023039345
:101470001223049301230593032306930423079364
:1014800003A9084802F08EFDA36D43F40013A36581
:10149000A36D03F400130293029BDBE700540040AA
:1014A000001002400004004808B51248124B0360C7
:1014B0004FF4E133436000238360C36003610C2277
:1014C00042618361C3610362436203F03DFD70B911
:1014D000084B1A68136843F020031360002211467A
:1014E000252002F09FFF252002F0E2FF08BDFFF754
:1014F00057FBEDE7380400200038014008B51448D8
:10150000144B03604FF4166343604FF480538360C1
:101510000023C3604FF4806202610C224261836148
:10152000C3610362436203F00FFD70B9084B1A6890
:10153000136843F02003136000220121262002F0EB
:1015400071FF262002F0B4FF08BDFFF729FBEDE78D
:10155000BC0400200044004000B58BB0002305937C
:10156000069307930893099303682E4A934205D084
:101570002D4A93422CD00BB05DF804FB2B4B1A6E16
:1015800042F480421A661A6E02F480420192019A75
:10159000DA6C42F00102DA64DB6C03F001030293BF
:1015A000029B4FF4C0630593022306930323089321
:1015B0000723099305A94FF0904002F0F3FC0022A5
:1015C0001146252002F02EFF252002F071FFD2E700
:1015D000164B9A6D42F400329A659A6D02F400320D
:1015E0000392039ADA6C42F00102DA64DB6C03F0D6
:1015F00001030493049B0C23059302230693032306
:1016000008930723099305A94FF0904002F0CAFC04
:1016100000221146262002F005FF262002F048FF96
:10162000A9E700BF0038014000440040001002401C
:1016300008B50248FFF76CF9FEE700BF745D0008CB
:1016400008B50348FFF764F902F04AFFFEE700BF60
:10165000805D000808B50348FFF75AF902F040FF23
:10166000FEE700BF945D000808B50348FFF750F996
:1016700002F036FFFEE700BFA85D000808B502488B
:10168000FFF746F9FEE700BFBC5D000808B5024859
:10169000FFF73EF908BD00BFD05D000808B502485D
:1016A000FFF736F908BD00BFDC5D000808B5024849
:1016B000FFF72EF908BD00BFF05D000808B5034A2A
:1016C00013780133137000F0AFFE08BD3402002020
:1016D00008B5054B1B68998CC9B20D2900D108BD0E
:1016E0000248FFF7A5FCFAE738040020FC010020BF
:1016F00010B5074C2368998CC9B20648FFF709FD5D
:10170000054B01221A70204602F044FF10BD00BFB5
:10171000BC040020380200203502002082B00A4BB1
:101720001A6E42F001021A661A6E02F0010200926D
:10173000009A9A6D42F080529A659B6D03F0805337
:101740000193019B02B07047001002400E4AD2F88C
:10175000883043F47003C2F888300C4B1A6842F0AA
:1017600001021A60002199601A6822F0A85222F43E
:1017700010221A604FF48052DA601A6822F4802234
:101780001A609961704700BF00ED00E00010024050
:1017900030B583B000230193002800F04C8204464A
:1017A0000268A24B9A4204D040F2A111A048FFF770
:1017B00075FA6368B3F5803F28D0B3F5003F25D0B4
:1017C000B3F5403F22D00BB3B3F5802F1ED0B3F555
:1017D000002F1BD0B3F5402F18D0B3F5801F15D0C4
:1017E000B3F5A01F12D0B3F5C01F0FD0B3F5E01FA3
:1017F0000CD0B3F5001F09D0B3F5101F06D0B3F518
:10180000201F03D0B3F5301F40F0A680A36833B18A
:10181000082B04D0102B02D0182B40F0A380E368D3
:1018200013B1202B40F0A4802369012B00F2A68085
:10183000637E012B00F2A880E36A4BB1B3F5806FA1
:1018400006D0B3F5006F03D0B3F5406F40F0A2802F
:10185000A36AB3F5806F2ED0B3F5886F2BD0B3F5A4
:10186000906F28D0B3F5986F25D0B3F5A06F22D034
:10187000B3F5A86F1FD0B3F5B06F1CD0B3F5B86F38
:1018800019D0B3F5C06F16D0B3F5C86F13D0B3F548
:10189000D06F10D0B3F5D86F0DD0B3F5E06F0AD08C
:1018A000B3F5E86F07D0B3F5F06F04D0B3F5F86F78
:1018B00001D0002B74D194F83030012B76D86369B5
:1018C000042B01D0082B77D1636B13B1B3F5805F84
:1018D00078D1237E012B7BD894F83830012B7DD82A
:1018E000236963B1E369013B0F2B7DD894F8203065
:1018F000012B7FD894F82030012B00F0818094F8E0
:101900002030012B00F08780636D002B00F0968063
:1019100023689A6812F0005F05D09A6822F020428E
:1019200022F03F029A602268936813F0805F40F0D3
:101930009380936823F0104323F03F0343F08053D8
:1019400093603C4B1B689B093B4AA2FB03239B090A
:1019500001335B0001937CE04FF4D1713448FFF711
:101960009DF953E740F2A3113148FFF797F956E785
:1019700040F2A7112E48FFF791F955E74FF4D471C3
:101980002B48FFF78BF953E740F2A9112848FFF7DE
:1019900085F951E74FF4D5712548FFF77FF957E7EF
:1019A00040F2AB112248FFF779F984E74FF4D67182
:1019B0001F48FFF773F982E740F2AD111C48FFF7AB
:1019C0006DF981E74FF4D7711948FFF767F980E7A0
:1019D00040F2AF111648FFF761F97DE74FF4D87177
:1019E0001348FFF75BF97BE74FF4DA711048FFF714
:1019F00055F97BE740F2B5110D48FFF74FF979E74C
:101A0000636A013B072B7FF67AAF40F2B9110848B1
:101A1000FFF744F973E7637E012B7FF475AF4FF452
:101A2000DF710348FFF73AF96EE700BF000004508A
:101A3000485E000800000020632D3E052046FFF7A9
:101A400021FC0023A36584F8503061E7019B013B32
:101A50000193019B002BF9D12268936813F0805FFA
:101A600078D1636D43F010036365A36D43F0010308
:101A7000A3650125936813F0040300D00123616D71
:101A800011F0100F40F0CF80002B40F0CC80636D40
:101A900023F4817343F002036365936813F0010F2D
:101AA0000BD1664B9B6813F0010F06D16368644944
:101AB0008A6822F47C1213438B60627E636B43EA74
:101AC0004233E2681343A268134394F8202043EAA8
:101AD0000243012A40D0A26A22B102F47072E16A84
:101AE0000A4313432168C868564A02401343CB6037
:101AF00021688B6813F0040300D001238A6812F078
:101B0000080200D00122B3B9AAB9227E94F830307D
:101B10005B0043EA8232CB6823F4804323F0020364
:101B20001343CB6094F83830012B1AD02268136924
:101B300023F0010313612369012B6BD02268136B1F
:101B400023F00F031363636D23F0030343F00103DA
:101B500063656DE000258DE7626A013A43EA42431E
:101B6000B9E7E36B6BB1042B0BD0082B09D00C2B1E
:101B700007D0102B05D0142B03D0182B01D01C2B11
:101B800030D1236C83B1202B0ED0402B0CD0602B96
:101B90000AD0802B08D0A02B06D0C02B04D0E02B7D
:101BA00002D0B3F5807F23D1636C13B1B3F5007F0E
:101BB00024D1A36C012B03D040F20142934223D1E4
:101BC00021680B6923F4FF6323F00403E26B206CAC
:101BD0000243606C0243A06C0243134343F00103D1
:101BE0000B61A8E740F26F211748FFF757F8C8E7E5
:101BF0004FF41C711448FFF751F8D5E740F27121FA
:101C00001148FFF74BF8D4E740F272210E48FFF776
:101C100045F8D5E721680B6B23F00F03E269013A21
:101C200013430B638FE7636D43F010036365012576
:101C3000284603B030BD0125FAE700BF000004507C
:101C40000003045007C0F0FF485E0008F0B583B001
:101C500005460C46002301930268814B9A4204D04A
:101C600040F69C217F48FFF719F86368062B2CD0BB
:101C70000C2B2AD0122B28D0182B26D0B3F5807F1E
:101C800023D0B3F5837F20D0B3F5867F1DD0B3F585
:101C9000897F1AD0B3F58C7F17D0B3F5007F14D0AD
:101CA00040F20622934210D0B3F5037F0DD040F2EC
:101CB0001222934209D0B3F5067F06D0B3F5407FD8
:101CC00003D040F2063293424BD1A368072B4ED883
:101CD000E3687F2B02D0644A93424ED12369042BE0
:101CE00006D02BB1012B03D0022B01D0032B4AD1FC
:101CF00061692B68DB689B0803F0060340F6FF72FE
:101D000022FA03F3994244D82369042B03D095F8AF
:101D10003830012B43D0E268534B9A4200F0CA801E
:101D20002A684F4B9A4240D040F6AA214D48FEF710
:101D3000B5FF95F85030012B00F03383012385F86F
:101D400050302B689A6812F0040F00F003816B6D1D
:101D500043F020036B650120002385F8503003B069
:101D6000F0BD40F69D213F48FEF798FFADE740F6F5
:101D70009E213C48FEF792FFAAE740F69F21394892
:101D8000FEF78CFFAAE74FF42A613648FEF786FF7C
:101D9000AEE740F6A1213348FEF780FFB4E740F6F6
:101DA000A5213048FEF77AFFB5E723682F4A934212
:101DB000BFD02F4A9342BCD02E4A9342B9D02E4A6C
:101DC0009342B6D002F1866210329342B1D02B4AD0
:101DD0009342AED002F1866240329342A9D0284AA3
:101DE0009342A6D002F1866202F580729342A0D09F
:101DF000244A93429DD002F1042202F540129342FC
:101E000097D002F1866202F50062934291D01E4A99
:101E100093428ED01D4A93428BD01D4A934288D064
:101E20001C4A934285D01C4A934282D01B4A93425B
:101E30003FF47FAF1A4A93423FF47BAF194A934273
:101E40003FF477AF184A93423FF473AF174A934277
:101E50003FF46FAF164A93427FF466AF69E700BF65
:101E600000000450485E000800007F40020030047B
:101E7000040060080800900C1000C01040002019F9
:101E8000000180210004002A002090360040C03A62
:101E90000080F03E00002143000052470000844BC8
:101EA00001000080000052C7000084CB00005AC728
:101EB00000008CCB23689F4A93423FF43AAF9E4A7E
:101EC00093423FF436AF9D4A93423FF432AF9C4A6F
:101ED00093423FF42EAF02F18662103293423FF4F8
:101EE00028AF984A93423FF424AF02F18662403211
:101EF00093423FF41EAF944A93423FF41AAF02F16B
:101F0000866202F5807293423FF413AF8F4A934288
:101F10003FF40FAF02F1042202F5401293423FF466
:101F200008AF02F1866202F5006293423FF401AF0E
:101F3000874A93423FF4FDAE864A93423FF4F9AE9E
:101F4000854A93423FF4F5AE40F6AE218348FEF752
:101F5000A5FEEEE66068216803F1300C030A9B00E1
:101F600003F00C035CF8032000F01F004FF01F0E7D
:101F70000EFA00FE22EA0E02C1F3846181400A4398
:101F80004CF8032029688B6813F0040300D0012368
:101F90008A6812F0080200D001220BB9002A33D05F
:101FA0002A68936813F0010F17D12368E068D2F80C
:101FB000B010C3F3120C21EA0C0100F0180C6848B1
:101FC00020FA0CF00340C3F312030B43C2F8B03005
:101FD000E268644B9A4200F0D3802368624A13425D
:101FE00000F0DB81614A926802F0E07060498B4248
:101FF00000F086815F498B4200F0A8815E498B42E8
:1020000000F0B8810020A7E62668A0681431730E9E
:102010009B0003F00403CA58C6F3045C072606FAC3
:102020000CF622EA060200FA0CF00243CA5061697B
:102030002A68D368C3F3C1035B0001FA03F3206984
:1020400004280ED02668603252F820704B4939407F
:1020500006F0F8463343194341F0004142F820109E
:102060009EE7136E116EC1F384612368C3F31200FF
:1020700080BBC3F38463994234D029684B6E4A6EA7
:10208000C2F384622368C3F3120080BBC3F384638A
:102090009A4234D029688B6E8A6EC2F384622368B8
:1020A000C3F3120080BBC3F384639A4234D029681F
:1020B000CB6ECA6EC2F384622368C3F3120080BB86
:1020C000C3F384639A427FF46BAFCB6E23F000437B
:1020D000CB6665E793FAA3F313B1B3FA83F3CAE7C8
:1020E0002023C8E7136E23F000431366C5E793FA75
:1020F000A3F313B1B3FA83F3CAE72023C8E74B6E07
:1021000023F000434B66C5E793FAA3F313B1B3FA88
:1021100083F3CAE72023C8E78B6E23F000438B6666
:10212000C5E793FAA3F313B1B3FA83F3CAE7202305
:10213000C8E700BF02003004040060080800900CEB
:102140001000C01040002019000180210004002A66
:10215000002090360040C03A0080F03E485E000803
:10216000FFFF070000007F400000088000030450CC
:10217000000052C7000084CB0100008000F0FF0384
:1021800029682368C3F31200002839D19A0E01325E
:1021900002F01F02092A8CBF00220122002A67D008
:1021A00000283CD19A0E0132920602F0F842002833
:1021B00041D19E0E013606F01F0C012606FA0CF6E0
:1021C0003243002846D19B0E013303F01F0303EB7B
:1021D00043031B051343A26801F11406580E800047
:1021E00000F004003158C3F304534FF0070C0CFA0D
:1021F00003FC21EA0C0C9A404CEA02023250ECE655
:1022000093FAA3F24AB1B2FA82F2013202F01F024B
:10221000092A8CBF00220122C0E72022F5E793FAA9
:10222000A3F232B1B2FA82F20132920602F0F8421F
:10223000BDE72022F8E793FAA3F64EB1B6FA86F688
:10224000013606F01F064FF0010C0CFA06F6B7E750
:102250002026F5E793FAA3F343B1B3FA83F30133EE
:1022600003F01F0303EB43031B05B3E72023F6E74B
:10227000D0B99A0E0132920602F0F84200BB9E0ECF
:10228000013606F01F0C012606FA0CF6324330BB6D
:102290009B0E013303F01F0303EB43031E3B1B059F
:1022A00043F00073134396E793FAA3F232B1B2FA04
:1022B00082F20132920602F0F842DFE72022F8E7CC
:1022C00093FAA3F64EB1B6FA86F6013606F01F066B
:1022D0004FF0010C0CFA06F6D8E72026F5E793FA42
:1022E000A3F35BB1B3FA83F3013303F01F0303EBF2
:1022F00043031E3B1B0543F00073D3E72023F3E7A2
:1023000012F4000F7FF476AE2A68274B9A4201D070
:10231000002021E540F4000324498A6822F0E0729D
:1023200013438B60224B1B689B09224AA2FB0323A9
:102330009B09013303EB43039B000193019B1BB1FA
:10234000019B013B0193F9E7002005E512F0807F36
:102350007FF454AE2A68144B9A4201D00020FBE46B
:1023600040F0807311498A6822F0E07213438B6059
:102370000020F1E412F4800F11D12A680A4B9A422E
:1023800001D00020E8E440F4800308498A6822F084
:10239000E07213438B600020DEE40020DCE40020C8
:1023A000DAE40220DBE400BF000004500003045024
:1023B00000000020632D3E05104B1B780BB9012057
:1023C000704710B504464FF47A70B0FBF3F30C4A33
:1023D0001068B0FBF3F002F095F868B90F2C01D942
:1023E00001200AE0002221464FF0FF3002F01AF8E7
:1023F000044B1C60002000E0012010BD0400002000
:10240000000000200800002010B5032001F0ECFFC0
:102410000020FFF7D1FF10B10124204610BD044673
:10242000FFF77CF9F9E70000034B1B78034A1168BA
:102430000B441360704700BF0400002040050020DB
:10244000014B1868704700BF4005002038B50446AE
:10245000FFF7F6FF0546B4F1FF3F02D0044B1B78AF
:102460001C44FFF7EDFF401BA042FAD338BD00BF6C
:102470000400002003689A6912F0020F01D00022C4
:102480009A6203689A6912F0010F03D19A6942F0C7
:1024900001029A61704700002DE9F04180460C4628
:1024A00017461D46069E0368224A934208D002F54D
:1024B0000062934204D041F639111F48FEF7EEFB4B
:1024C000B5F1807F03D0B5F1007F00D035BB1B4B49
:1024D0009E4208D0A3F5E0539E4204D0A3F580634A
:1024E0009E4200D006BBD8F800205168730D03F45B
:1024F000806343F07F7343F4583343F47F7343F0B6
:10250000030321EA0301C4F3090444EA074444EA4B
:10251000050333430B435360BDE8F08141F63A11A4
:102520000548FEF7BBFBD2E741F63B110248FEF738
:10253000B5FBD8E700540040845E000800400080EE
:10254000F8B505460E46174603689B6913F0100F51
:1025500001D10020F8BD2B689C6914F0200F17D121
:10256000B6F1FF3FF7D0FFF76BFFC01BB04201D8B9
:10257000002EF0D16B6C43F020036B64202385F8B0
:102580004130002385F8423085F840300120E1E7F2
:102590001022DA612B682024DC612846FFF76AFFED
:1025A0002A68536823F0FF7323F48B3323F4FF73FB
:1025B00023F0010353606B6C43F004036B6485F8F4
:1025C0004140002385F8423085F840300120C1E7C2
:1025D00070B504460D46164623689B6913F0020F3A
:1025E0001DD1324629462046FFF7AAFFC8B9B5F1EA
:1025F000FF3FF1D0FFF724FF801BA84201D8002D38
:10260000EAD1636C43F020036364202384F84130F3
:10261000002384F8423084F84030012000E000209C
:1026200070BD0120FCE72DE9F041064688461746BB
:102630001D463468A46938EA04030CBF4FF0010C4E
:102640004FF0000CBC4518D1B5F1FF3FF1D0FFF7BA
:10265000F7FE069BC01AA84201D8002DE9D1736C81
:1026600043F020037364202386F84130002386F86A
:10267000423086F84030012000E00020BDE8F081C3
:1026800070B505460C4616462B689B6913F0200F63
:102690001AD1324621462846FFF752FFB0B9FFF75C
:1026A000CFFE801BA04201D8002CEDD16B6C43F013
:1026B00020036B64202385F84130002385F84230E5
:1026C00085F84030012070BD0020FCE70120FAE7CA
:1026D00070B504460D46164623689B6913F0040F37
:1026E0003ED1324629462046FFF72AFF0146002800
:1026F00038D123689A6912F0200F13D1FFF7A0FE9A
:10270000801BA84201D8002DE6D1636C43F0200362
:102710006364202384F84130002384F84030012191
:10272000084670BD9A6912F0040F02D0228D002A6B
:10273000F6D12022DA6121684B6823F0FF7323F47D
:102740008B3323F4FF7323F001034B600023636496
:1027500084F8412084F8423084F840300121DFE7DA
:102760000021DDE70121DBE7002800F0AF8010B594
:1027700004460368564A934208D002F50062934229
:1027800004D040F2E5115348FEF788FAA368B3F588
:10279000806F60D2E368013B012B62D8236913B1DB
:1027A000B3F5004F63D16369FF2B66D8A369072B8C
:1027B00069D8E36913B1B3F5002F6AD1236A13B165
:1027C000B3F5003F6BD194F84130002B6DD024233A
:1027D00084F841302268136823F0010313606368B2
:1027E000226823F0706313612268936823F4004326
:1027F0009360E368012B5ED0A368226843F404432E
:102800009360E368022B5CD02268536843F0007346
:1028100043F4004353602268D36823F40043D36039
:10282000236962691343A169226843EA0123D360E3
:10283000E369216A22680B4313602268136843F03E
:102840000103136000206064202384F8413020637A
:1028500084F8420010BD4FF4F3711E48FEF71EFAD3
:1028600098E740F2E7111B48FEF718FA96E74FF495
:10287000F4711848FEF712FA95E740F2E91115488D
:10288000FEF70CFA92E74FF4F5711248FEF706FADC
:102890008FE740F2EB110F48FEF700FA8EE74FF496
:1028A000F6710C48FEF7FAF98DE784F840302046BF
:1028B000FEF7C4FD8BE7A368226843F400439360EE
:1028C0009FE723684FF400625A609DE7012070473C
:1028D00000540040845E00082DE9F04782B00F46A6
:1028E0000A9E90F84110C9B2202940F0A380044606
:1028F0009046994690F84030012B00F09F804FF0B1
:10290000010A80F840A0FFF79BFD054600901923BF
:1029100052464FF400412046FFF785FE002840F064
:102920008F80212384F84130102384F84230002323
:102930006364C4F82480A4F82A906363638D9BB217
:10294000FF2B0AD9FF222285414B00934FF0807361
:1029500039462046FFF7A0FD18E0628D92B222852D
:102960003B4B00934FF00073D2B239462046FFF73D
:1029700093FD0BE0628D92B22285002300934FF00D
:102980000073D2B239462046FFF786FD638D9BB2B5
:10299000002B33D02A4631462046FFF719FE002887
:1029A00050D1626A236812789A62636A0133636263
:1029B000638D9BB2013B9BB26385238D013B9BB230
:1029C0002385628D92B2002AE0D0002BDED10095E3
:1029D0003346002280212046FFF725FEA0BB638DF1
:1029E0009BB2FF2BC6D9FF222285002300934FF014
:1029F000807339462046FFF74FFDC7E72A46314628
:102A00002046FFF73DFE08BB23682022DA612168DB
:102A10004B6823F0FF7323F48B3323F4FF7323F00D
:102A200001034B6084F84120002384F8423084F88D
:102A3000403000E0022002B0BDE8F0870220FAE753
:102A40000120F8E70120F6E70120F4E70120F2E792
:102A5000002000802DE9F04782B00F460A9E90F8D2
:102A60004110C9B2202940F0A28004469046994600
:102A700090F84030012B00F09E804FF0010A80F862
:102A800040A0FFF7DDFC05460090192352464FF4A5
:102A900000412046FFF7C7FD002840F08E8022232A
:102AA00084F84130102384F8423000236364C4F872
:102AB0002480A4F82A906363638D9BB2FF2B0AD90C
:102AC000FF222285414B00934FF080733946204608
:102AD000FFF7E2FC18E0628D92B222853B4B009337
:102AE0004FF00073D2B239462046FFF7D5FC0BE019
:102AF000628D92B22285002300934FF00073D2B210
:102B000039462046FFF7C8FC638D9BB2002B32D0BC
:102B10002A4631462046FFF7DBFD00284FD12368C7
:102B20005A6A636A1A70636A01336362228D013ADA
:102B300092B22285638D9BB2013B9BB26385638D0C
:102B40009BB2002BE0D0002ADED1009533468021D5
:102B50002046FFF768FDA0BB638D9BB2FF2BC7D952
:102B6000FF222285002300934FF0807339462046D0
:102B7000FFF792FCC8E72A4631462046FFF780FD62
:102B800008BB23682022DA6121684B6823F0FF73B9
:102B900023F48B3323F4FF7323F001034B6084F899
:102BA0004120002384F8423084F8403000E00220C5
:102BB00002B0BDE8F0870220FAE70120F8E7012023
:102BC000F6E70120F4E70120F2E700BF00240080CF
:102BD00038B504460D460368204A934207D002F5F3
:102BE0000062934203D064211D48FEF757F815B1E7
:102BF000B5F5805F28D194F84130DBB2202B28D185
:102C000094F84030012B26D0012384F8403024234F
:102C100084F841302268136823F0010313602268AE
:102C2000136823F480531360236819680D431D60F3
:102C30002268136843F001031360202384F84130B5
:102C4000002084F8400038BD65210548FEF726F8CD
:102C5000D1E70220F7E70220F5E700BF005400406B
:102C6000C05E000838B504460D4603681E4A93420C
:102C700007D002F50062934203D092211B48FEF771
:102C80000DF80F2D26D894F84130DBB2202B26D139
:102C900094F84030012B24D0012384F840302423C1
:102CA00084F841302268136823F00103136023681D
:102CB000196821F4706141EA05251D6022681368D6
:102CC00043F001031360202384F84130002084F88E
:102CD000400038BD93210548FDF7E0FFD3E702200F
:102CE000F7E70220F5E700BF00540040C05E00088F
:102CF00030B583B00446204B9B6D13F0805F0BD042
:102D000001F014FBB0F5007F17D0802C1FD82DD018
:102D1000702C2DD000211BE0174DAB6D43F080537C
:102D2000AB65AB6D03F080530193019B01F0FEFA9C
:102D3000AB6D23F08053AB65E4E7802C03D9A02C66
:102D400003D9022104E0002102E0012100E0032177
:102D50000A4A136823F007030B431360136803F058
:102D600007038B4206D1002003B030BD0221EFE7FC
:102D70000121EDE70120F7E70010024000200240AA
:102D8000284A9368D26802F0030213F00C030AD0B9
:102D90000C2B06D0042B1FD0082B20D0002002467D
:102DA00010E0012AF6D11F4A126812F0080F0CD168
:102DB0001C4AD2F89420C2F303221B4951F8222066
:102DC00043B100200C2B0DD07047164A1268C2F395
:102DD0000312F2E71046F5E714480022F2E7144820
:102DE0000022EFE70F4BDB6803F00303022B16D042
:102DF000032B00D10E4A0B49C868C0F30210431CD4
:102E0000C868C0F3062002FB00F0B0FBF3F0CB680B
:102E1000C3F3416301335B00B0FBF3F0D4E7034A33
:102E2000E9E700BF00100240185E00080024F4002B
:102E300000127A00002800F00184F0B583B0044647
:102E4000036813B113F03F0F46D0944B9D6805F013
:102E50000C05DE6806F00306236813F0100F00F07F
:102E60009280A369012B3DD8E369FF2B40D8236AE8
:102E7000ABB1102B13D0202B11D0302B0FD0402B07
:102E80000DD0502B0BD0602B09D0702B07D0802B8E
:102E900005D0902B03D0A02B01D0B02B2ED1002D2C
:102EA00034D00C2D30D0A369002B00F0DD807B4A9C
:102EB000136843F001031360FFF7C2FA0746774B2C
:102EC0001B6813F0020F40F0BC80FFF7B9FAC01B7B
:102ED0000228F4D90320BCE34FF4D1717048FDF708
:102EE000DDFEB2E740F2AB116D48FDF7D7FEBBE760
:102EF0004FF4D6716A48FDF7D1FEB8E740F2AD1144
:102F00006748FDF7CBFECAE7012ECCD1634B1B68A7
:102F100013F0020F03D0A369002B00F09183206A05
:102F20005E4B1B6813F0080F65D05C4B1B6803F009
:102F3000F003984266D8594B1A6842F008021A60AA
:102F40001A6822F0F002216A0A431A605A6822F4D1
:102F50007F42E16942EA01225A60002D6AD0FFF700
:102F60000FFF4E4B9B68C3F303134E4AD35C03F031
:102F70001F03D8404C4B18604C4B1868FFF71CFAE5
:102F8000002840F06683236813F0010F00F09C8056
:102F900063682BB1B3F5803F02D0B3F5A02F77D192
:102FA000082D00F088800C2D00F082806368B3F556
:102FB000803F00F0B080B3F5A02F00F0B280374B17
:102FC0001A6822F480321A601A6822F480221A6089
:102FD0006368002B00F0B280FFF732FA07462F4BF0
:102FE0001B6813F4003F6FD1FFF72AFAC01B642857
:102FF000F5D903202DE3294BD3F894301B0903F0B6
:10300000F00396E7FFF774FE002840F01B83234B84
:103010001A6842F008021A601A6822F0F002216A67
:103020000A431A605A6822F47F42E16942EA0122A7
:103030005A6094E7206AFFF75BFE00288FD00120DA
:1030400007E3164B1A6842F008021A601A6822F069
:10305000F002216A0A431A605A6822F47F42E16949
:1030600042EA01225A608EE70C4A136823F00103FA
:103070001360FFF7E5F90746084B1B6813F0020FD2
:1030800081D0FFF7DDF9C01B0228F5D90320E0E26B
:1030900040F219210248FDF701FE81E700100240CD
:1030A000005F0008005E000800000020080000200B
:1030B000032E7FF47BAFAB4B1B6813F4003F03D0B0
:1030C0006368002B00F0C082236813F0020F63D006
:1030D000E36813B1B3F5807F3FD123691F2B42D83A
:1030E000042D48D00C2D44D0E368002B7ED09D4A9F
:1030F000136843F480731360FFF7A2F90646994BF7
:103100001B6813F4806F68D1FFF79AF9801B0228BF
:10311000F5D903209DE2934A136843F4803313608A
:1031200056E703F18043A3F53C331A6842F480224A
:103130001A601A6842F480321A6049E7FFF780F992
:103140000746884B1B6813F4003FBDD0FFF778F9A2
:10315000C01B6428F5D903207BE24FF41371824829
:10316000FDF79CFDB9E740F24D217F48FDF796FD44
:10317000B6E7022EB8D17B4B1B6813F4806F03D0E7
:10318000E368002B00F06282764A536823F0F8531C
:10319000216943EA01635360236813F0080F56D096
:1031A0006369012B36D86369002B39D06D4AD2F898
:1031B000943043F00103C2F89430FFF741F906461A
:1031C000684BD3F8943013F0020F40D1FFF738F971
:1031D000801B0228F4D903203BE2624A536823F0A3
:1031E000F853216943EA01635360D5E75D4A1368E8
:1031F00023F480731360FFF723F90646594B1B68CD
:1032000013F4806FC8D0FFF71BF9801B0228F5D993
:1032100003201EE240F28D215348FDF73FFDC2E737
:10322000504AD2F8943023F00103C2F89430FFF7EB
:1032300007F906464B4BD3F8943013F0020F06D033
:10324000FFF7FEF8801B0228F4D9032001E223686F
:1032500013F0040F00F08D80A368012B01D9052B1A
:103260003BD1404B9B6D13F0805F3CD13D4B9A6D41
:1032700042F080529A659B6D03F080530193019B4D
:1032800001263A4B1B6813F4807F2ED0A368012BD4
:103290003FD0052B45D0334BD3F8902022F00102CC
:1032A000C3F89020D3F8902022F00402C3F89020B5
:1032B000A368002B43D0FFF7C3F80746294BD3F888
:1032C000903013F0020F53D1FFF7BAF8C01B41F250
:1032D00088339842F2D90320BBE14FF43871224879
:1032E000FDF7DCFCBDE70026CBE7204A136843F47A
:1032F00080731360FFF7A4F807461C4B1B6813F498
:10330000807FC3D1FFF79CF8C01B0228F5D90320AA
:103310009FE1144AD2F8903043F00103C2F8903094
:10332000C6E7104BD3F8902042F00402C3F8902077
:10333000D3F8902042F00102C3F89020B8E7FFF7DD
:103340007FF80746074BD3F8903013F0020F0FD0E9
:10335000FFF776F8C01B41F288339842F2D9032078
:1033600077E100BF00100240005F000800700040DD
:10337000FEB9236813F0200F3ED0636A012B1ED8DC
:10338000636A13B3AA4AD2F8983043F00103C2F833
:103390009830FFF755F80646A54BD3F8983013F050
:1033A000020F29D1FFF74CF8801B0228F4D9032023
:1033B0004FE19F4A936D23F080539365D9E740F224
:1033C00045319C48FDF76AFCDAE7994AD2F8983013
:1033D00023F00103C2F89830FFF732F80646944B09
:1033E000D3F8983013F0020F06D0FFF729F8801BAE
:1033F0000228F4D903202CE1A36A022B2DD8A36A5A
:10340000002B00F02581022B2DD00C2D00F0258102
:10341000874B1A6822F080721A601B6813F0006FE5
:1034200004D1834AD36823F00303D360804AD3686E
:1034300023F0887323F48033D360FFF701F8044648
:103440007B4B1B6813F0007F00F0EF80FEF7F8FF66
:10345000001B0228F4D90320FBE040F26E317548CE
:10346000FDF71CFCCBE7E36A032B2ED8236B013B53
:10347000072B30D8636B083B4E2B32D8A36B023B33
:103480001D2B34D8E36B022B05D0042B03D0062B65
:1034900001D0082B31D1236C022B05D0042B03D093
:1034A000062B01D0082B2ED1614BDB6803F0030102
:1034B000E26A91422DD00C2D00F0CD805C4B1B6850
:1034C00013F0806F4FD00120C3E040F276315948AD
:1034D000FDF7E4FBCAE740F277315648FDF7DEFB23
:1034E000C8E74FF45E715348FDF7D8FBC6E740F2DA
:1034F0007A315048FDF7D2FBC4E74FF45F714D4875
:10350000FDF7CCFBC7E740F27D314A48FDF7C6FB2B
:10351000CAE703F07002216B0139B2EB011FCAD177
:1035200003F4FE42616BB2EB012FC4D103F0784289
:10353000A16BB2EBC16FBED103F4C001E26B5208C4
:10354000013AB1EB425FB6D103F0C063226C52087E
:10355000013AB3EB426FAED1354B1B6813F0007FDD
:1035600049D0002075E0324A136823F0807313605D
:10357000FEF766FF05462E4B1B6813F0007F06D052
:10358000FEF75EFF401B0228F5D9032061E0284AC0
:10359000D36829491940E36A206B013843EA0013D4
:1035A000606B43EA0023E06B4008013843EA405374
:1035B000206C4008013843EA4063A06B43EAC063D3
:1035C0000B43D360136843F080731360D36843F0F8
:1035D0008073D360FEF734FF0446154B1B6813F06D
:1035E000007F06D1FEF72CFF001B0228F5D903202F
:1035F0002FE000202DE00E4B1A6842F080721A6016
:10360000DA6842F08072DA60FEF71AFF0446084B6F
:103610001B6813F0007F06D1FEF712FF031B022B7D
:10362000F5D9032015E0002013E0002011E000BFD1
:1036300000100240005F00088C809D01012070474F
:10364000012006E0012004E0012002E0012000E06A
:10365000002003B0F0BD0120FBE70120F9E700BF27
:10366000002800F0F58070B50D4604460368013B64
:103670000E2B28D8042D2CD8794B1B6803F0070398
:10368000AB420BD2764A136823F007032B43136037
:10369000136803F00703AB4240F0DC80236813F0AB
:1036A000010F50D06368032B19D86368032B1CD01B
:1036B000022B3AD0002B3FD16A4A126812F0020F57
:1036C00019D10120B1E040F262416748FDF7E6FA06
:1036D000D0E740F263416448FDF7E0FACCE740F2FE
:1036E0007A416148FDF7DAFADFE75E4A126812F0C4
:1036F000007F00F0B1805B498A6822F00302134327
:103700008B60FEF79DFE0646564B9B6803F00C034C
:103710006268B3EB820F16D0FEF792FE801B41F277
:1037200088339842F0D903207FE04E4A126812F4A1
:10373000003FE0D1012078E04A4A126812F4806F1D
:10374000D9D1012071E0236813F0020F18D0A368CB
:103750007BB1802B0DD0902B0BD0A02B09D0B02BA0
:1037600007D0C02B05D0D02B03D0E02B01D0F02BFD
:103770005CD13C4A936823F0F003A1680B4393604B
:10378000374B1B6803F00703AB420AD9344A13686E
:1037900023F007032B431360136803F00703AB42C6
:1037A0005CD1236813F0040F14D0E3685BB1B3F568
:1037B000806F08D0B3F5A06F05D0B3F5C06F02D00D
:1037C000B3F5E06F38D1274A936823F4E063E168EA
:1037D0000B439360236813F0080F15D023695BB186
:1037E000B3F5806F08D0B3F5A06F05D0B3F5C06F07
:1037F00002D0B3F5E06F25D11A4A936823F46053E1
:10380000216943EAC1039360FFF7BAFA154B9B683D
:10381000C3F30313154AD35C03F01F03D840144BC2
:103820001860144B1868FEF7C7FD70BD4FF49B611C
:103830000D48FDF733FA9CE74FF49F610A48FDF706
:103840002DFAC0E740F2FF410748FDF727FAD3E71A
:10385000012070470120E8E70120E6E70120E4E7C6
:103860000020024000100240005F0008005E0008D7
:103870000000002008000020014B1868704700BFBE
:103880000000002008B5FFF7F7FF054B9B68C3F366
:103890000223044AD35C03F01F03D84008BD00BFD5
:1038A00000100240105E000808B5FFF7E5FF054B69
:1038B0009B68C3F3C223044AD35C03F01F03D840C0
:1038C00008BD00BF00100240105E0008F8B50446B5
:1038D0000D460368032B24D86368013B072B26D8C9
:1038E000A368083B4E2B28D8A3697C4A134204D016
:1038F00023F0887323F4803323B140F66331784892
:10390000FDF7CCF9774BDB6813F0030F2AD0754B2A
:10391000DB6803F003032268934214D0012630468B
:10392000F8BD4FF436616E48FDF7B8F9D4E740F6BC
:1039300061316B48FDF7B2F9D2E740F66231684871
:10394000FDF7ACF9D0E7002A00F0C580654BDB68D5
:10395000C3F3021301336268934201D00126DEE70C
:10396000002609E02368022B5AD0032B5FD0012BDD
:1039700045D00126002ED2D15A4A136823F0806325
:103980001360FEF75DFD0746564B1B6813F0006F92
:1039900005D0FEF755FDC31B022BF5D90326002EDB
:1039A000BDD1002D57D1E368023B1D2B4DD84D49A9
:1039B0000B6923F0784323F4FE43A068E268D20643
:1039C00042EA002213430B61464A136843F08063C6
:1039D0001360FEF735FD0546424B1B6813F0006F80
:1039E00005D1FEF72DFD401B0228F5D90326002E38
:1039F00095D13C4A1369A1690B4313618FE7394A9A
:103A0000126812F0020F1ED03648C26822F073020C
:103A10006168013943EA01131343C3600026A9E733
:103A2000304A126812F4806FEED10126A2E72D4AC7
:103A3000126812F4003FE7D12A4A126812F4802F6C
:103A4000E2D1012696E7012694E740F6B6312448F4
:103A5000FDF724F9ABE7012D18D06369022B05D0DF
:103A6000042B03D0062B01D0082B2ED11D48026950
:103A700022F0C06222F4FE42A16863695B08013B48
:103A80005B0643EA0123134303619DE72369022B8D
:103A900005D0042B03D0062B01D0082B0FD11148E1
:103AA000026922F4C00222F4FE42A16823695B0885
:103AB000013B5B0543EA01231343036184E740F6BE
:103AC000DA310748FDF7EAF8E9E740F6EC31044857
:103AD000FDF7E4F8CAE7012621E700BF0000110165
:103AE0003C5F0008001002402DE9F04182B004461E
:103AF00003685F4A1A4216D0236813F4006F37D068
:103B0000E36B2BB1B3F5000F02D0B3F5400F0FD12B
:103B1000E36BB3F5000F10D0B3F5400F1CD09BB191
:103B20000126374626E0CB215248FDF7B7F8E3E7F8
:103B3000D3215048FDF7B2F8EAE74F4AD36843F47F
:103B40008033D360002708E00021201DFFF7BEFE70
:103B5000074610B106460DE00027474AD2F88830E4
:103B600023F44003E16B0B43C2F88830002601E0E8
:103B700000263746236813F4003F00F08680236D4B
:103B800043B1B3F5807F05D0B3F5007F02D0B3F524
:103B9000407F51D1384B9B6D13F0805F52D1364B33
:103BA0009A6D42F080529A659B6D03F080530193A9
:103BB000019B4FF00108314A136843F4807313608E
:103BC000FEF73EFC05462D4B1B6813F4807F05D1A4
:103BD000FEF736FC401B0228F5D90327002F4FD1F2
:103BE000254BD3F8903013F4407315D0226D9A42D0
:103BF00012D0214AD2F8903023F44073D2F89010BA
:103C000041F48031C2F89010D2F8901021F4803144
:103C1000C2F89010C2F8903013F0010F15D1002FA8
:103C200040F04981144AD2F8903023F44073216D5A
:103C30000B43C2F8903024E04FF4A3710D48FDF718
:103C40002DF8A7E74FF00008B5E7FEF7F9FB0546AA
:103C5000094BD3F8903013F0020FE0D1FEF7F0FBE0
:103C6000401B41F288339842F2D90327D7E700BFBF
:103C700063EF06003C5F0008001002400070004047
:103C80003E46B8F1000F40F01881236813F0010F91
:103C900010D0236A012B04D9032B02D0022B40F051
:103CA0001281A84AD2F8883023F00303216A0B431B
:103CB000C2F88830236813F0020F11D0636A33B161
:103CC000042B04D00C2B02D0082B40F002819D4A1B
:103CD000D2F8883023F00C03616A0B43C2F88830B5
:103CE000236813F0200F14D0A36A4BB1B3F5806F93
:103CF00006D0B3F5406F03D0B3F5006F40F0EF800E
:103D0000904AD2F8883023F44063A16A0B43C2F88A
:103D10008830236813F4007F14D0636B4BB1B3F584
:103D2000802F06D0B3F5002F03D0B3F5402F40F01D
:103D3000DC80844AD2F8883023F44023616B0B4343
:103D4000C2F88830236813F4806F14D0A36B4BB192
:103D5000B3F5801F06D0B3F5001F03D0B3F5401FA5
:103D600040F0C980774AD2F8883023F44013A16B21
:103D70000B43C2F88830236813F0400F11D0E36A78
:103D800033B1B3F5805F03D0B3F5005F40F0B98085
:103D90006C4AD2F8883023F44053E16A0B43C2F8EE
:103DA0008830236813F4807F11D0236B33B1B3F5CF
:103DB000803F03D0B3F5003F40F0A980614AD2F8BC
:103DC000883023F44033216B0B43C2F888302368DA
:103DD00013F4005F1DD0236C4BB1B3F1806F06D09C
:103DE000B3F1006F03D0B3F1406F40F09680554AB5
:103DF000D2F8883023F04063216C0B43C2F888303E
:103E0000236CB3F1006F00F08E80B3F1806F00F08F
:103E10008F80236813F4802F1DD0636C4BB1B3F1F6
:103E2000806F06D0B3F1006F03D0B3F1406F40F064
:103E30008D80444AD2F8883023F04063616C0B4394
:103E4000C2F88830636CB3F1006F00F08580B3F185
:103E5000806F00F08680236813F4804F15D0A36C28
:103E600033B1B3F1805F03D0B3F1405F40F08280A3
:103E7000344AD2F8883023F04053A16C0B43C2F887
:103E80008830A36CB3F1805F7AD0236813F4004FBD
:103E90000DD0E36C13B1B3F1804F7AD1294AD2F837
:103EA000883023F08043E16C0B43C2F88830304601
:103EB00002B0BDE8F0813E46E3E6224A936D23F06E
:103EC00080539365E1E640F29B111F48FCF7E6FE44
:103ED000E7E640F2A5111C48FCF7E0FEF7E640F2E9
:103EE000D9111948FCF7DAFE0AE74FF4F1711648C8
:103EF000FCF7D4FE1DE740F2E9111348FCF7CEFEB3
:103F000030E740F2F1111048FCF7C8FE40E740F2FC
:103F100009210D48FCF7C2FE50E740F222210A4871
:103F2000FCF7BCFE63E7D36843F48013D36070E70B
:103F30000121201DFFF7CAFC00283FF46AAF0646A6
:103F400067E700BF001002403C5F00084FF41A71A1
:103F50001348FCF7A3FE6CE7D36843F48013D360E7
:103F600079E70121201DFFF7B1FC00283FF473AF72
:103F7000064670E74FF422710948FCF78FFE77E799
:103F80000221201DFFF7A2FC00283FF47EAF064669
:103F90007BE74FF42D710248FCF780FE7EE700BFFF
:103FA0003C5F00082DE9F04383B007460C46B0F1B2
:103FB000904F0ED0984B98420BD003F580639842F7
:103FC00007D003F5A053984203D0B3219348FCF7E0
:103FD00065FE23689AB212B11B0C1B041BB1B421FD
:103FE0008E48FCF75BFE6368012B20D9112B1ED095
:103FF000022B1CD0122B1AD0894A934217D002F5FB
:104000008012934213D002F5801293420FD0A2F592
:10401000F81293420BD002F58012934207D002F5BA
:104020008012934203D0032B01D00B2B04D1A36841
:10403000022B06D8002589E0B5217848FCF72EFE32
:10404000F5E7B6217548FCF729FEF3E7C62173486A
:10405000FCF724FE91E023690F2B00F2CE80EA08E2
:10406000083257F8220005F0070399000F238B4010
:1040700020EA030023698B40034347F822303B6862
:1040800009EA0309636803F0030303FA08F343EA48
:1040900009033B60636813F0805F56D0614B1A6E72
:1040A00042F001021A661B6E03F001030193019BAB
:1040B000AA08911C5C4B53F8210005F003039900FA
:1040C0000F238B4020EA0300B7F1904F00F09C8053
:1040D000514B9F4200F09A8003F580639F4200F0AD
:1040E000918007238B40034302324F4941F822302D
:1040F0004E4B1A68F34322EA0601606810F4803FD1
:1041000001D046EA0201494A1160526803EA0201FD
:10411000606810F4003F01D046EA0201434A516052
:10412000926803EA0201606810F4801F01D046EA39
:1041300002013E4A9160D2681340616811F4001F89
:1041400001D046EA0203394AD3600135266836FABF
:1041500005F35DD04FF0010808FA05F818EA0606E5
:10416000F3D063685A1E012A03D9112B01D0122BF8
:1041700017D1E368032B3FF669AFBA6869000323E0
:104180008B4022EA0302E3688B401343BB607B68E9
:1041900023EA08086368C3F30013AB4043EA08034B
:1041A0007B60FA684FEA4508032303FA08F36FEAD5
:1041B000030922EA0302A36803FA08F31343FB602E
:1041C0006368022B02D0122B7FF459AFB7F1904FE6
:1041D0003FF441AF104B9F423FF43DAF03F5806386
:1041E0009F423FF438AF03F5A0539F423FF433AFF3
:1041F000EC210A48FCF752FD2DE7ED210748FCF7BA
:104200004DFD2CE702236DE700236BE7012369E7EF
:1042100003B0BDE8F08300BF000400487C5F0008E5
:104220000000111000100240000001400004014095
:1042300070B5054614460E4621B1012C08D86CB164
:10424000AE6170BD4FF4D9710548FCF727FDF4E766
:1042500040F2B3110248FCF721FDF0E7AE62F0E74F
:104260007C5F000838B505460C4641B16B6904EA2D
:10427000030224EA030444EA0244AC6138BD4FF46B
:10428000E5710248FCF70AFDF0E700BF7C5F00081B
:1042900090F82530DBB2022B06D00423C363002341
:1042A00080F82430012070470268136823F00E0361
:1042B00013600268136823F001031360436C03F07A
:1042C0001C03016C012202FA03F34B6080F82520E5
:1042D000002380F824301846704708B590F8253040
:1042E000DBB2022B03D00423C363012008BD0268A4
:1042F000136823F00E0313600268136823F00103B0
:104300001360436C03F01C03016C012202FA03F3F7
:104310004B6080F82520002380F82430836B13B194
:1043200098470020E2E70020E0E70000024B186811
:1043300000F4C060704700BF0070004010B5044634
:10434000B0F5007F02D0B0F5806F12D1B4F5007FD8
:1043500014D0214B1B6803F4C063B3F5806F39D0D0
:104360001D4A136823F4C06343F480631360002084
:1043700010BDA8211948FCF791FCE7E7164B1B6814
:1043800003F4C063B3F5007F20D0134A136823F40D
:10439000C06343F400731360114B1B68322202FBAD
:1043A00003F3104AA2FB03239B0C013300E0013B03
:1043B000094A526912F4806F01D0002BF7D1064BE5
:1043C0005B6913F4806F03D10020D1E70020CFE7B1
:1043D0000320CDE70020CBE700700040B85F000865
:1043E0000000002083DE1B4310B50446C31E042BCF
:1043F0000FD80A4AD36823F4E0631B041B0C240281
:1044000004F4E064234343F0BF6343F40033D36018
:1044100010BDA7210248FCF741FCEAE700ED00E0EF
:10442000F85F000870B505460C4616460F2A25D8D9
:104430000F2C28D81B4BDB68C3F30223C3F1070101
:10444000042928BF04211A1D062A21D9033B4FF055
:10445000FF3202FA01F124EA01049C4002FA03F35C
:1044600026EA03063443002D14DB2401E4B205F1EF
:10447000604505F5614585F8004370BDBF210A48D8
:10448000FCF70CFCD4E7C0210748FCF707FCD1E798
:104490000023DCE705F00F052401E4B2034B5C5573
:1044A000EBE700BF00ED00E0F85F000814ED00E06E
:1044B00010B5041E0ADB002C07DB04F01F026409A0
:1044C00001239340044A42F8243010BDD32103480D
:1044D000FCF7E4FBEFE700BF00E100E0F85F000855
:1044E000BFF34F8F0549CA6802F4E062044B1343DF
:1044F000CB60BFF34F8F00BFFDE700BF00ED00E0D2
:104500000400FA050138B0F1807F0BD24FF0E023B0
:104510005861054AF02182F8231000209861072293
:104520001A6170470120704700ED00E002681368CF
:1045300023F4907313600268936823F0010393607F
:10454000036E012B05D02023C36700230366436657
:1045500070470268136823F010031360F3E7704795
:1045600008B501680A6822F040020A6020228267CA
:1045700000228266FFF7F3FF08BD704708B5806A26
:104580000023A0F85A30A0F85230FFF7F6FF08BD1C
:104590007047000070B504460168CB6908688D68F3
:1045A00040F60F021A4005D113F0200F02D010F090
:1045B000200F20D12AB115F0010222D1944E3042B1
:1045C0001FD1226E012A00F0A28013F4801F03D0B5
:1045D00015F4800F40F00A8113F0800F03D010F023
:1045E000800F40F00A8113F0400F03D010F0400F0D
:1045F00040F00A8170BD636E002BFBD020469847C7
:10460000F8E713F0010F09D010F4807F06D00125E0
:104610000D62D4F880102943C4F8801013F0020F03
:1046200009D042B1216802250D62D4F8801041F012
:104630000401C4F8801013F0040F09D042B12168BE
:1046400004250D62D4F8801041F00201C4F88010F6
:1046500013F0080F0BD010F0200F00D13AB12268F0
:1046600008211162D4F880200A43C4F8802013F492
:10467000006F0CD010F0806F09D022684FF40061F9
:104680001162D4F8802042F02002C4F88020D4F8CF
:104690008020002AAED013F0200F06D010F0200F9B
:1046A00003D0636E0BB120469847D4F8802023686E
:1046B0009B6813F0400F02D112F0280F20D0204643
:1046C000FFF734FF23689A6812F0400F14D09A68FD
:1046D00022F040029A60236F53B14E4A9A63206FD2
:1046E000FFF7FBFD002885D0206F836B984781E79B
:1046F0002046FFF742FF7DE72046FFF73EFF79E7C0
:104700002046FFF73AFF0023C4F8803072E713F029
:10471000100F3FF45AAF10F0100F3FF456AF1023B4
:104720000B622268936813F0400F38D0216F0B683A
:104730005B689BB2002B3FF45DAFB4F85800984221
:104740007FF658AFA4F85A300B681B6813F0200F9F
:104750000AD0B4F85810B4F85A309BB2C91A89B2CA
:104760002046FFF715FF45E7136823F480731360B5
:104770002268936823F0010393602268936823F012
:10478000400393602023E3670023236622681368B5
:1047900023F010031360206FFFF77AFDD9E7B4F818
:1047A0005810B4F85A309BB2C91A89B2B4F85A30CA
:1047B0009BB2002B3FF41EAF00293FF41BAF1368E0
:1047C00023F4907313602268936823F001039360CD
:1047D0002023E3670023236663662268136823F0BF
:1047E000100313602046FFF7D3FE03E74FF4801356
:1047F0000B62204600F006FCFCE6A36E002B3FF4A3
:10480000F9AE20469847F5E62046FFF7A9FEF1E607
:10481000200100047D45000810B5044642688C4B19
:104820009A4200F28480A368B3F1805F04D01BB188
:10483000B3F5805F40F081802268864B9A4200F099
:104840008280E368B3F5805F07D033B1B3F5405F92
:1048500003D0B3F5005F40F08280236A1BB1B3F54B
:10486000006F40F0828023692BB1B3F5806F02D0D6
:10487000B3F5C06F7FD1636933F00C0200D123B967
:1048800040F652417448FCF709FAA36943B1B3F505
:10489000807F05D0B3F5007F02D0B3F5407F70D1A3
:1048A000E36913B1B3F5004F71D1A36822691343D3
:1048B00062691343E269134321680868674A02404A
:1048C00013430B602268536823F44053E1680B43A1
:1048D0005360A16922685F4B9A4201D0236A194351
:1048E000936823F430630B43936023685C4A9342DC
:1048F00053D05C4A934264D0564A93427AD01022F5
:1049000054498B4200F09780E069B0F5004F00F009
:10491000CF80082A00F22881DFE812F0F7000D01AD
:10492000F50026011001260126012601130140F69B
:1049300045414948FCF7B2F975E740F6464146481B
:10494000FCF7ACF978E7E368002B8CD0B3F5005F97
:1049500089D040F649414048FCF7A0F983E740F68A
:104960004D413D48FCF79AF977E740F64E413A4809
:10497000FCF794F977E740F651413748FCF78EF998
:1049800079E740F653413448FCF788F988E740F668
:1049900054413148FCF782F987E702F55842D2F8D2
:1049A000882002F00302032A09D8DFE802F002049B
:1049B00038060122A4E70422A2E70822A0E7102279
:1049C0009EE702F5E632D2F8882002F00C020C2AAB
:1049D0000ED8DFE802F0070D0D0D090D0D0D260DA7
:1049E0000D0D0B0000228BE7042289E7082287E7E0
:1049F000102285E702F5C832D2F8882002F440621E
:104A0000B2F5006F0FD005D87AB1B2F5806F0ED134
:104A1000042275E7B2F5406F0BD1082270E702223D
:104A20006EE702226CE702226AE7002268E71022A2
:104A300066E7102264E7082A00F28680DFE802F0C9
:104A4000148436843384848405004FF400400FE0DE
:104A5000809698000080004038600008F369FFEFFE
:104A60000038014000440040FEF70CFF00286DD0E4
:104A7000626802EB420383426AD8B0EB023F69D816
:104A8000010E00025308C0184FF0000341F100016D
:104A9000FBF706FCA0F54072364B9A425CD82368BF
:104AA000D860002043E0FEF76BF9DFE73248DFE72C
:104AB000082A53D8DFE802F0072105522452525247
:104AC0000B002D4803E0FEF7DDFE002848D06268A9
:104AD000530803EB4000B0FBF2F080B2A0F11002EB
:104AE0004FF6EF739A423DD820F00F03C0F3420017
:104AF00018432368D860002019E0FEF7D5FEE4E7EC
:104B0000FEF73EF9E1E71C4802E0FEF7BBFE68B3A2
:104B1000636800EB5300B0FBF3F080B2A0F1100229
:104B20004FF6EF739A4223D82368D8600020002301
:104B30006366A36610BDFEF7B7FEE8E7FEF720F94F
:104B4000E5E74FF40040E3E70120F0E70020EEE75F
:104B50000120ECE70120EAE70120E8E70120E6E791
:104B60000020E4E70120E2E70120E0E70020DEE7A3
:104B70000120DCE7FFFC0F000024F40010B5044620
:104B8000436AFF2B00F29480636A13F0010F0CD08C
:104B9000A36A1BB1B3F5003F40F0908022685368D0
:104BA00023F40033A16A0B435360636A13F0020FCE
:104BB0000CD0E36A1BB1B3F5803F40F085802268DA
:104BC000536823F48033E16A0B435360636A13F044
:104BD000040F0BD0236B13B1B3F5802F7AD1226869
:104BE000536823F48023216B0B435360636A13F0F3
:104BF000080F0BD0636B13B1B3F5004F70D122686F
:104C0000536823F40043616B0B435360636A13F0F2
:104C1000100F0BD0A36B13B1B3F5805F66D1226880
:104C2000936823F48053A16B0B439360636A13F082
:104C3000200F0BD0E36B13B1B3F5005F5CD122689A
:104C4000936823F40053E16B0B439360636A13F0A2
:104C5000400F1CD023683E4A934208D0A2F574420C
:104C6000934204D040F669513A48FCF717F8236C98
:104C700013B1B3F5801F45D12268536823F4801324
:104C8000216C0B435360236CB3F5801F40D0636AE3
:104C900013F0800F0BD0A36C13B1B3F5002F50D1DC
:104CA0002268536823F40023A16C0B43536010BDAA
:104CB00040F63A512748FBF7F1FF65E740F63F51D0
:104CC0002448FBF7EBFF69E740F646512148FBF724
:104CD000E5FF74E740F64D511E48FBF7DFFF7EE726
:104CE00040F654511B48FBF7D9FF88E740F65B516B
:104CF0001848FBF7D3FF92E740F662511548FBF7DF
:104D0000CDFF9CE740F66A511248FBF7C7FFB3E7B7
:104D1000636C43B1B3F5001F05D0B3F5800F02D02B
:104D2000B3F5C00F07D12268536823F4C003616C48
:104D30000B435360ABE740F66F510648FBF7AEFFFD
:104D4000F1E740F677510348FBF7A8FFA8E700BF5B
:104D500000380140386000082DE9F84305460F4649
:104D600016469946DDF820802C68E46937EA04038A
:104D70000CBF4FF0010C4FF0000CB4453DD1B8F121
:104D8000FF3FF1D0FDF75CFBA0EB0900404522D8C6
:104D9000B8F1000F1FD02B681A6812F0040FE3D08F
:104DA000DA6912F4006FDFD04FF400621A622A68E9
:104DB000136823F4D07313602A68936823F0010307
:104DC00093602023AB67EB67C5F88030002385F83C
:104DD0007430032012E02A68136823F4D073136040
:104DE0002A68936823F0010393602023AB67EB6785
:104DF000002385F87430032000E00020BDE8F8832C
:104E00002DE9F04182B01E46836F202B56D1044617
:104E10000D469046002955D0002A55D090F87430A0
:104E2000012B53D0012380F874300023C0F8803068
:104E300021238367FDF704FB0746A4F85080A4F8FC
:104E40005280A368B3F5805F05D04FF000080023BF
:104E500084F8743014E0236913B14FF00008F6E7CA
:104E6000A8460025F3E738F8023B2268C3F308039D
:104E70001385B4F8522092B2013A92B2A4F85220AB
:104E8000B4F852309BB273B100963B4600228021A9
:104E90002046FFF761FFD8B9002DE4D0236815F84C
:104EA000012B1A85E5E700963B460022402120466B
:104EB000FFF752FF70B92023A36700E0022002B081
:104EC000BDE8F0810120FAE70120F8E70220F6E7CB
:104ED0000320F4E70320F2E730B583B00446002353
:104EE000C0F88030FDF7ACFA05462268126812F06F
:104EF000080F0DD123681B6813F0040F16D120236F
:104F0000A367E3670020206684F8740003B030BD17
:104F10006FF07E430093034600224FF400112046B9
:104F2000FFF71AFF0028E5D00320EFE76FF07E437C
:104F300000932B4600224FF480012046FFF70CFF20
:104F40000028DCD00320E1E7002855D010B5044646
:104F50008369002B34D00368284A93420CD0A2F511
:104F60007442934208D002F57052934204D04FF439
:104F7000A6712348FBF792FEA36F002B32D02423A7
:104F8000A3672268136823F0010313602046FFF72C
:104F900043FC012813D0636A53BB2268536823F48F
:104FA000904353602268936823F02A039360226839
:104FB000136843F0010313602046FFF78DFF10BD17
:104FC00003680E4A9342D7D0A2F574429342D3D0DD
:104FD00002F570529342CFD040F251110848FBF7CE
:104FE0005DFEC9E784F874302046FCF7B5FAC6E7E1
:104FF0002046FFF7C3FDD0E701207047003801408D
:105000003860000870470000DFF834D0FCF79EFBE2
:10501000002103E00B4B5B58435004310A480B4B13
:1050200042189A42F6D30A4A02E0002342F8043BAF
:10503000084B9A42F9D300F015F8FBF711FEFEE792
:1050400000000120C0610008000000207000002066
:105050007000002058050020FEE70A22002100F021
:10506000AFB8000070B50D4D0D4C641BA4100026A8
:10507000A64209D10B4D0C4C00F0EAFC641BA410B5
:105080000026A64205D170BD55F8043B984701366D
:10509000EEE755F8043B98470136F2E7B0610008A7
:1050A000B0610008B0610008B46100080244034622
:1050B000934200D1704703F8011BF9E7012B2DE95A
:1050C000F04701D0242B06D900F0A4F81623036082
:1050D0000020BDE8F087DFF8E4C00D462E4615F845
:1050E000014B14F80C7017F00807F7D12D2C32D1B2
:1050F0002C780127B51C002B5BD0102B09D1302C4C
:1051000007D12C7804F0DF04582C4DD16C78102393
:10511000023507F1004808F1FF384FF0000CB8FBEA
:10512000F3F9664603FB198AA4F1300EBEF1090FAC
:1051300016D87446A34224DDBCF1000F1EDBB14536
:105140001CD301D1A24519DB06FB03464FF0010C2D
:1051500015F8014BE8E72B2C04BF2C78B51CCAE7E7
:10516000A4F1410EBEF1190F01D8373CE2E7A4F1DA
:10517000610EBEF1190F04D8573CDBE74FF0FF3C3E
:10518000E6E7BCF1000F05DA22230360464642B988
:1051900030469EE707B17642002AF9D0BCF1000FF5
:1051A00000D0691E1160F3E73024002BB1D1082331
:1051B000AFE7302CA5D00A23ABE700BF756000082D
:1051C00013460A46014602480068FFF777BF00BF52
:1051D0000C00002000B59BB0009104916FF00041DD
:1051E0000591029105490391694600F075F8009B0D
:1051F00000221A701BB05DF804FB00BF0802FFFF1D
:1052000013460A46014602480068FFF7E3BF00BFA5
:105210000C000020014B1868704700BF0C000020F4
:105220002DE9F0478E689E4282460C4690461F4606
:1052300038D88A8912F4906F32D025680969A5EBB5
:105240000109656905EB450505EBD57501334B444F
:105250006D109D4238BF1D46530531D5294600F0DB
:1052600043FB064650B90C23CAF80030A38943F02B
:105270004003A3814FF0FF30BDE8F08721694A4623
:1052800000F0BEFAA38923F4906343F08003A38166
:10529000266165614E44A5EB09052660A5603E4682
:1052A000BE4200D93E4620683246414600F0B6FA7A
:1052B000A3689B1BA3602368334423600020DBE7C3
:1052C0002A4600F06BFB06460028E1D121695046D2
:1052D00000F0BEFAC7E700002DE9F04F98468B8931
:1052E0001B069DB007460D4614460ED50B6963B9E3
:1052F000402100F0F9FA2860286120B90C233B60B6
:105300004FF0FF30D1E040236B610023099320234D
:105310008DF82930CDF80C803023DFF8A8818DF886
:105320002A304FF0010923469A4613F8012B0AB19F
:10533000252AF9D1BAEB040B0BD05B46224629464D
:105340003846FFF76DFF013000F0AA80099A5A44F1
:1053500009929AF80030002B00F0A28000234FF051
:10536000FF32CDE905230AF1010A049307938DF872
:1053700053301A935446052214F8011B5148FAF78A
:105380003FFF049AD8B9D00644BF20238DF853308C
:10539000110744BF2B238DF853309AF800302A2B85
:1053A00015D0079A544600204FF00A0C214611F8F8
:1053B000013B303B092B4ED9B0B1079214E0A0EB72
:1053C000080309FA03F313430493A246D2E7039BAD
:1053D000191D1B680391002BBBBF5B4242F0020208
:1053E00007930793B8BF049223782E2B0CD16378D0
:1053F0002A2B35D1039B1A1D1B680392002BB8BFC3
:105400004FF0FF3302340593DFF8C8A02178032260
:105410005046FAF7F5FE40B14023A0EB0A0003FA2C
:1054200000F0049B03430134049314F8011B264845
:105430008DF828100622FAF7E3FE002838D0234B17
:105440001BBB039B073323F0070308330393099B1C
:105450003344099367E70CFB02320C460120A5E7B1
:1054600000230134059319464FF00A0C204610F82A
:10547000012B303A092A03D9002BC5D00591C3E787
:105480000CFB012104460123F0E703AB00932A46FD
:105490000F4B04A93846AFF30080421C0646D6D114
:1054A000AB895B063FF52CAF09981DB0BDE8F08FC6
:1054B00003AB00932A46064B04A9384600F07AF85D
:1054C000EBE700BF756100087F6100080000000085
:1054D000215200087B6100082DE9F04716469946E5
:1054E0008A680B69DDF820809342B8BF13463360A9
:1054F00091F8432007460C460AB101333360236814
:10550000990642BF336802333360256815F00605FB
:1055100006D104F1190AE36832689B1AAB4226DC13
:1055200094F84320131E226818BF012392062BD43F
:1055300004F1430249463846C04701301ED0236873
:10554000E568326803F00603042B08BFAD1AA368B0
:1055500022690CBF25EAE57500259342C4BF9B1A5A
:10556000ED1800261A34B5421AD1002008E00123B4
:10557000524649463846C047013003D14FF0FF300C
:10558000BDE8F0870135C6E7E1185A1C302081F8E4
:105590004300224494F8451082F843100233C7E7D1
:1055A0000123224649463846C0470130E6D001363D
:1055B000D9E700002DE9FF470F7E0C9D782F91461B
:1055C00080460C469A4601F1430207D8622F0AD85A
:1055D000002F00F0D880582F00F0A38004F142057E
:1055E00084F842703AE0A7F16303152BF6D801A1C5
:1055F00051F823F04D56000861560008DD550008AB
:10560000DD550008DD550008DD550008615600082D
:10561000DD550008DD550008DD550008DD550008A2
:105620006D570008915600084F570008DD550008D7
:10563000DD5500088F570008DD5500089156000819
:10564000DD550008DD550008575700082B681A1D66
:105650001B682A6004F1420584F842300123A3E06C
:1056600020682968060601F104030AD50E682B603C
:10567000002E03DA2D23764284F843305E480A2355
:1056800019E00E682B6010F0400F18BF36B2EFE73C
:105690002B682068191D2960010601D51E6802E0EB
:1056A0004606FBD51E8854486F2F0CBF08230A23DB
:1056B000002184F843106568A560002DA2BF216811
:1056C00021F0040121600EB9002D4DD01546B6FB26
:1056D000F3F103FB1167C75D05F8017D3746BB4257
:1056E0000E46F4D9082B0BD12368DE0708D52369B1
:1056F00061689942DEBF302305F8013C05F1FF35B2
:10570000521B2261CDF800A04B4603AA2146404619
:10571000FFF7E2FE01304CD14FF0FF3004B0BDE89E
:10572000F087354881F845702968236851F8046B83
:1057300029601D0614D5DF0744BF43F02003236012
:105740001EB9236823F0200323601023B0E72368E9
:1057500043F0200323607823284884F84530E3E7AA
:10576000590648BFB6B2E6E71546BBE72B68266880
:105770006169181D286035061B6801D5196002E0B3
:105780007006FBD51980002323611546BAE72B6804
:105790001A1D2A601D68626800212846FAF730FD4C
:1057A00008B1401B606063682361002384F84330C4
:1057B000A8E723692A4649464046D0470130ABD086
:1057C00023689B0713D4E068039B9842B8BF184630
:1057D000A4E70123324649464046D04701309BD0DA
:1057E0000135E36803995B1AAB42F2DCEBE7002575
:1057F00004F11906F5E700BF86610008976100080B
:105800000A44914200F1FF3300D1704710B511F8FE
:10581000014B03F8014F9142F9D110BD884210B5F8
:1058200001EB020402D98442234607D8431EA14259
:1058300008D011F8012B03F8012FF8E702440146C4
:105840008A4200D110BD13F8014D02F8014DF7E76F
:1058500037B5002944D051F8043C0190002BA1F148
:105860000404B8BFE41800F0CFF81E4A019813688A
:1058700033B96360146003B0BDE8304000F0CAB8CB
:10588000A34208D9256861198B4201BF19685B687A
:1058900049192160EDE71A465B680BB1A342FAD9BA
:1058A00011685518A5420BD1246821445418A3420D
:1058B0001160E0D11C685B68536021441160DAE735
:1058C00002D90C230360D6E7256861198B4204BF17
:1058D00019685B68636004BF491921605460CAE7B6
:1058E00003B030BD44050020F8B5CD1C25F00305FC
:1058F00008350C2D38BF0C25002D064601DBA942CA
:1059000003D90C2333600020F8BD00F07DF8214955
:105910000A6814469CB9204F3B6823B9214630469B
:1059200000F062F838602946304600F05DF8431C0C
:1059300023D10C233360304600F06CF8E3E7236892
:105940005B1B17D40B2B03D923601C44256004E098
:105950006368A2420CBF0B605360304600F05AF8F7
:1059600004F10B00231D20F00700C21ACCD01B1A33
:10597000A350C9E722466468CCE7C41C24F00304A2
:10598000A042E3D0211A304600F02EF80130DDD1DC
:10599000CFE700BF4405002048050020F8B50746C2
:1059A00014460E4621B9BDE8F8401146FFF79CBFEA
:1059B00022B9FFF74DFF25462846F8BD00F030F824
:1059C000A0420FD221463846FFF78EFF0546002839
:1059D000F2D031462246FFF713FF31463846FFF733
:1059E00037FFE9E73546E7E738B5064D00230446BB
:1059F00008462B6000F01EF8431C02D12B6803B14F
:105A0000236038BD4C050020014800F011B800BFEC
:105A100050050020014800F00CB800BF50050020E0
:105A200051F8043C181F002BBCBF0B58C01870471E
:105A300070477047044A05491368002B08BF0B469E
:105A4000184410601846704754050020580500207F
:105A5000F8B500BFF8BC08BC9E467047F8B500BF5B
:085A6000F8BC08BC9E4670472B
:105A680041445331313135203A204765742053740D
:105A780061747573203A204661696C65640A000098
:105A880053656E64203D20253032582C253032581D
:105A98002C253032580D0A0049444E3F00000000C2
:105AA800646566696E656420696E204945454520D0
:105AB800537464203438382E322D3139393200008D
:105AC80068656C700000000048656C7020636F6D3D
