:020000040040BA
:10000000700800203D0140003901400039014000E6
:100010003901400039014000390140000000000072
:100020000000000000000000000000003901400056
:100030003901400000000000390140003901400052
:1000400039014000390140003901400039014000C8
:100050003901400039014000390140000000000032
:100060003901400039014000000000003901400022
:100070003901400039014000390140003901400098
:10008000000000000000000039014000390140007C
:100090003901400039014000390140003901400078
:1000A0003901400039014000390140003901400068
:1000B0003901400039014000390140003901400058
:1000C00039014000390140003901400010B5054CAC
:1000D000237833B9044B13B10448AFF300800123F4
:1000E000237010BD2C04002000000000E803400035
:1000F0000C4B43B10C480D4910B5AFF300800C48D0
:10010000036823B910BD0A48036833B97047094B27
:10011000002BF7D0BDE810401847064B002BF5D058
:10012000184700BF00000000E80340003004002032
:10013000E803400000000000FEE7000008B50F4A99
:100140000F4B9A420ED10F4B0F4A0021934212D30C
:100150000E4B0F4A23F07F0393600E4B98470E4BD4
:100160009847FEE70D49043A8B42ECD252F8040F4F
:1001700043F8040BF8E743F8041BE7E7E803400003
:10018000000000202C0400206C040020000040002F
:1001900000ED00E051024000F90140002C04002075
:1001A000024B4FF480721A60704700BF000A0E4085
:1001B00082B00023ADF806304FF6FF72BDF806306E
:1001C0009BB2934201D102B0704700BFBDF8063028
:1001D00001339BB2ADF80630F0E70000054A136822
:1001E00043F45C1343F020031360136943F00103ED
:1001F0001361704720040E4008B50F4B0F4C984711
:100200000F4B98470F4A1049136843F0004313609F
:10021000136943F00043136188478847884788473C
:100220000A48236843F0004323608847036843F08B
:10023000004303608847F4E7A1014000300E0E4000
:10024000DD014000000E0E40B1014000340E0E40B2
:1002500070B50F4E0F4D761BB61018BF002405D099
:10026000013455F8043B9847A642F9D10A4E0B4D8C
:10027000761B00F0A7F8B61018BF002406D0013492
:1002800055F8043B9847A642F9D170BD70BD00BF38
:10029000D0034000D0034000D8034000D00340000A
:1002A000024B13B1024800F005B87047000000008F
:1002B000C1024000002301461A46184600F01EB84D
:1002C00038B50A4C0A4D641BA4100AD004F18043CF
:1002D000013B05EB8305013C55F804399847002C98
:1002E000F9D1BDE8384000F077B800BFE80340001E
:1002F000E4034000704700BF704700BF2DE9F8439A
:100300002C4D0646286898460F469146FFF7F2FFA7
:10031000294B1C68D4F84831002B3ED05A681F2A5C
:100320001CDC02F1010E76B103EB82010124C1F85D
:100330008890D3F8880194402043022EC3F88801A6
:10034000C1F8088123D00232C3F804E0286843F8DA
:100350002270FFF7D1FF0020BDE8F883174B0BB3E5
:100360004FF4C870AFF300800346D8B1D4F84821E9
:100370000260002141600A46C4F848014FF0010EB6
:10038000C0F88811C0F88C11002EDCD0CCE7D3F86F
:100390008C110C43C3F88C41D5E704F5A673C4F85F
:1003A0004831BBE72868FFF7A7FF4FF0FF30BDE8F3
:1003B000F88300BF28040020C003400000000000B4
:1003C00000000020F8B500BFF8BC08BC9E4670478E
:1003D000A1024000F1004000F8B500BFF8BC08BC25
:0803E0009E467047CD0040006D
:1003E80000000000EC02002054030020BC030020A1
:1003F80000000000000000000000000000000000F5
:1004080000000000000000000000000000000000E4
:1004180000000000000000000000000000000000D4
:1004280000000000000000000000000000000000C4
:1004380000000000000000000000000000000000B4
:1004480000000000000000000000000000000000A4
:100458000000000000000000000000000000000094
:100468000000000000000000000000000000000084
:100478000000000000000000000000000000000074
:100488000000000000000000010000000000000063
:100498000E33CDAB34126DE6ECDE05000B00000028
:1004A8000000000000000000000000000000000044
:1004B8000000000000000000000000000000000034
:1004C8000000000000000000000000000000000024
:1004D8000000000000000000000000000000000014
:0C08080000000000000000004804002078
:0400000500400000B7
:00000001FF
